{"abi":[{"inputs":[],"stateMutability":"nonpayable","type":"constructor"},{"anonymous":false,"inputs":[{"indexed":true,"internalType":"address","name":"author","type":"address"},{"indexed":false,"internalType":"string","name":"message","type":"string"}],"name":"NewMessage","type":"event"},{"inputs":[],"name":"administrador","outputs":[{"internalType":"address","name":"","type":"address"}],"stateMutability":"view","type":"function"},{"inputs":[{"internalType":"uint256","name":"index","type":"uint256"}],"name":"deleteMessage","outputs":[],"stateMutability":"nonpayable","type":"function"},{"inputs":[{"internalType":"uint256","name":"index","type":"uint256"}],"name":"getMessage","outputs":[{"internalType":"string","name":"","type":"string"}],"stateMutability":"view","type":"function"},{"inputs":[],"name":"getMessages","outputs":[{"internalType":"string[]","name":"","type":"string[]"}],"stateMutability":"view","type":"function"},{"inputs":[{"internalType":"address","name":"","type":"address"}],"name":"isUser","outputs":[{"internalType":"bool","name":"","type":"bool"}],"stateMutability":"view","type":"function"},{"inputs":[{"internalType":"uint256","name":"","type":"uint256"}],"name":"messages","outputs":[{"internalType":"string","name":"","type":"string"}],"stateMutability":"view","type":"function"},{"inputs":[{"internalType":"string","name":"_new_message","type":"string"}],"name":"setMessage","outputs":[],"stateMutability":"payable","type":"function"}],"devdoc":{"kind":"dev","methods":{},"version":1},"evm":{"assembly":"    /* \"messagebox.sol\":72:1406  contract Messagebox {... */\n  mstore(0x40, 0x80)\n    /* \"messagebox.sol\":285:435  constructor ()  {... */\n  callvalue\n  dup1\n  iszero\n  tag_1\n  jumpi\n  0x00\n  dup1\n  revert\ntag_1:\n  pop\n    /* \"messagebox.sol\":322:332  msg.sender */\n  caller\n    /* \"messagebox.sol\":306:319  administrador */\n  0x02\n  0x00\n    /* \"messagebox.sol\":306:332  administrador = msg.sender */\n  0x0100\n  exp\n  dup2\n  sload\n  dup2\n  0xffffffffffffffffffffffffffffffffffffffff\n  mul\n  not\n  and\n  swap1\n  dup4\n  0xffffffffffffffffffffffffffffffffffffffff\n  and\n  mul\n  or\n  swap1\n  sstore\n  pop\n    /* \"messagebox.sol\":344:352  messages */\n  0x00\n    /* \"messagebox.sol\":344:373  messages.push(\"Hello World!\") */\n  dup1\n  0x01\n  dup2\n  sload\n  add\n  dup1\n  dup3\n  sstore\n  dup1\n  swap2\n  pop\n  pop\n  0x01\n  swap1\n  sub\n  swap1\n  0x00\n  mstore\n  keccak256(0x00, 0x20)\n  add\n  0x00\n  mload(0x40)\n  dup1\n  0x40\n  add\n  0x40\n  mstore\n  dup1\n  0x0c\n  dup2\n  mstore\n  0x20\n  add\n  0x48656c6c6f20576f726c64210000000000000000000000000000000000000000\n  dup2\n  mstore\n  pop\n  swap1\n  swap2\n  swap1\n  swap2\n  pop\n  swap1\n  dup2\n  tag_5\n  swap2\n  swap1\n  tag_6\n  jump\t// in\ntag_5:\n  pop\n    /* \"messagebox.sol\":400:410  msg.sender */\n  caller\n    /* \"messagebox.sol\":389:427  NewMessage(msg.sender, \"Hello World!\") */\n  0xffffffffffffffffffffffffffffffffffffffff\n  and\n  0x8da45d748eefefd09cc1491cd32086b6d6a0bd7063d08f05c94df9eb1404bd80\n  mload(0x40)\n  tag_7\n  swap1\n  tag_8\n  jump\t// in\ntag_7:\n  mload(0x40)\n  dup1\n  swap2\n  sub\n  swap1\n  log2\n    /* \"messagebox.sol\":72:1406  contract Messagebox {... */\n  jump(tag_9)\n    /* \"#utility.yul\":7:106   */\ntag_10:\n    /* \"#utility.yul\":59:65   */\n  0x00\n    /* \"#utility.yul\":93:98   */\n  dup2\n    /* \"#utility.yul\":87:99   */\n  mload\n    /* \"#utility.yul\":77:99   */\n  swap1\n  pop\n    /* \"#utility.yul\":7:106   */\n  swap2\n  swap1\n  pop\n  jump\t// out\n    /* \"#utility.yul\":112:292   */\ntag_11:\n    /* \"#utility.yul\":160:237   */\n  0x4e487b7100000000000000000000000000000000000000000000000000000000\n    /* \"#utility.yul\":157:158   */\n  0x00\n    /* \"#utility.yul\":150:238   */\n  mstore\n    /* \"#utility.yul\":257:261   */\n  0x41\n    /* \"#utility.yul\":254:255   */\n  0x04\n    /* \"#utility.yul\":247:262   */\n  mstore\n    /* \"#utility.yul\":281:285   */\n  0x24\n    /* \"#utility.yul\":278:279   */\n  0x00\n    /* \"#utility.yul\":271:286   */\n  revert\n    /* \"#utility.yul\":298:478   */\ntag_12:\n    /* \"#utility.yul\":346:423   */\n  0x4e487b7100000000000000000000000000000000000000000000000000000000\n    /* \"#utility.yul\":343:344   */\n  0x00\n    /* \"#utility.yul\":336:424   */\n  mstore\n    /* \"#utility.yul\":443:447   */\n  0x22\n    /* \"#utility.yul\":440:441   */\n  0x04\n    /* \"#utility.yul\":433:448   */\n  mstore\n    /* \"#utility.yul\":467:471   */\n  0x24\n    /* \"#utility.yul\":464:465   */\n  0x00\n    /* \"#utility.yul\":457:472   */\n  revert\n    /* \"#utility.yul\":484:804   */\ntag_13:\n    /* \"#utility.yul\":528:534   */\n  0x00\n    /* \"#utility.yul\":565:566   */\n  0x02\n    /* \"#utility.yul\":559:563   */\n  dup3\n    /* \"#utility.yul\":555:567   */\n  div\n    /* \"#utility.yul\":545:567   */\n  swap1\n  pop\n    /* \"#utility.yul\":612:613   */\n  0x01\n    /* \"#utility.yul\":606:610   */\n  dup3\n    /* \"#utility.yul\":602:614   */\n  and\n    /* \"#utility.yul\":633:651   */\n  dup1\n    /* \"#utility.yul\":623:704   */\n  tag_38\n  jumpi\n    /* \"#utility.yul\":689:693   */\n  0x7f\n    /* \"#utility.yul\":681:687   */\n  dup3\n    /* \"#utility.yul\":677:694   */\n  and\n    /* \"#utility.yul\":667:694   */\n  swap2\n  pop\n    /* \"#utility.yul\":623:704   */\ntag_38:\n    /* \"#utility.yul\":751:753   */\n  0x20\n    /* \"#utility.yul\":743:749   */\n  dup3\n    /* \"#utility.yul\":740:754   */\n  lt\n    /* \"#utility.yul\":720:738   */\n  dup2\n    /* \"#utility.yul\":717:755   */\n  sub\n    /* \"#utility.yul\":714:798   */\n  tag_39\n  jumpi\n    /* \"#utility.yul\":770:788   */\n  tag_40\n  tag_12\n  jump\t// in\ntag_40:\n    /* \"#utility.yul\":714:798   */\ntag_39:\n    /* \"#utility.yul\":535:804   */\n  pop\n    /* \"#utility.yul\":484:804   */\n  swap2\n  swap1\n  pop\n  jump\t// out\n    /* \"#utility.yul\":810:951   */\ntag_14:\n    /* \"#utility.yul\":859:863   */\n  0x00\n    /* \"#utility.yul\":882:885   */\n  dup2\n    /* \"#utility.yul\":874:885   */\n  swap1\n  pop\n    /* \"#utility.yul\":905:908   */\n  dup2\n    /* \"#utility.yul\":902:903   */\n  0x00\n    /* \"#utility.yul\":895:909   */\n  mstore\n    /* \"#utility.yul\":939:943   */\n  0x20\n    /* \"#utility.yul\":936:937   */\n  0x00\n    /* \"#utility.yul\":926:944   */\n  keccak256\n    /* \"#utility.yul\":918:944   */\n  swap1\n  pop\n    /* \"#utility.yul\":810:951   */\n  swap2\n  swap1\n  pop\n  jump\t// out\n    /* \"#utility.yul\":957:1050   */\ntag_15:\n    /* \"#utility.yul\":994:1000   */\n  0x00\n    /* \"#utility.yul\":1041:1043   */\n  0x20\n    /* \"#utility.yul\":1036:1038   */\n  0x1f\n    /* \"#utility.yul\":1029:1034   */\n  dup4\n    /* \"#utility.yul\":1025:1039   */\n  add\n    /* \"#utility.yul\":1021:1044   */\n  div\n    /* \"#utility.yul\":1011:1044   */\n  swap1\n  pop\n    /* \"#utility.yul\":957:1050   */\n  swap2\n  swap1\n  pop\n  jump\t// out\n    /* \"#utility.yul\":1056:1163   */\ntag_16:\n    /* \"#utility.yul\":1100:1108   */\n  0x00\n    /* \"#utility.yul\":1150:1155   */\n  dup3\n    /* \"#utility.yul\":1144:1148   */\n  dup3\n    /* \"#utility.yul\":1140:1156   */\n  shl\n    /* \"#utility.yul\":1119:1156   */\n  swap1\n  pop\n    /* \"#utility.yul\":1056:1163   */\n  swap3\n  swap2\n  pop\n  pop\n  jump\t// out\n    /* \"#utility.yul\":1169:1562   */\ntag_17:\n    /* \"#utility.yul\":1238:1244   */\n  0x00\n    /* \"#utility.yul\":1288:1289   */\n  0x08\n    /* \"#utility.yul\":1276:1286   */\n  dup4\n    /* \"#utility.yul\":1272:1290   */\n  mul\n    /* \"#utility.yul\":1311:1408   */\n  tag_45\n    /* \"#utility.yul\":1341:1407   */\n  0xffffffffffffffffffffffffffffffffffffffffffffffffffffffffffffffff\n    /* \"#utility.yul\":1330:1339   */\n  dup3\n    /* \"#utility.yul\":1311:1408   */\n  tag_16\n  jump\t// in\ntag_45:\n    /* \"#utility.yul\":1429:1468   */\n  tag_46\n    /* \"#utility.yul\":1459:1467   */\n  dup7\n    /* \"#utility.yul\":1448:1457   */\n  dup4\n    /* \"#utility.yul\":1429:1468   */\n  tag_16\n  jump\t// in\ntag_46:\n    /* \"#utility.yul\":1417:1468   */\n  swap6\n  pop\n    /* \"#utility.yul\":1501:1505   */\n  dup1\n    /* \"#utility.yul\":1497:1506   */\n  not\n    /* \"#utility.yul\":1490:1495   */\n  dup5\n    /* \"#utility.yul\":1486:1507   */\n  and\n    /* \"#utility.yul\":1477:1507   */\n  swap4\n  pop\n    /* \"#utility.yul\":1550:1554   */\n  dup1\n    /* \"#utility.yul\":1540:1548   */\n  dup7\n    /* \"#utility.yul\":1536:1555   */\n  and\n    /* \"#utility.yul\":1529:1534   */\n  dup5\n    /* \"#utility.yul\":1526:1556   */\n  or\n    /* \"#utility.yul\":1516:1556   */\n  swap3\n  pop\n    /* \"#utility.yul\":1245:1562   */\n  pop\n  pop\n    /* \"#utility.yul\":1169:1562   */\n  swap4\n  swap3\n  pop\n  pop\n  pop\n  jump\t// out\n    /* \"#utility.yul\":1568:1645   */\ntag_18:\n    /* \"#utility.yul\":1605:1612   */\n  0x00\n    /* \"#utility.yul\":1634:1639   */\n  dup2\n    /* \"#utility.yul\":1623:1639   */\n  swap1\n  pop\n    /* \"#utility.yul\":1568:1645   */\n  swap2\n  swap1\n  pop\n  jump\t// out\n    /* \"#utility.yul\":1651:1711   */\ntag_19:\n    /* \"#utility.yul\":1679:1682   */\n  0x00\n    /* \"#utility.yul\":1700:1705   */\n  dup2\n    /* \"#utility.yul\":1693:1705   */\n  swap1\n  pop\n    /* \"#utility.yul\":1651:1711   */\n  swap2\n  swap1\n  pop\n  jump\t// out\n    /* \"#utility.yul\":1717:1859   */\ntag_20:\n    /* \"#utility.yul\":1767:1776   */\n  0x00\n    /* \"#utility.yul\":1800:1853   */\n  tag_50\n    /* \"#utility.yul\":1818:1852   */\n  tag_51\n    /* \"#utility.yul\":1827:1851   */\n  tag_52\n    /* \"#utility.yul\":1845:1850   */\n  dup5\n    /* \"#utility.yul\":1827:1851   */\n  tag_18\n  jump\t// in\ntag_52:\n    /* \"#utility.yul\":1818:1852   */\n  tag_19\n  jump\t// in\ntag_51:\n    /* \"#utility.yul\":1800:1853   */\n  tag_18\n  jump\t// in\ntag_50:\n    /* \"#utility.yul\":1787:1853   */\n  swap1\n  pop\n    /* \"#utility.yul\":1717:1859   */\n  swap2\n  swap1\n  pop\n  jump\t// out\n    /* \"#utility.yul\":1865:1940   */\ntag_21:\n    /* \"#utility.yul\":1908:1911   */\n  0x00\n    /* \"#utility.yul\":1929:1934   */\n  dup2\n    /* \"#utility.yul\":1922:1934   */\n  swap1\n  pop\n    /* \"#utility.yul\":1865:1940   */\n  swap2\n  swap1\n  pop\n  jump\t// out\n    /* \"#utility.yul\":1946:2215   */\ntag_22:\n    /* \"#utility.yul\":2056:2095   */\n  tag_55\n    /* \"#utility.yul\":2087:2094   */\n  dup4\n    /* \"#utility.yul\":2056:2095   */\n  tag_20\n  jump\t// in\ntag_55:\n    /* \"#utility.yul\":2117:2208   */\n  tag_56\n    /* \"#utility.yul\":2166:2207   */\n  tag_57\n    /* \"#utility.yul\":2190:2206   */\n  dup3\n    /* \"#utility.yul\":2166:2207   */\n  tag_21\n  jump\t// in\ntag_57:\n    /* \"#utility.yul\":2158:2164   */\n  dup5\n    /* \"#utility.yul\":2151:2155   */\n  dup5\n    /* \"#utility.yul\":2145:2156   */\n  sload\n    /* \"#utility.yul\":2117:2208   */\n  tag_17\n  jump\t// in\ntag_56:\n    /* \"#utility.yul\":2111:2115   */\n  dup3\n    /* \"#utility.yul\":2104:2209   */\n  sstore\n    /* \"#utility.yul\":2022:2215   */\n  pop\n    /* \"#utility.yul\":1946:2215   */\n  pop\n  pop\n  pop\n  jump\t// out\n    /* \"#utility.yul\":2221:2294   */\ntag_23:\n    /* \"#utility.yul\":2266:2269   */\n  0x00\n    /* \"#utility.yul\":2221:2294   */\n  swap1\n  jump\t// out\n    /* \"#utility.yul\":2300:2489   */\ntag_24:\n    /* \"#utility.yul\":2377:2409   */\n  tag_60\n  tag_23\n  jump\t// in\ntag_60:\n    /* \"#utility.yul\":2418:2483   */\n  tag_61\n    /* \"#utility.yul\":2476:2482   */\n  dup2\n    /* \"#utility.yul\":2468:2474   */\n  dup5\n    /* \"#utility.yul\":2462:2466   */\n  dup5\n    /* \"#utility.yul\":2418:2483   */\n  tag_22\n  jump\t// in\ntag_61:\n    /* \"#utility.yul\":2353:2489   */\n  pop\n    /* \"#utility.yul\":2300:2489   */\n  pop\n  pop\n  jump\t// out\n    /* \"#utility.yul\":2495:2681   */\ntag_25:\n    /* \"#utility.yul\":2555:2675   */\ntag_63:\n    /* \"#utility.yul\":2572:2575   */\n  dup2\n    /* \"#utility.yul\":2565:2570   */\n  dup2\n    /* \"#utility.yul\":2562:2576   */\n  lt\n    /* \"#utility.yul\":2555:2675   */\n  iszero\n  tag_65\n  jumpi\n    /* \"#utility.yul\":2626:2665   */\n  tag_66\n    /* \"#utility.yul\":2663:2664   */\n  0x00\n    /* \"#utility.yul\":2656:2661   */\n  dup3\n    /* \"#utility.yul\":2626:2665   */\n  tag_24\n  jump\t// in\ntag_66:\n    /* \"#utility.yul\":2599:2600   */\n  0x01\n    /* \"#utility.yul\":2592:2597   */\n  dup2\n    /* \"#utility.yul\":2588:2601   */\n  add\n    /* \"#utility.yul\":2579:2601   */\n  swap1\n  pop\n    /* \"#utility.yul\":2555:2675   */\n  jump(tag_63)\ntag_65:\n    /* \"#utility.yul\":2495:2681   */\n  pop\n  pop\n  jump\t// out\n    /* \"#utility.yul\":2687:3230   */\ntag_26:\n    /* \"#utility.yul\":2788:2790   */\n  0x1f\n    /* \"#utility.yul\":2783:2786   */\n  dup3\n    /* \"#utility.yul\":2780:2791   */\n  gt\n    /* \"#utility.yul\":2777:3223   */\n  iszero\n  tag_68\n  jumpi\n    /* \"#utility.yul\":2822:2860   */\n  tag_69\n    /* \"#utility.yul\":2854:2859   */\n  dup2\n    /* \"#utility.yul\":2822:2860   */\n  tag_14\n  jump\t// in\ntag_69:\n    /* \"#utility.yul\":2906:2935   */\n  tag_70\n    /* \"#utility.yul\":2924:2934   */\n  dup5\n    /* \"#utility.yul\":2906:2935   */\n  tag_15\n  jump\t// in\ntag_70:\n    /* \"#utility.yul\":2896:2904   */\n  dup2\n    /* \"#utility.yul\":2892:2936   */\n  add\n    /* \"#utility.yul\":3089:3091   */\n  0x20\n    /* \"#utility.yul\":3077:3087   */\n  dup6\n    /* \"#utility.yul\":3074:3092   */\n  lt\n    /* \"#utility.yul\":3071:3120   */\n  iszero\n  tag_71\n  jumpi\n    /* \"#utility.yul\":3110:3118   */\n  dup2\n    /* \"#utility.yul\":3095:3118   */\n  swap1\n  pop\n    /* \"#utility.yul\":3071:3120   */\ntag_71:\n    /* \"#utility.yul\":3133:3213   */\n  tag_72\n    /* \"#utility.yul\":3189:3211   */\n  tag_73\n    /* \"#utility.yul\":3207:3210   */\n  dup6\n    /* \"#utility.yul\":3189:3211   */\n  tag_15\n  jump\t// in\ntag_73:\n    /* \"#utility.yul\":3179:3187   */\n  dup4\n    /* \"#utility.yul\":3175:3212   */\n  add\n    /* \"#utility.yul\":3162:3173   */\n  dup3\n    /* \"#utility.yul\":3133:3213   */\n  tag_25\n  jump\t// in\ntag_72:\n    /* \"#utility.yul\":2792:3223   */\n  pop\n  pop\n    /* \"#utility.yul\":2777:3223   */\ntag_68:\n    /* \"#utility.yul\":2687:3230   */\n  pop\n  pop\n  pop\n  jump\t// out\n    /* \"#utility.yul\":3236:3353   */\ntag_27:\n    /* \"#utility.yul\":3290:3298   */\n  0x00\n    /* \"#utility.yul\":3340:3345   */\n  dup3\n    /* \"#utility.yul\":3334:3338   */\n  dup3\n    /* \"#utility.yul\":3330:3346   */\n  shr\n    /* \"#utility.yul\":3309:3346   */\n  swap1\n  pop\n    /* \"#utility.yul\":3236:3353   */\n  swap3\n  swap2\n  pop\n  pop\n  jump\t// out\n    /* \"#utility.yul\":3359:3528   */\ntag_28:\n    /* \"#utility.yul\":3403:3409   */\n  0x00\n    /* \"#utility.yul\":3436:3487   */\n  tag_76\n    /* \"#utility.yul\":3484:3485   */\n  0x00\n    /* \"#utility.yul\":3480:3486   */\n  not\n    /* \"#utility.yul\":3472:3477   */\n  dup5\n    /* \"#utility.yul\":3469:3470   */\n  0x08\n    /* \"#utility.yul\":3465:3478   */\n  mul\n    /* \"#utility.yul\":3436:3487   */\n  tag_27\n  jump\t// in\ntag_76:\n    /* \"#utility.yul\":3432:3488   */\n  not\n    /* \"#utility.yul\":3517:3521   */\n  dup1\n    /* \"#utility.yul\":3511:3515   */\n  dup4\n    /* \"#utility.yul\":3507:3522   */\n  and\n    /* \"#utility.yul\":3497:3522   */\n  swap2\n  pop\n    /* \"#utility.yul\":3410:3528   */\n  pop\n    /* \"#utility.yul\":3359:3528   */\n  swap3\n  swap2\n  pop\n  pop\n  jump\t// out\n    /* \"#utility.yul\":3533:3828   */\ntag_29:\n    /* \"#utility.yul\":3609:3613   */\n  0x00\n    /* \"#utility.yul\":3755:3784   */\n  tag_78\n    /* \"#utility.yul\":3780:3783   */\n  dup4\n    /* \"#utility.yul\":3774:3778   */\n  dup4\n    /* \"#utility.yul\":3755:3784   */\n  tag_28\n  jump\t// in\ntag_78:\n    /* \"#utility.yul\":3747:3784   */\n  swap2\n  pop\n    /* \"#utility.yul\":3817:3820   */\n  dup3\n    /* \"#utility.yul\":3814:3815   */\n  0x02\n    /* \"#utility.yul\":3810:3821   */\n  mul\n    /* \"#utility.yul\":3804:3808   */\n  dup3\n    /* \"#utility.yul\":3801:3822   */\n  or\n    /* \"#utility.yul\":3793:3822   */\n  swap1\n  pop\n    /* \"#utility.yul\":3533:3828   */\n  swap3\n  swap2\n  pop\n  pop\n  jump\t// out\n    /* \"#utility.yul\":3833:5228   */\ntag_6:\n    /* \"#utility.yul\":3950:3987   */\n  tag_80\n    /* \"#utility.yul\":3983:3986   */\n  dup3\n    /* \"#utility.yul\":3950:3987   */\n  tag_10\n  jump\t// in\ntag_80:\n    /* \"#utility.yul\":4052:4070   */\n  0xffffffffffffffff\n    /* \"#utility.yul\":4044:4050   */\n  dup2\n    /* \"#utility.yul\":4041:4071   */\n  gt\n    /* \"#utility.yul\":4038:4094   */\n  iszero\n  tag_81\n  jumpi\n    /* \"#utility.yul\":4074:4092   */\n  tag_82\n  tag_11\n  jump\t// in\ntag_82:\n    /* \"#utility.yul\":4038:4094   */\ntag_81:\n    /* \"#utility.yul\":4118:4156   */\n  tag_83\n    /* \"#utility.yul\":4150:4154   */\n  dup3\n    /* \"#utility.yul\":4144:4155   */\n  sload\n    /* \"#utility.yul\":4118:4156   */\n  tag_13\n  jump\t// in\ntag_83:\n    /* \"#utility.yul\":4203:4270   */\n  tag_84\n    /* \"#utility.yul\":4263:4269   */\n  dup3\n    /* \"#utility.yul\":4255:4261   */\n  dup3\n    /* \"#utility.yul\":4249:4253   */\n  dup6\n    /* \"#utility.yul\":4203:4270   */\n  tag_26\n  jump\t// in\ntag_84:\n    /* \"#utility.yul\":4297:4298   */\n  0x00\n    /* \"#utility.yul\":4321:4325   */\n  0x20\n    /* \"#utility.yul\":4308:4325   */\n  swap1\n  pop\n    /* \"#utility.yul\":4353:4355   */\n  0x1f\n    /* \"#utility.yul\":4345:4351   */\n  dup4\n    /* \"#utility.yul\":4342:4356   */\n  gt\n    /* \"#utility.yul\":4370:4371   */\n  0x01\n    /* \"#utility.yul\":4365:4983   */\n  dup2\n  eq\n  tag_86\n  jumpi\n    /* \"#utility.yul\":5027:5028   */\n  0x00\n    /* \"#utility.yul\":5044:5050   */\n  dup5\n    /* \"#utility.yul\":5041:5118   */\n  iszero\n  tag_87\n  jumpi\n    /* \"#utility.yul\":5093:5102   */\n  dup3\n    /* \"#utility.yul\":5088:5091   */\n  dup8\n    /* \"#utility.yul\":5084:5103   */\n  add\n    /* \"#utility.yul\":5078:5104   */\n  mload\n    /* \"#utility.yul\":5069:5104   */\n  swap1\n  pop\n    /* \"#utility.yul\":5041:5118   */\ntag_87:\n    /* \"#utility.yul\":5144:5211   */\n  tag_88\n    /* \"#utility.yul\":5204:5210   */\n  dup6\n    /* \"#utility.yul\":5197:5202   */\n  dup3\n    /* \"#utility.yul\":5144:5211   */\n  tag_29\n  jump\t// in\ntag_88:\n    /* \"#utility.yul\":5138:5142   */\n  dup7\n    /* \"#utility.yul\":5131:5212   */\n  sstore\n    /* \"#utility.yul\":5000:5222   */\n  pop\n    /* \"#utility.yul\":4335:5222   */\n  jump(tag_85)\n    /* \"#utility.yul\":4365:4983   */\ntag_86:\n    /* \"#utility.yul\":4417:4421   */\n  0x1f\n    /* \"#utility.yul\":4413:4422   */\n  not\n    /* \"#utility.yul\":4405:4411   */\n  dup5\n    /* \"#utility.yul\":4401:4423   */\n  and\n    /* \"#utility.yul\":4451:4488   */\n  tag_89\n    /* \"#utility.yul\":4483:4487   */\n  dup7\n    /* \"#utility.yul\":4451:4488   */\n  tag_14\n  jump\t// in\ntag_89:\n    /* \"#utility.yul\":4510:4511   */\n  0x00\n    /* \"#utility.yul\":4524:4732   */\ntag_90:\n    /* \"#utility.yul\":4538:4545   */\n  dup3\n    /* \"#utility.yul\":4535:4536   */\n  dup2\n    /* \"#utility.yul\":4532:4546   */\n  lt\n    /* \"#utility.yul\":4524:4732   */\n  iszero\n  tag_92\n  jumpi\n    /* \"#utility.yul\":4617:4626   */\n  dup5\n    /* \"#utility.yul\":4612:4615   */\n  dup10\n    /* \"#utility.yul\":4608:4627   */\n  add\n    /* \"#utility.yul\":4602:4628   */\n  mload\n    /* \"#utility.yul\":4594:4600   */\n  dup3\n    /* \"#utility.yul\":4587:4629   */\n  sstore\n    /* \"#utility.yul\":4668:4669   */\n  0x01\n    /* \"#utility.yul\":4660:4666   */\n  dup3\n    /* \"#utility.yul\":4656:4670   */\n  add\n    /* \"#utility.yul\":4646:4670   */\n  swap2\n  pop\n    /* \"#utility.yul\":4715:4717   */\n  0x20\n    /* \"#utility.yul\":4704:4713   */\n  dup6\n    /* \"#utility.yul\":4700:4718   */\n  add\n    /* \"#utility.yul\":4687:4718   */\n  swap5\n  pop\n    /* \"#utility.yul\":4561:4565   */\n  0x20\n    /* \"#utility.yul\":4558:4559   */\n  dup2\n    /* \"#utility.yul\":4554:4566   */\n  add\n    /* \"#utility.yul\":4549:4566   */\n  swap1\n  pop\n    /* \"#utility.yul\":4524:4732   */\n  jump(tag_90)\ntag_92:\n    /* \"#utility.yul\":4760:4766   */\n  dup7\n    /* \"#utility.yul\":4751:4758   */\n  dup4\n    /* \"#utility.yul\":4748:4767   */\n  lt\n    /* \"#utility.yul\":4745:4924   */\n  iszero\n  tag_93\n  jumpi\n    /* \"#utility.yul\":4818:4827   */\n  dup5\n    /* \"#utility.yul\":4813:4816   */\n  dup10\n    /* \"#utility.yul\":4809:4828   */\n  add\n    /* \"#utility.yul\":4803:4829   */\n  mload\n    /* \"#utility.yul\":4861:4909   */\n  tag_94\n    /* \"#utility.yul\":4903:4907   */\n  0x1f\n    /* \"#utility.yul\":4895:4901   */\n  dup10\n    /* \"#utility.yul\":4891:4908   */\n  and\n    /* \"#utility.yul\":4880:4889   */\n  dup3\n    /* \"#utility.yul\":4861:4909   */\n  tag_28\n  jump\t// in\ntag_94:\n    /* \"#utility.yul\":4853:4859   */\n  dup4\n    /* \"#utility.yul\":4846:4910   */\n  sstore\n    /* \"#utility.yul\":4768:4924   */\n  pop\n    /* \"#utility.yul\":4745:4924   */\ntag_93:\n    /* \"#utility.yul\":4970:4971   */\n  0x01\n    /* \"#utility.yul\":4966:4967   */\n  0x02\n    /* \"#utility.yul\":4958:4964   */\n  dup9\n    /* \"#utility.yul\":4954:4968   */\n  mul\n    /* \"#utility.yul\":4950:4972   */\n  add\n    /* \"#utility.yul\":4944:4948   */\n  dup9\n    /* \"#utility.yul\":4937:4973   */\n  sstore\n    /* \"#utility.yul\":4372:4983   */\n  pop\n  pop\n  pop\n    /* \"#utility.yul\":4335:5222   */\ntag_85:\n  pop\n    /* \"#utility.yul\":3925:5228   */\n  pop\n  pop\n  pop\n    /* \"#utility.yul\":3833:5228   */\n  pop\n  pop\n  jump\t// out\n    /* \"#utility.yul\":5234:5403   */\ntag_30:\n    /* \"#utility.yul\":5318:5329   */\n  0x00\n    /* \"#utility.yul\":5352:5358   */\n  dup3\n    /* \"#utility.yul\":5347:5350   */\n  dup3\n    /* \"#utility.yul\":5340:5359   */\n  mstore\n    /* \"#utility.yul\":5392:5396   */\n  0x20\n    /* \"#utility.yul\":5387:5390   */\n  dup3\n    /* \"#utility.yul\":5383:5397   */\n  add\n    /* \"#utility.yul\":5368:5397   */\n  swap1\n  pop\n    /* \"#utility.yul\":5234:5403   */\n  swap3\n  swap2\n  pop\n  pop\n  jump\t// out\n    /* \"#utility.yul\":5409:5571   */\ntag_31:\n    /* \"#utility.yul\":5549:5563   */\n  0x48656c6c6f20576f726c64210000000000000000000000000000000000000000\n    /* \"#utility.yul\":5545:5546   */\n  0x00\n    /* \"#utility.yul\":5537:5543   */\n  dup3\n    /* \"#utility.yul\":5533:5547   */\n  add\n    /* \"#utility.yul\":5526:5564   */\n  mstore\n    /* \"#utility.yul\":5409:5571   */\n  pop\n  jump\t// out\n    /* \"#utility.yul\":5577:5943   */\ntag_32:\n    /* \"#utility.yul\":5719:5722   */\n  0x00\n    /* \"#utility.yul\":5740:5807   */\n  tag_98\n    /* \"#utility.yul\":5804:5806   */\n  0x0c\n    /* \"#utility.yul\":5799:5802   */\n  dup4\n    /* \"#utility.yul\":5740:5807   */\n  tag_30\n  jump\t// in\ntag_98:\n    /* \"#utility.yul\":5733:5807   */\n  swap2\n  pop\n    /* \"#utility.yul\":5816:5909   */\n  tag_99\n    /* \"#utility.yul\":5905:5908   */\n  dup3\n    /* \"#utility.yul\":5816:5909   */\n  tag_31\n  jump\t// in\ntag_99:\n    /* \"#utility.yul\":5934:5936   */\n  0x20\n    /* \"#utility.yul\":5929:5932   */\n  dup3\n    /* \"#utility.yul\":5925:5937   */\n  add\n    /* \"#utility.yul\":5918:5937   */\n  swap1\n  pop\n    /* \"#utility.yul\":5577:5943   */\n  swap2\n  swap1\n  pop\n  jump\t// out\n    /* \"#utility.yul\":5949:6368   */\ntag_8:\n    /* \"#utility.yul\":6115:6119   */\n  0x00\n    /* \"#utility.yul\":6153:6155   */\n  0x20\n    /* \"#utility.yul\":6142:6151   */\n  dup3\n    /* \"#utility.yul\":6138:6156   */\n  add\n    /* \"#utility.yul\":6130:6156   */\n  swap1\n  pop\n    /* \"#utility.yul\":6202:6211   */\n  dup2\n    /* \"#utility.yul\":6196:6200   */\n  dup2\n    /* \"#utility.yul\":6192:6212   */\n  sub\n    /* \"#utility.yul\":6188:6189   */\n  0x00\n    /* \"#utility.yul\":6177:6186   */\n  dup4\n    /* \"#utility.yul\":6173:6190   */\n  add\n    /* \"#utility.yul\":6166:6213   */\n  mstore\n    /* \"#utility.yul\":6230:6361   */\n  tag_101\n    /* \"#utility.yul\":6356:6360   */\n  dup2\n    /* \"#utility.yul\":6230:6361   */\n  tag_32\n  jump\t// in\ntag_101:\n    /* \"#utility.yul\":6222:6361   */\n  swap1\n  pop\n    /* \"#utility.yul\":5949:6368   */\n  swap2\n  swap1\n  pop\n  jump\t// out\n    /* \"messagebox.sol\":72:1406  contract Messagebox {... */\ntag_9:\n  dataSize(sub_0)\n  dup1\n  dataOffset(sub_0)\n  0x00\n  codecopy\n  0x00\n  return\nstop\n\nsub_0: assembly {\n        /* \"messagebox.sol\":72:1406  contract Messagebox {... */\n      mstore(0x40, 0x80)\n      jumpi(tag_1, lt(calldatasize, 0x04))\n      shr(0xe0, calldataload(0x00))\n      dup1\n      0x5ff6cbf3\n      gt\n      tag_9\n      jumpi\n      dup1\n      0x5ff6cbf3\n      eq\n      tag_5\n      jumpi\n      dup1\n      0x7062b97d\n      eq\n      tag_6\n      jumpi\n      dup1\n      0x86f79edb\n      eq\n      tag_7\n      jumpi\n      dup1\n      0xb888690a\n      eq\n      tag_8\n      jumpi\n      jump(tag_1)\n    tag_9:\n      dup1\n      0x0d80fefd\n      eq\n      tag_2\n      jumpi\n      dup1\n      0x368b8772\n      eq\n      tag_3\n      jumpi\n      dup1\n      0x4209fff1\n      eq\n      tag_4\n      jumpi\n    tag_1:\n      0x00\n      dup1\n      revert\n        /* \"messagebox.sol\":99:123  string[] public messages */\n    tag_2:\n      callvalue\n      dup1\n      iszero\n      tag_10\n      jumpi\n      0x00\n      dup1\n      revert\n    tag_10:\n      pop\n      tag_11\n      0x04\n      dup1\n      calldatasize\n      sub\n      dup2\n      add\n      swap1\n      tag_12\n      swap2\n      swap1\n      tag_13\n      jump\t// in\n    tag_12:\n      tag_14\n      jump\t// in\n    tag_11:\n      mload(0x40)\n      tag_15\n      swap2\n      swap1\n      tag_16\n      jump\t// in\n    tag_15:\n      mload(0x40)\n      dup1\n      swap2\n      sub\n      swap1\n      return\n        /* \"messagebox.sol\":447:869  function setMessage(string memory _new_message) public payable {... */\n    tag_3:\n      tag_17\n      0x04\n      dup1\n      calldatasize\n      sub\n      dup2\n      add\n      swap1\n      tag_18\n      swap2\n      swap1\n      tag_19\n      jump\t// in\n    tag_18:\n      tag_20\n      jump\t// in\n    tag_17:\n      stop\n        /* \"messagebox.sol\":130:168  mapping(address => bool) public isUser */\n    tag_4:\n      callvalue\n      dup1\n      iszero\n      tag_21\n      jumpi\n      0x00\n      dup1\n      revert\n    tag_21:\n      pop\n      tag_22\n      0x04\n      dup1\n      calldatasize\n      sub\n      dup2\n      add\n      swap1\n      tag_23\n      swap2\n      swap1\n      tag_24\n      jump\t// in\n    tag_23:\n      tag_25\n      jump\t// in\n    tag_22:\n      mload(0x40)\n      tag_26\n      swap2\n      swap1\n      tag_27\n      jump\t// in\n    tag_26:\n      mload(0x40)\n      dup1\n      swap2\n      sub\n      swap1\n      return\n        /* \"messagebox.sol\":997:1092  function getMessages() public view returns (string[] memory) {... */\n    tag_5:\n      callvalue\n      dup1\n      iszero\n      tag_28\n      jumpi\n      0x00\n      dup1\n      revert\n    tag_28:\n      pop\n      tag_29\n      tag_30\n      jump\t// in\n    tag_29:\n      mload(0x40)\n      tag_31\n      swap2\n      swap1\n      tag_32\n      jump\t// in\n    tag_31:\n      mload(0x40)\n      dup1\n      swap2\n      sub\n      swap1\n      return\n        /* \"messagebox.sol\":244:272  address public administrador */\n    tag_6:\n      callvalue\n      dup1\n      iszero\n      tag_33\n      jumpi\n      0x00\n      dup1\n      revert\n    tag_33:\n      pop\n      tag_34\n      tag_35\n      jump\t// in\n    tag_34:\n      mload(0x40)\n      tag_36\n      swap2\n      swap1\n      tag_37\n      jump\t// in\n    tag_36:\n      mload(0x40)\n      dup1\n      swap2\n      sub\n      swap1\n      return\n        /* \"messagebox.sol\":878:989  function getMessage(uint index) public view returns (string memory) {  ... */\n    tag_7:\n      callvalue\n      dup1\n      iszero\n      tag_38\n      jumpi\n      0x00\n      dup1\n      revert\n    tag_38:\n      pop\n      tag_39\n      0x04\n      dup1\n      calldatasize\n      sub\n      dup2\n      add\n      swap1\n      tag_40\n      swap2\n      swap1\n      tag_13\n      jump\t// in\n    tag_40:\n      tag_41\n      jump\t// in\n    tag_39:\n      mload(0x40)\n      tag_42\n      swap2\n      swap1\n      tag_16\n      jump\t// in\n    tag_42:\n      mload(0x40)\n      dup1\n      swap2\n      sub\n      swap1\n      return\n        /* \"messagebox.sol\":1098:1397  function deleteMessage(uint index) public {  //REQ3... */\n    tag_8:\n      callvalue\n      dup1\n      iszero\n      tag_43\n      jumpi\n      0x00\n      dup1\n      revert\n    tag_43:\n      pop\n      tag_44\n      0x04\n      dup1\n      calldatasize\n      sub\n      dup2\n      add\n      swap1\n      tag_45\n      swap2\n      swap1\n      tag_13\n      jump\t// in\n    tag_45:\n      tag_46\n      jump\t// in\n    tag_44:\n      stop\n        /* \"messagebox.sol\":99:123  string[] public messages */\n    tag_14:\n      0x00\n      dup2\n      dup2\n      sload\n      dup2\n      lt\n      tag_47\n      jumpi\n      0x00\n      dup1\n      revert\n    tag_47:\n      swap1\n      0x00\n      mstore\n      keccak256(0x00, 0x20)\n      add\n      0x00\n      swap2\n      pop\n      swap1\n      pop\n      dup1\n      sload\n      tag_49\n      swap1\n      tag_50\n      jump\t// in\n    tag_49:\n      dup1\n      0x1f\n      add\n      0x20\n      dup1\n      swap2\n      div\n      mul\n      0x20\n      add\n      mload(0x40)\n      swap1\n      dup2\n      add\n      0x40\n      mstore\n      dup1\n      swap3\n      swap2\n      swap1\n      dup2\n      dup2\n      mstore\n      0x20\n      add\n      dup3\n      dup1\n      sload\n      tag_51\n      swap1\n      tag_50\n      jump\t// in\n    tag_51:\n      dup1\n      iszero\n      tag_52\n      jumpi\n      dup1\n      0x1f\n      lt\n      tag_53\n      jumpi\n      0x0100\n      dup1\n      dup4\n      sload\n      div\n      mul\n      dup4\n      mstore\n      swap2\n      0x20\n      add\n      swap2\n      jump(tag_52)\n    tag_53:\n      dup3\n      add\n      swap2\n      swap1\n      0x00\n      mstore\n      keccak256(0x00, 0x20)\n      swap1\n    tag_54:\n      dup2\n      sload\n      dup2\n      mstore\n      swap1\n      0x01\n      add\n      swap1\n      0x20\n      add\n      dup1\n      dup4\n      gt\n      tag_54\n      jumpi\n      dup3\n      swap1\n      sub\n      0x1f\n      and\n      dup3\n      add\n      swap2\n    tag_52:\n      pop\n      pop\n      pop\n      pop\n      pop\n      dup2\n      jump\t// out\n        /* \"messagebox.sol\":447:869  function setMessage(string memory _new_message) public payable {... */\n    tag_20:\n        /* \"messagebox.sol\":524:530  isUser */\n      0x01\n        /* \"messagebox.sol\":524:542  isUser[msg.sender] */\n      0x00\n        /* \"messagebox.sol\":531:541  msg.sender */\n      caller\n        /* \"messagebox.sol\":524:542  isUser[msg.sender] */\n      0xffffffffffffffffffffffffffffffffffffffff\n      and\n      0xffffffffffffffffffffffffffffffffffffffff\n      and\n      dup2\n      mstore\n      0x20\n      add\n      swap1\n      dup2\n      mstore\n      0x20\n      add\n      0x00\n      keccak256\n      0x00\n      swap1\n      sload\n      swap1\n      0x0100\n      exp\n      swap1\n      div\n      0xff\n      and\n        /* \"messagebox.sol\":521:760  if(isUser[msg.sender]) { //primera vez es falso... */\n      iszero\n      tag_56\n      jumpi\n        /* \"messagebox.sol\":603:614  0.001 ether */\n      0x038d7ea4c68000\n        /* \"messagebox.sol\":590:599  msg.value */\n      callvalue\n        /* \"messagebox.sol\":590:614  msg.value == 0.001 ether */\n      eq\n        /* \"messagebox.sol\":582:662  require(msg.value == 0.001 ether, \"adding a new messages requires 0.001 ethers\") */\n      tag_57\n      jumpi\n      mload(0x40)\n      0x08c379a000000000000000000000000000000000000000000000000000000000\n      dup2\n      mstore\n      0x04\n      add\n      tag_58\n      swap1\n      tag_59\n      jump\t// in\n    tag_58:\n      mload(0x40)\n      dup1\n      swap2\n      sub\n      swap1\n      revert\n    tag_57:\n        /* \"messagebox.sol\":521:760  if(isUser[msg.sender]) { //primera vez es falso... */\n      jump(tag_60)\n    tag_56:\n        /* \"messagebox.sol\":715:719  true */\n      0x01\n        /* \"messagebox.sol\":694:700  isUser */\n      dup1\n        /* \"messagebox.sol\":694:712  isUser[msg.sender] */\n      0x00\n        /* \"messagebox.sol\":701:711  msg.sender */\n      caller\n        /* \"messagebox.sol\":694:712  isUser[msg.sender] */\n      0xffffffffffffffffffffffffffffffffffffffff\n      and\n      0xffffffffffffffffffffffffffffffffffffffff\n      and\n      dup2\n      mstore\n      0x20\n      add\n      swap1\n      dup2\n      mstore\n      0x20\n      add\n      0x00\n      keccak256\n      0x00\n        /* \"messagebox.sol\":694:719  isUser[msg.sender] = true */\n      0x0100\n      exp\n      dup2\n      sload\n      dup2\n      0xff\n      mul\n      not\n      and\n      swap1\n      dup4\n      iszero\n      iszero\n      mul\n      or\n      swap1\n      sstore\n      pop\n        /* \"messagebox.sol\":521:760  if(isUser[msg.sender]) { //primera vez es falso... */\n    tag_60:\n        /* \"messagebox.sol\":772:780  messages */\n      0x00\n        /* \"messagebox.sol\":786:798  _new_message */\n      dup2\n        /* \"messagebox.sol\":772:799  messages.push(_new_message) */\n      swap1\n      dup1\n      0x01\n      dup2\n      sload\n      add\n      dup1\n      dup3\n      sstore\n      dup1\n      swap2\n      pop\n      pop\n      0x01\n      swap1\n      sub\n      swap1\n      0x00\n      mstore\n      keccak256(0x00, 0x20)\n      add\n      0x00\n      swap1\n      swap2\n      swap1\n      swap2\n      swap1\n      swap2\n      pop\n      swap1\n      dup2\n      tag_62\n      swap2\n      swap1\n      tag_63\n      jump\t// in\n    tag_62:\n      pop\n        /* \"messagebox.sol\":826:836  msg.sender */\n      caller\n        /* \"messagebox.sol\":815:851  NewMessage(msg.sender, _new_message) */\n      0xffffffffffffffffffffffffffffffffffffffff\n      and\n      0x8da45d748eefefd09cc1491cd32086b6d6a0bd7063d08f05c94df9eb1404bd80\n        /* \"messagebox.sol\":838:850  _new_message */\n      dup3\n        /* \"messagebox.sol\":815:851  NewMessage(msg.sender, _new_message) */\n      mload(0x40)\n      tag_64\n      swap2\n      swap1\n      tag_16\n      jump\t// in\n    tag_64:\n      mload(0x40)\n      dup1\n      swap2\n      sub\n      swap1\n      log2\n        /* \"messagebox.sol\":447:869  function setMessage(string memory _new_message) public payable {... */\n      pop\n      jump\t// out\n        /* \"messagebox.sol\":130:168  mapping(address => bool) public isUser */\n    tag_25:\n      mstore(0x20, 0x01)\n      dup1\n      0x00\n      mstore\n      keccak256(0x00, 0x40)\n      0x00\n      swap2\n      pop\n      sload\n      swap1\n      0x0100\n      exp\n      swap1\n      div\n      0xff\n      and\n      dup2\n      jump\t// out\n        /* \"messagebox.sol\":997:1092  function getMessages() public view returns (string[] memory) {... */\n    tag_30:\n        /* \"messagebox.sol\":1041:1056  string[] memory */\n      0x60\n        /* \"messagebox.sol\":1076:1084  messages */\n      0x00\n        /* \"messagebox.sol\":1069:1084  return messages */\n      dup1\n      sload\n      dup1\n      0x20\n      mul\n      0x20\n      add\n      mload(0x40)\n      swap1\n      dup2\n      add\n      0x40\n      mstore\n      dup1\n      swap3\n      swap2\n      swap1\n      dup2\n      dup2\n      mstore\n      0x20\n      add\n      0x00\n      swap1\n    tag_66:\n      dup3\n      dup3\n      lt\n      iszero\n      tag_67\n      jumpi\n      dup4\n      dup3\n      swap1\n      0x00\n      mstore\n      keccak256(0x00, 0x20)\n      add\n      dup1\n      sload\n      tag_69\n      swap1\n      tag_50\n      jump\t// in\n    tag_69:\n      dup1\n      0x1f\n      add\n      0x20\n      dup1\n      swap2\n      div\n      mul\n      0x20\n      add\n      mload(0x40)\n      swap1\n      dup2\n      add\n      0x40\n      mstore\n      dup1\n      swap3\n      swap2\n      swap1\n      dup2\n      dup2\n      mstore\n      0x20\n      add\n      dup3\n      dup1\n      sload\n      tag_70\n      swap1\n      tag_50\n      jump\t// in\n    tag_70:\n      dup1\n      iszero\n      tag_71\n      jumpi\n      dup1\n      0x1f\n      lt\n      tag_72\n      jumpi\n      0x0100\n      dup1\n      dup4\n      sload\n      div\n      mul\n      dup4\n      mstore\n      swap2\n      0x20\n      add\n      swap2\n      jump(tag_71)\n    tag_72:\n      dup3\n      add\n      swap2\n      swap1\n      0x00\n      mstore\n      keccak256(0x00, 0x20)\n      swap1\n    tag_73:\n      dup2\n      sload\n      dup2\n      mstore\n      swap1\n      0x01\n      add\n      swap1\n      0x20\n      add\n      dup1\n      dup4\n      gt\n      tag_73\n      jumpi\n      dup3\n      swap1\n      sub\n      0x1f\n      and\n      dup3\n      add\n      swap2\n    tag_71:\n      pop\n      pop\n      pop\n      pop\n      pop\n      dup2\n      mstore\n      0x20\n      add\n      swap1\n      0x01\n      add\n      swap1\n      jump(tag_66)\n    tag_67:\n      pop\n      pop\n      pop\n      pop\n      swap1\n      pop\n        /* \"messagebox.sol\":997:1092  function getMessages() public view returns (string[] memory) {... */\n      swap1\n      jump\t// out\n        /* \"messagebox.sol\":244:272  address public administrador */\n    tag_35:\n      0x02\n      0x00\n      swap1\n      sload\n      swap1\n      0x0100\n      exp\n      swap1\n      div\n      0xffffffffffffffffffffffffffffffffffffffff\n      and\n      dup2\n      jump\t// out\n        /* \"messagebox.sol\":878:989  function getMessage(uint index) public view returns (string memory) {  ... */\n    tag_41:\n        /* \"messagebox.sol\":931:944  string memory */\n      0x60\n        /* \"messagebox.sol\":966:974  messages */\n      0x00\n        /* \"messagebox.sol\":975:980  index */\n      dup3\n        /* \"messagebox.sol\":966:981  messages[index] */\n      dup2\n      sload\n      dup2\n      lt\n      tag_75\n      jumpi\n      tag_76\n      tag_77\n      jump\t// in\n    tag_76:\n    tag_75:\n      swap1\n      0x00\n      mstore\n      keccak256(0x00, 0x20)\n      add\n        /* \"messagebox.sol\":959:981  return messages[index] */\n      dup1\n      sload\n      tag_79\n      swap1\n      tag_50\n      jump\t// in\n    tag_79:\n      dup1\n      0x1f\n      add\n      0x20\n      dup1\n      swap2\n      div\n      mul\n      0x20\n      add\n      mload(0x40)\n      swap1\n      dup2\n      add\n      0x40\n      mstore\n      dup1\n      swap3\n      swap2\n      swap1\n      dup2\n      dup2\n      mstore\n      0x20\n      add\n      dup3\n      dup1\n      sload\n      tag_80\n      swap1\n      tag_50\n      jump\t// in\n    tag_80:\n      dup1\n      iszero\n      tag_81\n      jumpi\n      dup1\n      0x1f\n      lt\n      tag_82\n      jumpi\n      0x0100\n      dup1\n      dup4\n      sload\n      div\n      mul\n      dup4\n      mstore\n      swap2\n      0x20\n      add\n      swap2\n      jump(tag_81)\n    tag_82:\n      dup3\n      add\n      swap2\n      swap1\n      0x00\n      mstore\n      keccak256(0x00, 0x20)\n      swap1\n    tag_83:\n      dup2\n      sload\n      dup2\n      mstore\n      swap1\n      0x01\n      add\n      swap1\n      0x20\n      add\n      dup1\n      dup4\n      gt\n      tag_83\n      jumpi\n      dup3\n      swap1\n      sub\n      0x1f\n      and\n      dup3\n      add\n      swap2\n    tag_81:\n      pop\n      pop\n      pop\n      pop\n      pop\n      swap1\n      pop\n        /* \"messagebox.sol\":878:989  function getMessage(uint index) public view returns (string memory) {  ... */\n      swap2\n      swap1\n      pop\n      jump\t// out\n        /* \"messagebox.sol\":1098:1397  function deleteMessage(uint index) public {  //REQ3... */\n    tag_46:\n        /* \"messagebox.sol\":1176:1189  administrador */\n      0x02\n      0x00\n      swap1\n      sload\n      swap1\n      0x0100\n      exp\n      swap1\n      div\n      0xffffffffffffffffffffffffffffffffffffffff\n      and\n        /* \"messagebox.sol\":1162:1189  msg.sender == administrador */\n      0xffffffffffffffffffffffffffffffffffffffff\n      and\n        /* \"messagebox.sol\":1162:1172  msg.sender */\n      caller\n        /* \"messagebox.sol\":1162:1189  msg.sender == administrador */\n      0xffffffffffffffffffffffffffffffffffffffff\n      and\n      eq\n        /* \"messagebox.sol\":1162:1216  msg.sender == administrador && index < messages.length */\n      dup1\n      iszero\n      tag_85\n      jumpi\n      pop\n        /* \"messagebox.sol\":1201:1209  messages */\n      0x00\n        /* \"messagebox.sol\":1201:1216  messages.length */\n      dup1\n      sload\n      swap1\n      pop\n        /* \"messagebox.sol\":1193:1198  index */\n      dup2\n        /* \"messagebox.sol\":1193:1216  index < messages.length */\n      lt\n        /* \"messagebox.sol\":1162:1216  msg.sender == administrador && index < messages.length */\n    tag_85:\n        /* \"messagebox.sol\":1159:1390  if(msg.sender == administrador && index < messages.length) {... */\n      iszero\n      tag_86\n      jumpi\n        /* \"messagebox.sol\":1238:1244  uint i */\n      0x00\n        /* \"messagebox.sol\":1247:1252  index */\n      dup2\n        /* \"messagebox.sol\":1238:1252  uint i = index */\n      swap1\n      pop\n        /* \"messagebox.sol\":1233:1350  for (uint i = index; i<messages.length-1; i++){... */\n    tag_87:\n        /* \"messagebox.sol\":1272:1273  1 */\n      0x01\n        /* \"messagebox.sol\":1256:1264  messages */\n      0x00\n        /* \"messagebox.sol\":1256:1271  messages.length */\n      dup1\n      sload\n      swap1\n      pop\n        /* \"messagebox.sol\":1256:1273  messages.length-1 */\n      tag_90\n      swap2\n      swap1\n      tag_91\n      jump\t// in\n    tag_90:\n        /* \"messagebox.sol\":1254:1255  i */\n      dup2\n        /* \"messagebox.sol\":1254:1273  i<messages.length-1 */\n      lt\n        /* \"messagebox.sol\":1233:1350  for (uint i = index; i<messages.length-1; i++){... */\n      iszero\n      tag_88\n      jumpi\n        /* \"messagebox.sol\":1320:1328  messages */\n      0x00\n        /* \"messagebox.sol\":1331:1332  1 */\n      0x01\n        /* \"messagebox.sol\":1329:1330  i */\n      dup3\n        /* \"messagebox.sol\":1329:1332  i+1 */\n      tag_92\n      swap2\n      swap1\n      tag_93\n      jump\t// in\n    tag_92:\n        /* \"messagebox.sol\":1320:1333  messages[i+1] */\n      dup2\n      sload\n      dup2\n      lt\n      tag_94\n      jumpi\n      tag_95\n      tag_77\n      jump\t// in\n    tag_95:\n    tag_94:\n      swap1\n      0x00\n      mstore\n      keccak256(0x00, 0x20)\n      add\n        /* \"messagebox.sol\":1306:1314  messages */\n      0x00\n        /* \"messagebox.sol\":1315:1316  i */\n      dup3\n        /* \"messagebox.sol\":1306:1317  messages[i] */\n      dup2\n      sload\n      dup2\n      lt\n      tag_97\n      jumpi\n      tag_98\n      tag_77\n      jump\t// in\n    tag_98:\n    tag_97:\n      swap1\n      0x00\n      mstore\n      keccak256(0x00, 0x20)\n      add\n        /* \"messagebox.sol\":1306:1333  messages[i] = messages[i+1] */\n      swap1\n      dup2\n      tag_100\n      swap2\n      swap1\n      tag_101\n      jump\t// in\n    tag_100:\n      pop\n        /* \"messagebox.sol\":1275:1278  i++ */\n      dup1\n      dup1\n      tag_102\n      swap1\n      tag_103\n      jump\t// in\n    tag_102:\n      swap2\n      pop\n      pop\n        /* \"messagebox.sol\":1233:1350  for (uint i = index; i<messages.length-1; i++){... */\n      jump(tag_87)\n    tag_88:\n      pop\n        /* \"messagebox.sol\":1364:1372  messages */\n      0x00\n        /* \"messagebox.sol\":1364:1378  messages.pop() */\n      dup1\n      sload\n      dup1\n      tag_104\n      jumpi\n      tag_105\n      tag_106\n      jump\t// in\n    tag_105:\n    tag_104:\n      0x01\n      swap1\n      sub\n      dup2\n      dup2\n      swap1\n      0x00\n      mstore\n      keccak256(0x00, 0x20)\n      add\n      0x00\n      tag_108\n      swap2\n      swap1\n      tag_109\n      jump\t// in\n    tag_108:\n      swap1\n      sstore\n        /* \"messagebox.sol\":1159:1390  if(msg.sender == administrador && index < messages.length) {... */\n    tag_86:\n        /* \"messagebox.sol\":1098:1397  function deleteMessage(uint index) public {  //REQ3... */\n      pop\n      jump\t// out\n    tag_109:\n      pop\n      dup1\n      sload\n      tag_110\n      swap1\n      tag_50\n      jump\t// in\n    tag_110:\n      0x00\n      dup3\n      sstore\n      dup1\n      0x1f\n      lt\n      tag_112\n      jumpi\n      pop\n      jump(tag_111)\n    tag_112:\n      0x1f\n      add\n      0x20\n      swap1\n      div\n      swap1\n      0x00\n      mstore\n      keccak256(0x00, 0x20)\n      swap1\n      dup2\n      add\n      swap1\n      tag_113\n      swap2\n      swap1\n      tag_114\n      jump\t// in\n    tag_113:\n    tag_111:\n      pop\n      jump\t// out\n    tag_114:\n    tag_115:\n      dup1\n      dup3\n      gt\n      iszero\n      tag_116\n      jumpi\n      0x00\n      dup2\n      0x00\n      swap1\n      sstore\n      pop\n      0x01\n      add\n      jump(tag_115)\n    tag_116:\n      pop\n      swap1\n      jump\t// out\n        /* \"#utility.yul\":7:82   */\n    tag_117:\n        /* \"#utility.yul\":40:46   */\n      0x00\n        /* \"#utility.yul\":73:75   */\n      0x40\n        /* \"#utility.yul\":67:76   */\n      mload\n        /* \"#utility.yul\":57:76   */\n      swap1\n      pop\n        /* \"#utility.yul\":7:82   */\n      swap1\n      jump\t// out\n        /* \"#utility.yul\":88:205   */\n    tag_118:\n        /* \"#utility.yul\":197:198   */\n      0x00\n        /* \"#utility.yul\":194:195   */\n      dup1\n        /* \"#utility.yul\":187:199   */\n      revert\n        /* \"#utility.yul\":211:328   */\n    tag_119:\n        /* \"#utility.yul\":320:321   */\n      0x00\n        /* \"#utility.yul\":317:318   */\n      dup1\n        /* \"#utility.yul\":310:322   */\n      revert\n        /* \"#utility.yul\":334:411   */\n    tag_120:\n        /* \"#utility.yul\":371:378   */\n      0x00\n        /* \"#utility.yul\":400:405   */\n      dup2\n        /* \"#utility.yul\":389:405   */\n      swap1\n      pop\n        /* \"#utility.yul\":334:411   */\n      swap2\n      swap1\n      pop\n      jump\t// out\n        /* \"#utility.yul\":417:539   */\n    tag_121:\n        /* \"#utility.yul\":490:514   */\n      tag_179\n        /* \"#utility.yul\":508:513   */\n      dup2\n        /* \"#utility.yul\":490:514   */\n      tag_120\n      jump\t// in\n    tag_179:\n        /* \"#utility.yul\":483:488   */\n      dup2\n        /* \"#utility.yul\":480:515   */\n      eq\n        /* \"#utility.yul\":470:533   */\n      tag_180\n      jumpi\n        /* \"#utility.yul\":529:530   */\n      0x00\n        /* \"#utility.yul\":526:527   */\n      dup1\n        /* \"#utility.yul\":519:531   */\n      revert\n        /* \"#utility.yul\":470:533   */\n    tag_180:\n        /* \"#utility.yul\":417:539   */\n      pop\n      jump\t// out\n        /* \"#utility.yul\":545:684   */\n    tag_122:\n        /* \"#utility.yul\":591:596   */\n      0x00\n        /* \"#utility.yul\":629:635   */\n      dup2\n        /* \"#utility.yul\":616:636   */\n      calldataload\n        /* \"#utility.yul\":607:636   */\n      swap1\n      pop\n        /* \"#utility.yul\":645:678   */\n      tag_182\n        /* \"#utility.yul\":672:677   */\n      dup2\n        /* \"#utility.yul\":645:678   */\n      tag_121\n      jump\t// in\n    tag_182:\n        /* \"#utility.yul\":545:684   */\n      swap3\n      swap2\n      pop\n      pop\n      jump\t// out\n        /* \"#utility.yul\":690:1019   */\n    tag_13:\n        /* \"#utility.yul\":749:755   */\n      0x00\n        /* \"#utility.yul\":798:800   */\n      0x20\n        /* \"#utility.yul\":786:795   */\n      dup3\n        /* \"#utility.yul\":777:784   */\n      dup5\n        /* \"#utility.yul\":773:796   */\n      sub\n        /* \"#utility.yul\":769:801   */\n      slt\n        /* \"#utility.yul\":766:885   */\n      iszero\n      tag_184\n      jumpi\n        /* \"#utility.yul\":804:883   */\n      tag_185\n      tag_118\n      jump\t// in\n    tag_185:\n        /* \"#utility.yul\":766:885   */\n    tag_184:\n        /* \"#utility.yul\":924:925   */\n      0x00\n        /* \"#utility.yul\":949:1002   */\n      tag_186\n        /* \"#utility.yul\":994:1001   */\n      dup5\n        /* \"#utility.yul\":985:991   */\n      dup3\n        /* \"#utility.yul\":974:983   */\n      dup6\n        /* \"#utility.yul\":970:992   */\n      add\n        /* \"#utility.yul\":949:1002   */\n      tag_122\n      jump\t// in\n    tag_186:\n        /* \"#utility.yul\":939:1002   */\n      swap2\n      pop\n        /* \"#utility.yul\":895:1012   */\n      pop\n        /* \"#utility.yul\":690:1019   */\n      swap3\n      swap2\n      pop\n      pop\n      jump\t// out\n        /* \"#utility.yul\":1025:1124   */\n    tag_123:\n        /* \"#utility.yul\":1077:1083   */\n      0x00\n        /* \"#utility.yul\":1111:1116   */\n      dup2\n        /* \"#utility.yul\":1105:1117   */\n      mload\n        /* \"#utility.yul\":1095:1117   */\n      swap1\n      pop\n        /* \"#utility.yul\":1025:1124   */\n      swap2\n      swap1\n      pop\n      jump\t// out\n        /* \"#utility.yul\":1130:1299   */\n    tag_124:\n        /* \"#utility.yul\":1214:1225   */\n      0x00\n        /* \"#utility.yul\":1248:1254   */\n      dup3\n        /* \"#utility.yul\":1243:1246   */\n      dup3\n        /* \"#utility.yul\":1236:1255   */\n      mstore\n        /* \"#utility.yul\":1288:1292   */\n      0x20\n        /* \"#utility.yul\":1283:1286   */\n      dup3\n        /* \"#utility.yul\":1279:1293   */\n      add\n        /* \"#utility.yul\":1264:1293   */\n      swap1\n      pop\n        /* \"#utility.yul\":1130:1299   */\n      swap3\n      swap2\n      pop\n      pop\n      jump\t// out\n        /* \"#utility.yul\":1305:1551   */\n    tag_125:\n        /* \"#utility.yul\":1386:1387   */\n      0x00\n        /* \"#utility.yul\":1396:1509   */\n    tag_190:\n        /* \"#utility.yul\":1410:1416   */\n      dup4\n        /* \"#utility.yul\":1407:1408   */\n      dup2\n        /* \"#utility.yul\":1404:1417   */\n      lt\n        /* \"#utility.yul\":1396:1509   */\n      iszero\n      tag_192\n      jumpi\n        /* \"#utility.yul\":1495:1496   */\n      dup1\n        /* \"#utility.yul\":1490:1493   */\n      dup3\n        /* \"#utility.yul\":1486:1497   */\n      add\n        /* \"#utility.yul\":1480:1498   */\n      mload\n        /* \"#utility.yul\":1476:1477   */\n      dup2\n        /* \"#utility.yul\":1471:1474   */\n      dup5\n        /* \"#utility.yul\":1467:1478   */\n      add\n        /* \"#utility.yul\":1460:1499   */\n      mstore\n        /* \"#utility.yul\":1432:1434   */\n      0x20\n        /* \"#utility.yul\":1429:1430   */\n      dup2\n        /* \"#utility.yul\":1425:1435   */\n      add\n        /* \"#utility.yul\":1420:1435   */\n      swap1\n      pop\n        /* \"#utility.yul\":1396:1509   */\n      jump(tag_190)\n    tag_192:\n        /* \"#utility.yul\":1543:1544   */\n      0x00\n        /* \"#utility.yul\":1534:1540   */\n      dup5\n        /* \"#utility.yul\":1529:1532   */\n      dup5\n        /* \"#utility.yul\":1525:1541   */\n      add\n        /* \"#utility.yul\":1518:1545   */\n      mstore\n        /* \"#utility.yul\":1367:1551   */\n      pop\n        /* \"#utility.yul\":1305:1551   */\n      pop\n      pop\n      pop\n      jump\t// out\n        /* \"#utility.yul\":1557:1659   */\n    tag_126:\n        /* \"#utility.yul\":1598:1604   */\n      0x00\n        /* \"#utility.yul\":1649:1651   */\n      0x1f\n        /* \"#utility.yul\":1645:1652   */\n      not\n        /* \"#utility.yul\":1640:1642   */\n      0x1f\n        /* \"#utility.yul\":1633:1638   */\n      dup4\n        /* \"#utility.yul\":1629:1643   */\n      add\n        /* \"#utility.yul\":1625:1653   */\n      and\n        /* \"#utility.yul\":1615:1653   */\n      swap1\n      pop\n        /* \"#utility.yul\":1557:1659   */\n      swap2\n      swap1\n      pop\n      jump\t// out\n        /* \"#utility.yul\":1665:2042   */\n    tag_127:\n        /* \"#utility.yul\":1753:1756   */\n      0x00\n        /* \"#utility.yul\":1781:1820   */\n      tag_195\n        /* \"#utility.yul\":1814:1819   */\n      dup3\n        /* \"#utility.yul\":1781:1820   */\n      tag_123\n      jump\t// in\n    tag_195:\n        /* \"#utility.yul\":1836:1907   */\n      tag_196\n        /* \"#utility.yul\":1900:1906   */\n      dup2\n        /* \"#utility.yul\":1895:1898   */\n      dup6\n        /* \"#utility.yul\":1836:1907   */\n      tag_124\n      jump\t// in\n    tag_196:\n        /* \"#utility.yul\":1829:1907   */\n      swap4\n      pop\n        /* \"#utility.yul\":1916:1981   */\n      tag_197\n        /* \"#utility.yul\":1974:1980   */\n      dup2\n        /* \"#utility.yul\":1969:1972   */\n      dup6\n        /* \"#utility.yul\":1962:1966   */\n      0x20\n        /* \"#utility.yul\":1955:1960   */\n      dup7\n        /* \"#utility.yul\":1951:1967   */\n      add\n        /* \"#utility.yul\":1916:1981   */\n      tag_125\n      jump\t// in\n    tag_197:\n        /* \"#utility.yul\":2006:2035   */\n      tag_198\n        /* \"#utility.yul\":2028:2034   */\n      dup2\n        /* \"#utility.yul\":2006:2035   */\n      tag_126\n      jump\t// in\n    tag_198:\n        /* \"#utility.yul\":2001:2004   */\n      dup5\n        /* \"#utility.yul\":1997:2036   */\n      add\n        /* \"#utility.yul\":1990:2036   */\n      swap2\n      pop\n        /* \"#utility.yul\":1757:2042   */\n      pop\n        /* \"#utility.yul\":1665:2042   */\n      swap3\n      swap2\n      pop\n      pop\n      jump\t// out\n        /* \"#utility.yul\":2048:2361   */\n    tag_16:\n        /* \"#utility.yul\":2161:2165   */\n      0x00\n        /* \"#utility.yul\":2199:2201   */\n      0x20\n        /* \"#utility.yul\":2188:2197   */\n      dup3\n        /* \"#utility.yul\":2184:2202   */\n      add\n        /* \"#utility.yul\":2176:2202   */\n      swap1\n      pop\n        /* \"#utility.yul\":2248:2257   */\n      dup2\n        /* \"#utility.yul\":2242:2246   */\n      dup2\n        /* \"#utility.yul\":2238:2258   */\n      sub\n        /* \"#utility.yul\":2234:2235   */\n      0x00\n        /* \"#utility.yul\":2223:2232   */\n      dup4\n        /* \"#utility.yul\":2219:2236   */\n      add\n        /* \"#utility.yul\":2212:2259   */\n      mstore\n        /* \"#utility.yul\":2276:2354   */\n      tag_200\n        /* \"#utility.yul\":2349:2353   */\n      dup2\n        /* \"#utility.yul\":2340:2346   */\n      dup5\n        /* \"#utility.yul\":2276:2354   */\n      tag_127\n      jump\t// in\n    tag_200:\n        /* \"#utility.yul\":2268:2354   */\n      swap1\n      pop\n        /* \"#utility.yul\":2048:2361   */\n      swap3\n      swap2\n      pop\n      pop\n      jump\t// out\n        /* \"#utility.yul\":2367:2484   */\n    tag_128:\n        /* \"#utility.yul\":2476:2477   */\n      0x00\n        /* \"#utility.yul\":2473:2474   */\n      dup1\n        /* \"#utility.yul\":2466:2478   */\n      revert\n        /* \"#utility.yul\":2490:2607   */\n    tag_129:\n        /* \"#utility.yul\":2599:2600   */\n      0x00\n        /* \"#utility.yul\":2596:2597   */\n      dup1\n        /* \"#utility.yul\":2589:2601   */\n      revert\n        /* \"#utility.yul\":2613:2793   */\n    tag_130:\n        /* \"#utility.yul\":2661:2738   */\n      0x4e487b7100000000000000000000000000000000000000000000000000000000\n        /* \"#utility.yul\":2658:2659   */\n      0x00\n        /* \"#utility.yul\":2651:2739   */\n      mstore\n        /* \"#utility.yul\":2758:2762   */\n      0x41\n        /* \"#utility.yul\":2755:2756   */\n      0x04\n        /* \"#utility.yul\":2748:2763   */\n      mstore\n        /* \"#utility.yul\":2782:2786   */\n      0x24\n        /* \"#utility.yul\":2779:2780   */\n      0x00\n        /* \"#utility.yul\":2772:2787   */\n      revert\n        /* \"#utility.yul\":2799:3080   */\n    tag_131:\n        /* \"#utility.yul\":2882:2909   */\n      tag_205\n        /* \"#utility.yul\":2904:2908   */\n      dup3\n        /* \"#utility.yul\":2882:2909   */\n      tag_126\n      jump\t// in\n    tag_205:\n        /* \"#utility.yul\":2874:2880   */\n      dup2\n        /* \"#utility.yul\":2870:2910   */\n      add\n        /* \"#utility.yul\":3012:3018   */\n      dup2\n        /* \"#utility.yul\":3000:3010   */\n      dup2\n        /* \"#utility.yul\":2997:3019   */\n      lt\n        /* \"#utility.yul\":2976:2994   */\n      0xffffffffffffffff\n        /* \"#utility.yul\":2964:2974   */\n      dup3\n        /* \"#utility.yul\":2961:2995   */\n      gt\n        /* \"#utility.yul\":2958:3020   */\n      or\n        /* \"#utility.yul\":2955:3043   */\n      iszero\n      tag_206\n      jumpi\n        /* \"#utility.yul\":3023:3041   */\n      tag_207\n      tag_130\n      jump\t// in\n    tag_207:\n        /* \"#utility.yul\":2955:3043   */\n    tag_206:\n        /* \"#utility.yul\":3063:3073   */\n      dup1\n        /* \"#utility.yul\":3059:3061   */\n      0x40\n        /* \"#utility.yul\":3052:3074   */\n      mstore\n        /* \"#utility.yul\":2842:3080   */\n      pop\n        /* \"#utility.yul\":2799:3080   */\n      pop\n      pop\n      jump\t// out\n        /* \"#utility.yul\":3086:3215   */\n    tag_132:\n        /* \"#utility.yul\":3120:3126   */\n      0x00\n        /* \"#utility.yul\":3147:3167   */\n      tag_209\n      tag_117\n      jump\t// in\n    tag_209:\n        /* \"#utility.yul\":3137:3167   */\n      swap1\n      pop\n        /* \"#utility.yul\":3176:3209   */\n      tag_210\n        /* \"#utility.yul\":3204:3208   */\n      dup3\n        /* \"#utility.yul\":3196:3202   */\n      dup3\n        /* \"#utility.yul\":3176:3209   */\n      tag_131\n      jump\t// in\n    tag_210:\n        /* \"#utility.yul\":3086:3215   */\n      swap2\n      swap1\n      pop\n      jump\t// out\n        /* \"#utility.yul\":3221:3529   */\n    tag_133:\n        /* \"#utility.yul\":3283:3287   */\n      0x00\n        /* \"#utility.yul\":3373:3391   */\n      0xffffffffffffffff\n        /* \"#utility.yul\":3365:3371   */\n      dup3\n        /* \"#utility.yul\":3362:3392   */\n      gt\n        /* \"#utility.yul\":3359:3415   */\n      iszero\n      tag_212\n      jumpi\n        /* \"#utility.yul\":3395:3413   */\n      tag_213\n      tag_130\n      jump\t// in\n    tag_213:\n        /* \"#utility.yul\":3359:3415   */\n    tag_212:\n        /* \"#utility.yul\":3433:3462   */\n      tag_214\n        /* \"#utility.yul\":3455:3461   */\n      dup3\n        /* \"#utility.yul\":3433:3462   */\n      tag_126\n      jump\t// in\n    tag_214:\n        /* \"#utility.yul\":3425:3462   */\n      swap1\n      pop\n        /* \"#utility.yul\":3517:3521   */\n      0x20\n        /* \"#utility.yul\":3511:3515   */\n      dup2\n        /* \"#utility.yul\":3507:3522   */\n      add\n        /* \"#utility.yul\":3499:3522   */\n      swap1\n      pop\n        /* \"#utility.yul\":3221:3529   */\n      swap2\n      swap1\n      pop\n      jump\t// out\n        /* \"#utility.yul\":3535:3681   */\n    tag_134:\n        /* \"#utility.yul\":3632:3638   */\n      dup3\n        /* \"#utility.yul\":3627:3630   */\n      dup2\n        /* \"#utility.yul\":3622:3625   */\n      dup4\n        /* \"#utility.yul\":3609:3639   */\n      calldatacopy\n        /* \"#utility.yul\":3673:3674   */\n      0x00\n        /* \"#utility.yul\":3664:3670   */\n      dup4\n        /* \"#utility.yul\":3659:3662   */\n      dup4\n        /* \"#utility.yul\":3655:3671   */\n      add\n        /* \"#utility.yul\":3648:3675   */\n      mstore\n        /* \"#utility.yul\":3535:3681   */\n      pop\n      pop\n      pop\n      jump\t// out\n        /* \"#utility.yul\":3687:4112   */\n    tag_135:\n        /* \"#utility.yul\":3765:3770   */\n      0x00\n        /* \"#utility.yul\":3790:3856   */\n      tag_217\n        /* \"#utility.yul\":3806:3855   */\n      tag_218\n        /* \"#utility.yul\":3848:3854   */\n      dup5\n        /* \"#utility.yul\":3806:3855   */\n      tag_133\n      jump\t// in\n    tag_218:\n        /* \"#utility.yul\":3790:3856   */\n      tag_132\n      jump\t// in\n    tag_217:\n        /* \"#utility.yul\":3781:3856   */\n      swap1\n      pop\n        /* \"#utility.yul\":3879:3885   */\n      dup3\n        /* \"#utility.yul\":3872:3877   */\n      dup2\n        /* \"#utility.yul\":3865:3886   */\n      mstore\n        /* \"#utility.yul\":3917:3921   */\n      0x20\n        /* \"#utility.yul\":3910:3915   */\n      dup2\n        /* \"#utility.yul\":3906:3922   */\n      add\n        /* \"#utility.yul\":3955:3958   */\n      dup5\n        /* \"#utility.yul\":3946:3952   */\n      dup5\n        /* \"#utility.yul\":3941:3944   */\n      dup5\n        /* \"#utility.yul\":3937:3953   */\n      add\n        /* \"#utility.yul\":3934:3959   */\n      gt\n        /* \"#utility.yul\":3931:4043   */\n      iszero\n      tag_219\n      jumpi\n        /* \"#utility.yul\":3962:4041   */\n      tag_220\n      tag_129\n      jump\t// in\n    tag_220:\n        /* \"#utility.yul\":3931:4043   */\n    tag_219:\n        /* \"#utility.yul\":4052:4106   */\n      tag_221\n        /* \"#utility.yul\":4099:4105   */\n      dup5\n        /* \"#utility.yul\":4094:4097   */\n      dup3\n        /* \"#utility.yul\":4089:4092   */\n      dup6\n        /* \"#utility.yul\":4052:4106   */\n      tag_134\n      jump\t// in\n    tag_221:\n        /* \"#utility.yul\":3771:4112   */\n      pop\n        /* \"#utility.yul\":3687:4112   */\n      swap4\n      swap3\n      pop\n      pop\n      pop\n      jump\t// out\n        /* \"#utility.yul\":4132:4472   */\n    tag_136:\n        /* \"#utility.yul\":4188:4193   */\n      0x00\n        /* \"#utility.yul\":4237:4240   */\n      dup3\n        /* \"#utility.yul\":4230:4234   */\n      0x1f\n        /* \"#utility.yul\":4222:4228   */\n      dup4\n        /* \"#utility.yul\":4218:4235   */\n      add\n        /* \"#utility.yul\":4214:4241   */\n      slt\n        /* \"#utility.yul\":4204:4326   */\n      tag_223\n      jumpi\n        /* \"#utility.yul\":4245:4324   */\n      tag_224\n      tag_128\n      jump\t// in\n    tag_224:\n        /* \"#utility.yul\":4204:4326   */\n    tag_223:\n        /* \"#utility.yul\":4362:4368   */\n      dup2\n        /* \"#utility.yul\":4349:4369   */\n      calldataload\n        /* \"#utility.yul\":4387:4466   */\n      tag_225\n        /* \"#utility.yul\":4462:4465   */\n      dup5\n        /* \"#utility.yul\":4454:4460   */\n      dup3\n        /* \"#utility.yul\":4447:4451   */\n      0x20\n        /* \"#utility.yul\":4439:4445   */\n      dup7\n        /* \"#utility.yul\":4435:4452   */\n      add\n        /* \"#utility.yul\":4387:4466   */\n      tag_135\n      jump\t// in\n    tag_225:\n        /* \"#utility.yul\":4378:4466   */\n      swap2\n      pop\n        /* \"#utility.yul\":4194:4472   */\n      pop\n        /* \"#utility.yul\":4132:4472   */\n      swap3\n      swap2\n      pop\n      pop\n      jump\t// out\n        /* \"#utility.yul\":4478:4987   */\n    tag_19:\n        /* \"#utility.yul\":4547:4553   */\n      0x00\n        /* \"#utility.yul\":4596:4598   */\n      0x20\n        /* \"#utility.yul\":4584:4593   */\n      dup3\n        /* \"#utility.yul\":4575:4582   */\n      dup5\n        /* \"#utility.yul\":4571:4594   */\n      sub\n        /* \"#utility.yul\":4567:4599   */\n      slt\n        /* \"#utility.yul\":4564:4683   */\n      iszero\n      tag_227\n      jumpi\n        /* \"#utility.yul\":4602:4681   */\n      tag_228\n      tag_118\n      jump\t// in\n    tag_228:\n        /* \"#utility.yul\":4564:4683   */\n    tag_227:\n        /* \"#utility.yul\":4750:4751   */\n      0x00\n        /* \"#utility.yul\":4739:4748   */\n      dup3\n        /* \"#utility.yul\":4735:4752   */\n      add\n        /* \"#utility.yul\":4722:4753   */\n      calldataload\n        /* \"#utility.yul\":4780:4798   */\n      0xffffffffffffffff\n        /* \"#utility.yul\":4772:4778   */\n      dup2\n        /* \"#utility.yul\":4769:4799   */\n      gt\n        /* \"#utility.yul\":4766:4883   */\n      iszero\n      tag_229\n      jumpi\n        /* \"#utility.yul\":4802:4881   */\n      tag_230\n      tag_119\n      jump\t// in\n    tag_230:\n        /* \"#utility.yul\":4766:4883   */\n    tag_229:\n        /* \"#utility.yul\":4907:4970   */\n      tag_231\n        /* \"#utility.yul\":4962:4969   */\n      dup5\n        /* \"#utility.yul\":4953:4959   */\n      dup3\n        /* \"#utility.yul\":4942:4951   */\n      dup6\n        /* \"#utility.yul\":4938:4960   */\n      add\n        /* \"#utility.yul\":4907:4970   */\n      tag_136\n      jump\t// in\n    tag_231:\n        /* \"#utility.yul\":4897:4970   */\n      swap2\n      pop\n        /* \"#utility.yul\":4693:4980   */\n      pop\n        /* \"#utility.yul\":4478:4987   */\n      swap3\n      swap2\n      pop\n      pop\n      jump\t// out\n        /* \"#utility.yul\":4993:5119   */\n    tag_137:\n        /* \"#utility.yul\":5030:5037   */\n      0x00\n        /* \"#utility.yul\":5070:5112   */\n      0xffffffffffffffffffffffffffffffffffffffff\n        /* \"#utility.yul\":5063:5068   */\n      dup3\n        /* \"#utility.yul\":5059:5113   */\n      and\n        /* \"#utility.yul\":5048:5113   */\n      swap1\n      pop\n        /* \"#utility.yul\":4993:5119   */\n      swap2\n      swap1\n      pop\n      jump\t// out\n        /* \"#utility.yul\":5125:5221   */\n    tag_138:\n        /* \"#utility.yul\":5162:5169   */\n      0x00\n        /* \"#utility.yul\":5191:5215   */\n      tag_234\n        /* \"#utility.yul\":5209:5214   */\n      dup3\n        /* \"#utility.yul\":5191:5215   */\n      tag_137\n      jump\t// in\n    tag_234:\n        /* \"#utility.yul\":5180:5215   */\n      swap1\n      pop\n        /* \"#utility.yul\":5125:5221   */\n      swap2\n      swap1\n      pop\n      jump\t// out\n        /* \"#utility.yul\":5227:5349   */\n    tag_139:\n        /* \"#utility.yul\":5300:5324   */\n      tag_236\n        /* \"#utility.yul\":5318:5323   */\n      dup2\n        /* \"#utility.yul\":5300:5324   */\n      tag_138\n      jump\t// in\n    tag_236:\n        /* \"#utility.yul\":5293:5298   */\n      dup2\n        /* \"#utility.yul\":5290:5325   */\n      eq\n        /* \"#utility.yul\":5280:5343   */\n      tag_237\n      jumpi\n        /* \"#utility.yul\":5339:5340   */\n      0x00\n        /* \"#utility.yul\":5336:5337   */\n      dup1\n        /* \"#utility.yul\":5329:5341   */\n      revert\n        /* \"#utility.yul\":5280:5343   */\n    tag_237:\n        /* \"#utility.yul\":5227:5349   */\n      pop\n      jump\t// out\n        /* \"#utility.yul\":5355:5494   */\n    tag_140:\n        /* \"#utility.yul\":5401:5406   */\n      0x00\n        /* \"#utility.yul\":5439:5445   */\n      dup2\n        /* \"#utility.yul\":5426:5446   */\n      calldataload\n        /* \"#utility.yul\":5417:5446   */\n      swap1\n      pop\n        /* \"#utility.yul\":5455:5488   */\n      tag_239\n        /* \"#utility.yul\":5482:5487   */\n      dup2\n        /* \"#utility.yul\":5455:5488   */\n      tag_139\n      jump\t// in\n    tag_239:\n        /* \"#utility.yul\":5355:5494   */\n      swap3\n      swap2\n      pop\n      pop\n      jump\t// out\n        /* \"#utility.yul\":5500:5829   */\n    tag_24:\n        /* \"#utility.yul\":5559:5565   */\n      0x00\n        /* \"#utility.yul\":5608:5610   */\n      0x20\n        /* \"#utility.yul\":5596:5605   */\n      dup3\n        /* \"#utility.yul\":5587:5594   */\n      dup5\n        /* \"#utility.yul\":5583:5606   */\n      sub\n        /* \"#utility.yul\":5579:5611   */\n      slt\n        /* \"#utility.yul\":5576:5695   */\n      iszero\n      tag_241\n      jumpi\n        /* \"#utility.yul\":5614:5693   */\n      tag_242\n      tag_118\n      jump\t// in\n    tag_242:\n        /* \"#utility.yul\":5576:5695   */\n    tag_241:\n        /* \"#utility.yul\":5734:5735   */\n      0x00\n        /* \"#utility.yul\":5759:5812   */\n      tag_243\n        /* \"#utility.yul\":5804:5811   */\n      dup5\n        /* \"#utility.yul\":5795:5801   */\n      dup3\n        /* \"#utility.yul\":5784:5793   */\n      dup6\n        /* \"#utility.yul\":5780:5802   */\n      add\n        /* \"#utility.yul\":5759:5812   */\n      tag_140\n      jump\t// in\n    tag_243:\n        /* \"#utility.yul\":5749:5812   */\n      swap2\n      pop\n        /* \"#utility.yul\":5705:5822   */\n      pop\n        /* \"#utility.yul\":5500:5829   */\n      swap3\n      swap2\n      pop\n      pop\n      jump\t// out\n        /* \"#utility.yul\":5835:5925   */\n    tag_141:\n        /* \"#utility.yul\":5869:5876   */\n      0x00\n        /* \"#utility.yul\":5912:5917   */\n      dup2\n        /* \"#utility.yul\":5905:5918   */\n      iszero\n        /* \"#utility.yul\":5898:5919   */\n      iszero\n        /* \"#utility.yul\":5887:5919   */\n      swap1\n      pop\n        /* \"#utility.yul\":5835:5925   */\n      swap2\n      swap1\n      pop\n      jump\t// out\n        /* \"#utility.yul\":5931:6040   */\n    tag_142:\n        /* \"#utility.yul\":6012:6033   */\n      tag_246\n        /* \"#utility.yul\":6027:6032   */\n      dup2\n        /* \"#utility.yul\":6012:6033   */\n      tag_141\n      jump\t// in\n    tag_246:\n        /* \"#utility.yul\":6007:6010   */\n      dup3\n        /* \"#utility.yul\":6000:6034   */\n      mstore\n        /* \"#utility.yul\":5931:6040   */\n      pop\n      pop\n      jump\t// out\n        /* \"#utility.yul\":6046:6256   */\n    tag_27:\n        /* \"#utility.yul\":6133:6137   */\n      0x00\n        /* \"#utility.yul\":6171:6173   */\n      0x20\n        /* \"#utility.yul\":6160:6169   */\n      dup3\n        /* \"#utility.yul\":6156:6174   */\n      add\n        /* \"#utility.yul\":6148:6174   */\n      swap1\n      pop\n        /* \"#utility.yul\":6184:6249   */\n      tag_248\n        /* \"#utility.yul\":6246:6247   */\n      0x00\n        /* \"#utility.yul\":6235:6244   */\n      dup4\n        /* \"#utility.yul\":6231:6248   */\n      add\n        /* \"#utility.yul\":6222:6228   */\n      dup5\n        /* \"#utility.yul\":6184:6249   */\n      tag_142\n      jump\t// in\n    tag_248:\n        /* \"#utility.yul\":6046:6256   */\n      swap3\n      swap2\n      pop\n      pop\n      jump\t// out\n        /* \"#utility.yul\":6262:6386   */\n    tag_143:\n        /* \"#utility.yul\":6339:6345   */\n      0x00\n        /* \"#utility.yul\":6373:6378   */\n      dup2\n        /* \"#utility.yul\":6367:6379   */\n      mload\n        /* \"#utility.yul\":6357:6379   */\n      swap1\n      pop\n        /* \"#utility.yul\":6262:6386   */\n      swap2\n      swap1\n      pop\n      jump\t// out\n        /* \"#utility.yul\":6392:6586   */\n    tag_144:\n        /* \"#utility.yul\":6501:6512   */\n      0x00\n        /* \"#utility.yul\":6535:6541   */\n      dup3\n        /* \"#utility.yul\":6530:6533   */\n      dup3\n        /* \"#utility.yul\":6523:6542   */\n      mstore\n        /* \"#utility.yul\":6575:6579   */\n      0x20\n        /* \"#utility.yul\":6570:6573   */\n      dup3\n        /* \"#utility.yul\":6566:6580   */\n      add\n        /* \"#utility.yul\":6551:6580   */\n      swap1\n      pop\n        /* \"#utility.yul\":6392:6586   */\n      swap3\n      swap2\n      pop\n      pop\n      jump\t// out\n        /* \"#utility.yul\":6592:6734   */\n    tag_145:\n        /* \"#utility.yul\":6669:6673   */\n      0x00\n        /* \"#utility.yul\":6692:6695   */\n      dup2\n        /* \"#utility.yul\":6684:6695   */\n      swap1\n      pop\n        /* \"#utility.yul\":6722:6726   */\n      0x20\n        /* \"#utility.yul\":6717:6720   */\n      dup3\n        /* \"#utility.yul\":6713:6727   */\n      add\n        /* \"#utility.yul\":6705:6727   */\n      swap1\n      pop\n        /* \"#utility.yul\":6592:6734   */\n      swap2\n      swap1\n      pop\n      jump\t// out\n        /* \"#utility.yul\":6740:6899   */\n    tag_146:\n        /* \"#utility.yul\":6814:6825   */\n      0x00\n        /* \"#utility.yul\":6848:6854   */\n      dup3\n        /* \"#utility.yul\":6843:6846   */\n      dup3\n        /* \"#utility.yul\":6836:6855   */\n      mstore\n        /* \"#utility.yul\":6888:6892   */\n      0x20\n        /* \"#utility.yul\":6883:6886   */\n      dup3\n        /* \"#utility.yul\":6879:6893   */\n      add\n        /* \"#utility.yul\":6864:6893   */\n      swap1\n      pop\n        /* \"#utility.yul\":6740:6899   */\n      swap3\n      swap2\n      pop\n      pop\n      jump\t// out\n        /* \"#utility.yul\":6905:7262   */\n    tag_147:\n        /* \"#utility.yul\":6983:6986   */\n      0x00\n        /* \"#utility.yul\":7011:7050   */\n      tag_254\n        /* \"#utility.yul\":7044:7049   */\n      dup3\n        /* \"#utility.yul\":7011:7050   */\n      tag_123\n      jump\t// in\n    tag_254:\n        /* \"#utility.yul\":7066:7127   */\n      tag_255\n        /* \"#utility.yul\":7120:7126   */\n      dup2\n        /* \"#utility.yul\":7115:7118   */\n      dup6\n        /* \"#utility.yul\":7066:7127   */\n      tag_146\n      jump\t// in\n    tag_255:\n        /* \"#utility.yul\":7059:7127   */\n      swap4\n      pop\n        /* \"#utility.yul\":7136:7201   */\n      tag_256\n        /* \"#utility.yul\":7194:7200   */\n      dup2\n        /* \"#utility.yul\":7189:7192   */\n      dup6\n        /* \"#utility.yul\":7182:7186   */\n      0x20\n        /* \"#utility.yul\":7175:7180   */\n      dup7\n        /* \"#utility.yul\":7171:7187   */\n      add\n        /* \"#utility.yul\":7136:7201   */\n      tag_125\n      jump\t// in\n    tag_256:\n        /* \"#utility.yul\":7226:7255   */\n      tag_257\n        /* \"#utility.yul\":7248:7254   */\n      dup2\n        /* \"#utility.yul\":7226:7255   */\n      tag_126\n      jump\t// in\n    tag_257:\n        /* \"#utility.yul\":7221:7224   */\n      dup5\n        /* \"#utility.yul\":7217:7256   */\n      add\n        /* \"#utility.yul\":7210:7256   */\n      swap2\n      pop\n        /* \"#utility.yul\":6987:7262   */\n      pop\n        /* \"#utility.yul\":6905:7262   */\n      swap3\n      swap2\n      pop\n      pop\n      jump\t// out\n        /* \"#utility.yul\":7268:7464   */\n    tag_148:\n        /* \"#utility.yul\":7357:7367   */\n      0x00\n        /* \"#utility.yul\":7392:7458   */\n      tag_259\n        /* \"#utility.yul\":7454:7457   */\n      dup4\n        /* \"#utility.yul\":7446:7452   */\n      dup4\n        /* \"#utility.yul\":7392:7458   */\n      tag_147\n      jump\t// in\n    tag_259:\n        /* \"#utility.yul\":7378:7458   */\n      swap1\n      pop\n        /* \"#utility.yul\":7268:7464   */\n      swap3\n      swap2\n      pop\n      pop\n      jump\t// out\n        /* \"#utility.yul\":7470:7593   */\n    tag_149:\n        /* \"#utility.yul\":7550:7554   */\n      0x00\n        /* \"#utility.yul\":7582:7586   */\n      0x20\n        /* \"#utility.yul\":7577:7580   */\n      dup3\n        /* \"#utility.yul\":7573:7587   */\n      add\n        /* \"#utility.yul\":7565:7587   */\n      swap1\n      pop\n        /* \"#utility.yul\":7470:7593   */\n      swap2\n      swap1\n      pop\n      jump\t// out\n        /* \"#utility.yul\":7627:8618   */\n    tag_150:\n        /* \"#utility.yul\":7766:7769   */\n      0x00\n        /* \"#utility.yul\":7795:7859   */\n      tag_262\n        /* \"#utility.yul\":7853:7858   */\n      dup3\n        /* \"#utility.yul\":7795:7859   */\n      tag_143\n      jump\t// in\n    tag_262:\n        /* \"#utility.yul\":7875:7971   */\n      tag_263\n        /* \"#utility.yul\":7964:7970   */\n      dup2\n        /* \"#utility.yul\":7959:7962   */\n      dup6\n        /* \"#utility.yul\":7875:7971   */\n      tag_144\n      jump\t// in\n    tag_263:\n        /* \"#utility.yul\":7868:7971   */\n      swap4\n      pop\n        /* \"#utility.yul\":7997:8000   */\n      dup4\n        /* \"#utility.yul\":8042:8046   */\n      0x20\n        /* \"#utility.yul\":8034:8040   */\n      dup3\n        /* \"#utility.yul\":8030:8047   */\n      mul\n        /* \"#utility.yul\":8025:8028   */\n      dup6\n        /* \"#utility.yul\":8021:8048   */\n      add\n        /* \"#utility.yul\":8072:8138   */\n      tag_264\n        /* \"#utility.yul\":8132:8137   */\n      dup6\n        /* \"#utility.yul\":8072:8138   */\n      tag_145\n      jump\t// in\n    tag_264:\n        /* \"#utility.yul\":8161:8168   */\n      dup1\n        /* \"#utility.yul\":8192:8193   */\n      0x00\n        /* \"#utility.yul\":8177:8573   */\n    tag_265:\n        /* \"#utility.yul\":8202:8208   */\n      dup6\n        /* \"#utility.yul\":8199:8200   */\n      dup2\n        /* \"#utility.yul\":8196:8209   */\n      lt\n        /* \"#utility.yul\":8177:8573   */\n      iszero\n      tag_267\n      jumpi\n        /* \"#utility.yul\":8273:8282   */\n      dup5\n        /* \"#utility.yul\":8267:8271   */\n      dup5\n        /* \"#utility.yul\":8263:8283   */\n      sub\n        /* \"#utility.yul\":8258:8261   */\n      dup10\n        /* \"#utility.yul\":8251:8284   */\n      mstore\n        /* \"#utility.yul\":8324:8330   */\n      dup2\n        /* \"#utility.yul\":8318:8331   */\n      mload\n        /* \"#utility.yul\":8352:8436   */\n      tag_268\n        /* \"#utility.yul\":8431:8435   */\n      dup6\n        /* \"#utility.yul\":8416:8429   */\n      dup3\n        /* \"#utility.yul\":8352:8436   */\n      tag_148\n      jump\t// in\n    tag_268:\n        /* \"#utility.yul\":8344:8436   */\n      swap5\n      pop\n        /* \"#utility.yul\":8459:8529   */\n      tag_269\n        /* \"#utility.yul\":8522:8528   */\n      dup4\n        /* \"#utility.yul\":8459:8529   */\n      tag_149\n      jump\t// in\n    tag_269:\n        /* \"#utility.yul\":8449:8529   */\n      swap3\n      pop\n        /* \"#utility.yul\":8558:8562   */\n      0x20\n        /* \"#utility.yul\":8553:8556   */\n      dup11\n        /* \"#utility.yul\":8549:8563   */\n      add\n        /* \"#utility.yul\":8542:8563   */\n      swap10\n      pop\n        /* \"#utility.yul\":8237:8573   */\n      pop\n        /* \"#utility.yul\":8224:8225   */\n      0x01\n        /* \"#utility.yul\":8221:8222   */\n      dup2\n        /* \"#utility.yul\":8217:8226   */\n      add\n        /* \"#utility.yul\":8212:8226   */\n      swap1\n      pop\n        /* \"#utility.yul\":8177:8573   */\n      jump(tag_265)\n    tag_267:\n        /* \"#utility.yul\":8181:8195   */\n      pop\n        /* \"#utility.yul\":8589:8593   */\n      dup3\n        /* \"#utility.yul\":8582:8593   */\n      swap8\n      pop\n        /* \"#utility.yul\":8609:8612   */\n      dup8\n        /* \"#utility.yul\":8602:8612   */\n      swap6\n      pop\n        /* \"#utility.yul\":7771:8618   */\n      pop\n      pop\n      pop\n      pop\n      pop\n        /* \"#utility.yul\":7627:8618   */\n      swap3\n      swap2\n      pop\n      pop\n      jump\t// out\n        /* \"#utility.yul\":8624:9037   */\n    tag_32:\n        /* \"#utility.yul\":8787:8791   */\n      0x00\n        /* \"#utility.yul\":8825:8827   */\n      0x20\n        /* \"#utility.yul\":8814:8823   */\n      dup3\n        /* \"#utility.yul\":8810:8828   */\n      add\n        /* \"#utility.yul\":8802:8828   */\n      swap1\n      pop\n        /* \"#utility.yul\":8874:8883   */\n      dup2\n        /* \"#utility.yul\":8868:8872   */\n      dup2\n        /* \"#utility.yul\":8864:8884   */\n      sub\n        /* \"#utility.yul\":8860:8861   */\n      0x00\n        /* \"#utility.yul\":8849:8858   */\n      dup4\n        /* \"#utility.yul\":8845:8862   */\n      add\n        /* \"#utility.yul\":8838:8885   */\n      mstore\n        /* \"#utility.yul\":8902:9030   */\n      tag_271\n        /* \"#utility.yul\":9025:9029   */\n      dup2\n        /* \"#utility.yul\":9016:9022   */\n      dup5\n        /* \"#utility.yul\":8902:9030   */\n      tag_150\n      jump\t// in\n    tag_271:\n        /* \"#utility.yul\":8894:9030   */\n      swap1\n      pop\n        /* \"#utility.yul\":8624:9037   */\n      swap3\n      swap2\n      pop\n      pop\n      jump\t// out\n        /* \"#utility.yul\":9043:9161   */\n    tag_151:\n        /* \"#utility.yul\":9130:9154   */\n      tag_273\n        /* \"#utility.yul\":9148:9153   */\n      dup2\n        /* \"#utility.yul\":9130:9154   */\n      tag_138\n      jump\t// in\n    tag_273:\n        /* \"#utility.yul\":9125:9128   */\n      dup3\n        /* \"#utility.yul\":9118:9155   */\n      mstore\n        /* \"#utility.yul\":9043:9161   */\n      pop\n      pop\n      jump\t// out\n        /* \"#utility.yul\":9167:9389   */\n    tag_37:\n        /* \"#utility.yul\":9260:9264   */\n      0x00\n        /* \"#utility.yul\":9298:9300   */\n      0x20\n        /* \"#utility.yul\":9287:9296   */\n      dup3\n        /* \"#utility.yul\":9283:9301   */\n      add\n        /* \"#utility.yul\":9275:9301   */\n      swap1\n      pop\n        /* \"#utility.yul\":9311:9382   */\n      tag_275\n        /* \"#utility.yul\":9379:9380   */\n      0x00\n        /* \"#utility.yul\":9368:9377   */\n      dup4\n        /* \"#utility.yul\":9364:9381   */\n      add\n        /* \"#utility.yul\":9355:9361   */\n      dup5\n        /* \"#utility.yul\":9311:9382   */\n      tag_151\n      jump\t// in\n    tag_275:\n        /* \"#utility.yul\":9167:9389   */\n      swap3\n      swap2\n      pop\n      pop\n      jump\t// out\n        /* \"#utility.yul\":9395:9575   */\n    tag_152:\n        /* \"#utility.yul\":9443:9520   */\n      0x4e487b7100000000000000000000000000000000000000000000000000000000\n        /* \"#utility.yul\":9440:9441   */\n      0x00\n        /* \"#utility.yul\":9433:9521   */\n      mstore\n        /* \"#utility.yul\":9540:9544   */\n      0x22\n        /* \"#utility.yul\":9537:9538   */\n      0x04\n        /* \"#utility.yul\":9530:9545   */\n      mstore\n        /* \"#utility.yul\":9564:9568   */\n      0x24\n        /* \"#utility.yul\":9561:9562   */\n      0x00\n        /* \"#utility.yul\":9554:9569   */\n      revert\n        /* \"#utility.yul\":9581:9901   */\n    tag_50:\n        /* \"#utility.yul\":9625:9631   */\n      0x00\n        /* \"#utility.yul\":9662:9663   */\n      0x02\n        /* \"#utility.yul\":9656:9660   */\n      dup3\n        /* \"#utility.yul\":9652:9664   */\n      div\n        /* \"#utility.yul\":9642:9664   */\n      swap1\n      pop\n        /* \"#utility.yul\":9709:9710   */\n      0x01\n        /* \"#utility.yul\":9703:9707   */\n      dup3\n        /* \"#utility.yul\":9699:9711   */\n      and\n        /* \"#utility.yul\":9730:9748   */\n      dup1\n        /* \"#utility.yul\":9720:9801   */\n      tag_278\n      jumpi\n        /* \"#utility.yul\":9786:9790   */\n      0x7f\n        /* \"#utility.yul\":9778:9784   */\n      dup3\n        /* \"#utility.yul\":9774:9791   */\n      and\n        /* \"#utility.yul\":9764:9791   */\n      swap2\n      pop\n        /* \"#utility.yul\":9720:9801   */\n    tag_278:\n        /* \"#utility.yul\":9848:9850   */\n      0x20\n        /* \"#utility.yul\":9840:9846   */\n      dup3\n        /* \"#utility.yul\":9837:9851   */\n      lt\n        /* \"#utility.yul\":9817:9835   */\n      dup2\n        /* \"#utility.yul\":9814:9852   */\n      sub\n        /* \"#utility.yul\":9811:9895   */\n      tag_279\n      jumpi\n        /* \"#utility.yul\":9867:9885   */\n      tag_280\n      tag_152\n      jump\t// in\n    tag_280:\n        /* \"#utility.yul\":9811:9895   */\n    tag_279:\n        /* \"#utility.yul\":9632:9901   */\n      pop\n        /* \"#utility.yul\":9581:9901   */\n      swap2\n      swap1\n      pop\n      jump\t// out\n        /* \"#utility.yul\":9907:10137   */\n    tag_153:\n        /* \"#utility.yul\":10047:10081   */\n      0x616464696e672061206e6577206d657373616765732072657175697265732030\n        /* \"#utility.yul\":10043:10044   */\n      0x00\n        /* \"#utility.yul\":10035:10041   */\n      dup3\n        /* \"#utility.yul\":10031:10045   */\n      add\n        /* \"#utility.yul\":10024:10082   */\n      mstore\n        /* \"#utility.yul\":10116:10129   */\n      0x2e30303120657468657273000000000000000000000000000000000000000000\n        /* \"#utility.yul\":10111:10113   */\n      0x20\n        /* \"#utility.yul\":10103:10109   */\n      dup3\n        /* \"#utility.yul\":10099:10114   */\n      add\n        /* \"#utility.yul\":10092:10130   */\n      mstore\n        /* \"#utility.yul\":9907:10137   */\n      pop\n      jump\t// out\n        /* \"#utility.yul\":10143:10509   */\n    tag_154:\n        /* \"#utility.yul\":10285:10288   */\n      0x00\n        /* \"#utility.yul\":10306:10373   */\n      tag_283\n        /* \"#utility.yul\":10370:10372   */\n      0x2b\n        /* \"#utility.yul\":10365:10368   */\n      dup4\n        /* \"#utility.yul\":10306:10373   */\n      tag_124\n      jump\t// in\n    tag_283:\n        /* \"#utility.yul\":10299:10373   */\n      swap2\n      pop\n        /* \"#utility.yul\":10382:10475   */\n      tag_284\n        /* \"#utility.yul\":10471:10474   */\n      dup3\n        /* \"#utility.yul\":10382:10475   */\n      tag_153\n      jump\t// in\n    tag_284:\n        /* \"#utility.yul\":10500:10502   */\n      0x40\n        /* \"#utility.yul\":10495:10498   */\n      dup3\n        /* \"#utility.yul\":10491:10503   */\n      add\n        /* \"#utility.yul\":10484:10503   */\n      swap1\n      pop\n        /* \"#utility.yul\":10143:10509   */\n      swap2\n      swap1\n      pop\n      jump\t// out\n        /* \"#utility.yul\":10515:10934   */\n    tag_59:\n        /* \"#utility.yul\":10681:10685   */\n      0x00\n        /* \"#utility.yul\":10719:10721   */\n      0x20\n        /* \"#utility.yul\":10708:10717   */\n      dup3\n        /* \"#utility.yul\":10704:10722   */\n      add\n        /* \"#utility.yul\":10696:10722   */\n      swap1\n      pop\n        /* \"#utility.yul\":10768:10777   */\n      dup2\n        /* \"#utility.yul\":10762:10766   */\n      dup2\n        /* \"#utility.yul\":10758:10778   */\n      sub\n        /* \"#utility.yul\":10754:10755   */\n      0x00\n        /* \"#utility.yul\":10743:10752   */\n      dup4\n        /* \"#utility.yul\":10739:10756   */\n      add\n        /* \"#utility.yul\":10732:10779   */\n      mstore\n        /* \"#utility.yul\":10796:10927   */\n      tag_286\n        /* \"#utility.yul\":10922:10926   */\n      dup2\n        /* \"#utility.yul\":10796:10927   */\n      tag_154\n      jump\t// in\n    tag_286:\n        /* \"#utility.yul\":10788:10927   */\n      swap1\n      pop\n        /* \"#utility.yul\":10515:10934   */\n      swap2\n      swap1\n      pop\n      jump\t// out\n        /* \"#utility.yul\":10940:11081   */\n    tag_155:\n        /* \"#utility.yul\":10989:10993   */\n      0x00\n        /* \"#utility.yul\":11012:11015   */\n      dup2\n        /* \"#utility.yul\":11004:11015   */\n      swap1\n      pop\n        /* \"#utility.yul\":11035:11038   */\n      dup2\n        /* \"#utility.yul\":11032:11033   */\n      0x00\n        /* \"#utility.yul\":11025:11039   */\n      mstore\n        /* \"#utility.yul\":11069:11073   */\n      0x20\n        /* \"#utility.yul\":11066:11067   */\n      0x00\n        /* \"#utility.yul\":11056:11074   */\n      keccak256\n        /* \"#utility.yul\":11048:11074   */\n      swap1\n      pop\n        /* \"#utility.yul\":10940:11081   */\n      swap2\n      swap1\n      pop\n      jump\t// out\n        /* \"#utility.yul\":11087:11180   */\n    tag_156:\n        /* \"#utility.yul\":11124:11130   */\n      0x00\n        /* \"#utility.yul\":11171:11173   */\n      0x20\n        /* \"#utility.yul\":11166:11168   */\n      0x1f\n        /* \"#utility.yul\":11159:11164   */\n      dup4\n        /* \"#utility.yul\":11155:11169   */\n      add\n        /* \"#utility.yul\":11151:11174   */\n      div\n        /* \"#utility.yul\":11141:11174   */\n      swap1\n      pop\n        /* \"#utility.yul\":11087:11180   */\n      swap2\n      swap1\n      pop\n      jump\t// out\n        /* \"#utility.yul\":11186:11293   */\n    tag_157:\n        /* \"#utility.yul\":11230:11238   */\n      0x00\n        /* \"#utility.yul\":11280:11285   */\n      dup3\n        /* \"#utility.yul\":11274:11278   */\n      dup3\n        /* \"#utility.yul\":11270:11286   */\n      shl\n        /* \"#utility.yul\":11249:11286   */\n      swap1\n      pop\n        /* \"#utility.yul\":11186:11293   */\n      swap3\n      swap2\n      pop\n      pop\n      jump\t// out\n        /* \"#utility.yul\":11299:11692   */\n    tag_158:\n        /* \"#utility.yul\":11368:11374   */\n      0x00\n        /* \"#utility.yul\":11418:11419   */\n      0x08\n        /* \"#utility.yul\":11406:11416   */\n      dup4\n        /* \"#utility.yul\":11402:11420   */\n      mul\n        /* \"#utility.yul\":11441:11538   */\n      tag_291\n        /* \"#utility.yul\":11471:11537   */\n      0xffffffffffffffffffffffffffffffffffffffffffffffffffffffffffffffff\n        /* \"#utility.yul\":11460:11469   */\n      dup3\n        /* \"#utility.yul\":11441:11538   */\n      tag_157\n      jump\t// in\n    tag_291:\n        /* \"#utility.yul\":11559:11598   */\n      tag_292\n        /* \"#utility.yul\":11589:11597   */\n      dup7\n        /* \"#utility.yul\":11578:11587   */\n      dup4\n        /* \"#utility.yul\":11559:11598   */\n      tag_157\n      jump\t// in\n    tag_292:\n        /* \"#utility.yul\":11547:11598   */\n      swap6\n      pop\n        /* \"#utility.yul\":11631:11635   */\n      dup1\n        /* \"#utility.yul\":11627:11636   */\n      not\n        /* \"#utility.yul\":11620:11625   */\n      dup5\n        /* \"#utility.yul\":11616:11637   */\n      and\n        /* \"#utility.yul\":11607:11637   */\n      swap4\n      pop\n        /* \"#utility.yul\":11680:11684   */\n      dup1\n        /* \"#utility.yul\":11670:11678   */\n      dup7\n        /* \"#utility.yul\":11666:11685   */\n      and\n        /* \"#utility.yul\":11659:11664   */\n      dup5\n        /* \"#utility.yul\":11656:11686   */\n      or\n        /* \"#utility.yul\":11646:11686   */\n      swap3\n      pop\n        /* \"#utility.yul\":11375:11692   */\n      pop\n      pop\n        /* \"#utility.yul\":11299:11692   */\n      swap4\n      swap3\n      pop\n      pop\n      pop\n      jump\t// out\n        /* \"#utility.yul\":11698:11758   */\n    tag_159:\n        /* \"#utility.yul\":11726:11729   */\n      0x00\n        /* \"#utility.yul\":11747:11752   */\n      dup2\n        /* \"#utility.yul\":11740:11752   */\n      swap1\n      pop\n        /* \"#utility.yul\":11698:11758   */\n      swap2\n      swap1\n      pop\n      jump\t// out\n        /* \"#utility.yul\":11764:11906   */\n    tag_160:\n        /* \"#utility.yul\":11814:11823   */\n      0x00\n        /* \"#utility.yul\":11847:11900   */\n      tag_295\n        /* \"#utility.yul\":11865:11899   */\n      tag_296\n        /* \"#utility.yul\":11874:11898   */\n      tag_297\n        /* \"#utility.yul\":11892:11897   */\n      dup5\n        /* \"#utility.yul\":11874:11898   */\n      tag_120\n      jump\t// in\n    tag_297:\n        /* \"#utility.yul\":11865:11899   */\n      tag_159\n      jump\t// in\n    tag_296:\n        /* \"#utility.yul\":11847:11900   */\n      tag_120\n      jump\t// in\n    tag_295:\n        /* \"#utility.yul\":11834:11900   */\n      swap1\n      pop\n        /* \"#utility.yul\":11764:11906   */\n      swap2\n      swap1\n      pop\n      jump\t// out\n        /* \"#utility.yul\":11912:11987   */\n    tag_161:\n        /* \"#utility.yul\":11955:11958   */\n      0x00\n        /* \"#utility.yul\":11976:11981   */\n      dup2\n        /* \"#utility.yul\":11969:11981   */\n      swap1\n      pop\n        /* \"#utility.yul\":11912:11987   */\n      swap2\n      swap1\n      pop\n      jump\t// out\n        /* \"#utility.yul\":11993:12262   */\n    tag_162:\n        /* \"#utility.yul\":12103:12142   */\n      tag_300\n        /* \"#utility.yul\":12134:12141   */\n      dup4\n        /* \"#utility.yul\":12103:12142   */\n      tag_160\n      jump\t// in\n    tag_300:\n        /* \"#utility.yul\":12164:12255   */\n      tag_301\n        /* \"#utility.yul\":12213:12254   */\n      tag_302\n        /* \"#utility.yul\":12237:12253   */\n      dup3\n        /* \"#utility.yul\":12213:12254   */\n      tag_161\n      jump\t// in\n    tag_302:\n        /* \"#utility.yul\":12205:12211   */\n      dup5\n        /* \"#utility.yul\":12198:12202   */\n      dup5\n        /* \"#utility.yul\":12192:12203   */\n      sload\n        /* \"#utility.yul\":12164:12255   */\n      tag_158\n      jump\t// in\n    tag_301:\n        /* \"#utility.yul\":12158:12162   */\n      dup3\n        /* \"#utility.yul\":12151:12256   */\n      sstore\n        /* \"#utility.yul\":12069:12262   */\n      pop\n        /* \"#utility.yul\":11993:12262   */\n      pop\n      pop\n      pop\n      jump\t// out\n        /* \"#utility.yul\":12268:12341   */\n    tag_163:\n        /* \"#utility.yul\":12313:12316   */\n      0x00\n        /* \"#utility.yul\":12268:12341   */\n      swap1\n      jump\t// out\n        /* \"#utility.yul\":12347:12536   */\n    tag_164:\n        /* \"#utility.yul\":12424:12456   */\n      tag_305\n      tag_163\n      jump\t// in\n    tag_305:\n        /* \"#utility.yul\":12465:12530   */\n      tag_306\n        /* \"#utility.yul\":12523:12529   */\n      dup2\n        /* \"#utility.yul\":12515:12521   */\n      dup5\n        /* \"#utility.yul\":12509:12513   */\n      dup5\n        /* \"#utility.yul\":12465:12530   */\n      tag_162\n      jump\t// in\n    tag_306:\n        /* \"#utility.yul\":12400:12536   */\n      pop\n        /* \"#utility.yul\":12347:12536   */\n      pop\n      pop\n      jump\t// out\n        /* \"#utility.yul\":12542:12728   */\n    tag_165:\n        /* \"#utility.yul\":12602:12722   */\n    tag_308:\n        /* \"#utility.yul\":12619:12622   */\n      dup2\n        /* \"#utility.yul\":12612:12617   */\n      dup2\n        /* \"#utility.yul\":12609:12623   */\n      lt\n        /* \"#utility.yul\":12602:12722   */\n      iszero\n      tag_310\n      jumpi\n        /* \"#utility.yul\":12673:12712   */\n      tag_311\n        /* \"#utility.yul\":12710:12711   */\n      0x00\n        /* \"#utility.yul\":12703:12708   */\n      dup3\n        /* \"#utility.yul\":12673:12712   */\n      tag_164\n      jump\t// in\n    tag_311:\n        /* \"#utility.yul\":12646:12647   */\n      0x01\n        /* \"#utility.yul\":12639:12644   */\n      dup2\n        /* \"#utility.yul\":12635:12648   */\n      add\n        /* \"#utility.yul\":12626:12648   */\n      swap1\n      pop\n        /* \"#utility.yul\":12602:12722   */\n      jump(tag_308)\n    tag_310:\n        /* \"#utility.yul\":12542:12728   */\n      pop\n      pop\n      jump\t// out\n        /* \"#utility.yul\":12734:13277   */\n    tag_166:\n        /* \"#utility.yul\":12835:12837   */\n      0x1f\n        /* \"#utility.yul\":12830:12833   */\n      dup3\n        /* \"#utility.yul\":12827:12838   */\n      gt\n        /* \"#utility.yul\":12824:13270   */\n      iszero\n      tag_313\n      jumpi\n        /* \"#utility.yul\":12869:12907   */\n      tag_314\n        /* \"#utility.yul\":12901:12906   */\n      dup2\n        /* \"#utility.yul\":12869:12907   */\n      tag_155\n      jump\t// in\n    tag_314:\n        /* \"#utility.yul\":12953:12982   */\n      tag_315\n        /* \"#utility.yul\":12971:12981   */\n      dup5\n        /* \"#utility.yul\":12953:12982   */\n      tag_156\n      jump\t// in\n    tag_315:\n        /* \"#utility.yul\":12943:12951   */\n      dup2\n        /* \"#utility.yul\":12939:12983   */\n      add\n        /* \"#utility.yul\":13136:13138   */\n      0x20\n        /* \"#utility.yul\":13124:13134   */\n      dup6\n        /* \"#utility.yul\":13121:13139   */\n      lt\n        /* \"#utility.yul\":13118:13167   */\n      iszero\n      tag_316\n      jumpi\n        /* \"#utility.yul\":13157:13165   */\n      dup2\n        /* \"#utility.yul\":13142:13165   */\n      swap1\n      pop\n        /* \"#utility.yul\":13118:13167   */\n    tag_316:\n        /* \"#utility.yul\":13180:13260   */\n      tag_317\n        /* \"#utility.yul\":13236:13258   */\n      tag_318\n        /* \"#utility.yul\":13254:13257   */\n      dup6\n        /* \"#utility.yul\":13236:13258   */\n      tag_156\n      jump\t// in\n    tag_318:\n        /* \"#utility.yul\":13226:13234   */\n      dup4\n        /* \"#utility.yul\":13222:13259   */\n      add\n        /* \"#utility.yul\":13209:13220   */\n      dup3\n        /* \"#utility.yul\":13180:13260   */\n      tag_165\n      jump\t// in\n    tag_317:\n        /* \"#utility.yul\":12839:13270   */\n      pop\n      pop\n        /* \"#utility.yul\":12824:13270   */\n    tag_313:\n        /* \"#utility.yul\":12734:13277   */\n      pop\n      pop\n      pop\n      jump\t// out\n        /* \"#utility.yul\":13283:13400   */\n    tag_167:\n        /* \"#utility.yul\":13337:13345   */\n      0x00\n        /* \"#utility.yul\":13387:13392   */\n      dup3\n        /* \"#utility.yul\":13381:13385   */\n      dup3\n        /* \"#utility.yul\":13377:13393   */\n      shr\n        /* \"#utility.yul\":13356:13393   */\n      swap1\n      pop\n        /* \"#utility.yul\":13283:13400   */\n      swap3\n      swap2\n      pop\n      pop\n      jump\t// out\n        /* \"#utility.yul\":13406:13575   */\n    tag_168:\n        /* \"#utility.yul\":13450:13456   */\n      0x00\n        /* \"#utility.yul\":13483:13534   */\n      tag_321\n        /* \"#utility.yul\":13531:13532   */\n      0x00\n        /* \"#utility.yul\":13527:13533   */\n      not\n        /* \"#utility.yul\":13519:13524   */\n      dup5\n        /* \"#utility.yul\":13516:13517   */\n      0x08\n        /* \"#utility.yul\":13512:13525   */\n      mul\n        /* \"#utility.yul\":13483:13534   */\n      tag_167\n      jump\t// in\n    tag_321:\n        /* \"#utility.yul\":13479:13535   */\n      not\n        /* \"#utility.yul\":13564:13568   */\n      dup1\n        /* \"#utility.yul\":13558:13562   */\n      dup4\n        /* \"#utility.yul\":13554:13569   */\n      and\n        /* \"#utility.yul\":13544:13569   */\n      swap2\n      pop\n        /* \"#utility.yul\":13457:13575   */\n      pop\n        /* \"#utility.yul\":13406:13575   */\n      swap3\n      swap2\n      pop\n      pop\n      jump\t// out\n        /* \"#utility.yul\":13580:13875   */\n    tag_169:\n        /* \"#utility.yul\":13656:13660   */\n      0x00\n        /* \"#utility.yul\":13802:13831   */\n      tag_323\n        /* \"#utility.yul\":13827:13830   */\n      dup4\n        /* \"#utility.yul\":13821:13825   */\n      dup4\n        /* \"#utility.yul\":13802:13831   */\n      tag_168\n      jump\t// in\n    tag_323:\n        /* \"#utility.yul\":13794:13831   */\n      swap2\n      pop\n        /* \"#utility.yul\":13864:13867   */\n      dup3\n        /* \"#utility.yul\":13861:13862   */\n      0x02\n        /* \"#utility.yul\":13857:13868   */\n      mul\n        /* \"#utility.yul\":13851:13855   */\n      dup3\n        /* \"#utility.yul\":13848:13869   */\n      or\n        /* \"#utility.yul\":13840:13869   */\n      swap1\n      pop\n        /* \"#utility.yul\":13580:13875   */\n      swap3\n      swap2\n      pop\n      pop\n      jump\t// out\n        /* \"#utility.yul\":13880:15275   */\n    tag_63:\n        /* \"#utility.yul\":13997:14034   */\n      tag_325\n        /* \"#utility.yul\":14030:14033   */\n      dup3\n        /* \"#utility.yul\":13997:14034   */\n      tag_123\n      jump\t// in\n    tag_325:\n        /* \"#utility.yul\":14099:14117   */\n      0xffffffffffffffff\n        /* \"#utility.yul\":14091:14097   */\n      dup2\n        /* \"#utility.yul\":14088:14118   */\n      gt\n        /* \"#utility.yul\":14085:14141   */\n      iszero\n      tag_326\n      jumpi\n        /* \"#utility.yul\":14121:14139   */\n      tag_327\n      tag_130\n      jump\t// in\n    tag_327:\n        /* \"#utility.yul\":14085:14141   */\n    tag_326:\n        /* \"#utility.yul\":14165:14203   */\n      tag_328\n        /* \"#utility.yul\":14197:14201   */\n      dup3\n        /* \"#utility.yul\":14191:14202   */\n      sload\n        /* \"#utility.yul\":14165:14203   */\n      tag_50\n      jump\t// in\n    tag_328:\n        /* \"#utility.yul\":14250:14317   */\n      tag_329\n        /* \"#utility.yul\":14310:14316   */\n      dup3\n        /* \"#utility.yul\":14302:14308   */\n      dup3\n        /* \"#utility.yul\":14296:14300   */\n      dup6\n        /* \"#utility.yul\":14250:14317   */\n      tag_166\n      jump\t// in\n    tag_329:\n        /* \"#utility.yul\":14344:14345   */\n      0x00\n        /* \"#utility.yul\":14368:14372   */\n      0x20\n        /* \"#utility.yul\":14355:14372   */\n      swap1\n      pop\n        /* \"#utility.yul\":14400:14402   */\n      0x1f\n        /* \"#utility.yul\":14392:14398   */\n      dup4\n        /* \"#utility.yul\":14389:14403   */\n      gt\n        /* \"#utility.yul\":14417:14418   */\n      0x01\n        /* \"#utility.yul\":14412:15030   */\n      dup2\n      eq\n      tag_331\n      jumpi\n        /* \"#utility.yul\":15074:15075   */\n      0x00\n        /* \"#utility.yul\":15091:15097   */\n      dup5\n        /* \"#utility.yul\":15088:15165   */\n      iszero\n      tag_332\n      jumpi\n        /* \"#utility.yul\":15140:15149   */\n      dup3\n        /* \"#utility.yul\":15135:15138   */\n      dup8\n        /* \"#utility.yul\":15131:15150   */\n      add\n        /* \"#utility.yul\":15125:15151   */\n      mload\n        /* \"#utility.yul\":15116:15151   */\n      swap1\n      pop\n        /* \"#utility.yul\":15088:15165   */\n    tag_332:\n        /* \"#utility.yul\":15191:15258   */\n      tag_333\n        /* \"#utility.yul\":15251:15257   */\n      dup6\n        /* \"#utility.yul\":15244:15249   */\n      dup3\n        /* \"#utility.yul\":15191:15258   */\n      tag_169\n      jump\t// in\n    tag_333:\n        /* \"#utility.yul\":15185:15189   */\n      dup7\n        /* \"#utility.yul\":15178:15259   */\n      sstore\n        /* \"#utility.yul\":15047:15269   */\n      pop\n        /* \"#utility.yul\":14382:15269   */\n      jump(tag_330)\n        /* \"#utility.yul\":14412:15030   */\n    tag_331:\n        /* \"#utility.yul\":14464:14468   */\n      0x1f\n        /* \"#utility.yul\":14460:14469   */\n      not\n        /* \"#utility.yul\":14452:14458   */\n      dup5\n        /* \"#utility.yul\":14448:14470   */\n      and\n        /* \"#utility.yul\":14498:14535   */\n      tag_334\n        /* \"#utility.yul\":14530:14534   */\n      dup7\n        /* \"#utility.yul\":14498:14535   */\n      tag_155\n      jump\t// in\n    tag_334:\n        /* \"#utility.yul\":14557:14558   */\n      0x00\n        /* \"#utility.yul\":14571:14779   */\n    tag_335:\n        /* \"#utility.yul\":14585:14592   */\n      dup3\n        /* \"#utility.yul\":14582:14583   */\n      dup2\n        /* \"#utility.yul\":14579:14593   */\n      lt\n        /* \"#utility.yul\":14571:14779   */\n      iszero\n      tag_337\n      jumpi\n        /* \"#utility.yul\":14664:14673   */\n      dup5\n        /* \"#utility.yul\":14659:14662   */\n      dup10\n        /* \"#utility.yul\":14655:14674   */\n      add\n        /* \"#utility.yul\":14649:14675   */\n      mload\n        /* \"#utility.yul\":14641:14647   */\n      dup3\n        /* \"#utility.yul\":14634:14676   */\n      sstore\n        /* \"#utility.yul\":14715:14716   */\n      0x01\n        /* \"#utility.yul\":14707:14713   */\n      dup3\n        /* \"#utility.yul\":14703:14717   */\n      add\n        /* \"#utility.yul\":14693:14717   */\n      swap2\n      pop\n        /* \"#utility.yul\":14762:14764   */\n      0x20\n        /* \"#utility.yul\":14751:14760   */\n      dup6\n        /* \"#utility.yul\":14747:14765   */\n      add\n        /* \"#utility.yul\":14734:14765   */\n      swap5\n      pop\n        /* \"#utility.yul\":14608:14612   */\n      0x20\n        /* \"#utility.yul\":14605:14606   */\n      dup2\n        /* \"#utility.yul\":14601:14613   */\n      add\n        /* \"#utility.yul\":14596:14613   */\n      swap1\n      pop\n        /* \"#utility.yul\":14571:14779   */\n      jump(tag_335)\n    tag_337:\n        /* \"#utility.yul\":14807:14813   */\n      dup7\n        /* \"#utility.yul\":14798:14805   */\n      dup4\n        /* \"#utility.yul\":14795:14814   */\n      lt\n        /* \"#utility.yul\":14792:14971   */\n      iszero\n      tag_338\n      jumpi\n        /* \"#utility.yul\":14865:14874   */\n      dup5\n        /* \"#utility.yul\":14860:14863   */\n      dup10\n        /* \"#utility.yul\":14856:14875   */\n      add\n        /* \"#utility.yul\":14850:14876   */\n      mload\n        /* \"#utility.yul\":14908:14956   */\n      tag_339\n        /* \"#utility.yul\":14950:14954   */\n      0x1f\n        /* \"#utility.yul\":14942:14948   */\n      dup10\n        /* \"#utility.yul\":14938:14955   */\n      and\n        /* \"#utility.yul\":14927:14936   */\n      dup3\n        /* \"#utility.yul\":14908:14956   */\n      tag_168\n      jump\t// in\n    tag_339:\n        /* \"#utility.yul\":14900:14906   */\n      dup4\n        /* \"#utility.yul\":14893:14957   */\n      sstore\n        /* \"#utility.yul\":14815:14971   */\n      pop\n        /* \"#utility.yul\":14792:14971   */\n    tag_338:\n        /* \"#utility.yul\":15017:15018   */\n      0x01\n        /* \"#utility.yul\":15013:15014   */\n      0x02\n        /* \"#utility.yul\":15005:15011   */\n      dup9\n        /* \"#utility.yul\":15001:15015   */\n      mul\n        /* \"#utility.yul\":14997:15019   */\n      add\n        /* \"#utility.yul\":14991:14995   */\n      dup9\n        /* \"#utility.yul\":14984:15020   */\n      sstore\n        /* \"#utility.yul\":14419:15030   */\n      pop\n      pop\n      pop\n        /* \"#utility.yul\":14382:15269   */\n    tag_330:\n      pop\n        /* \"#utility.yul\":13972:15275   */\n      pop\n      pop\n      pop\n        /* \"#utility.yul\":13880:15275   */\n      pop\n      pop\n      jump\t// out\n        /* \"#utility.yul\":15281:15461   */\n    tag_77:\n        /* \"#utility.yul\":15329:15406   */\n      0x4e487b7100000000000000000000000000000000000000000000000000000000\n        /* \"#utility.yul\":15326:15327   */\n      0x00\n        /* \"#utility.yul\":15319:15407   */\n      mstore\n        /* \"#utility.yul\":15426:15430   */\n      0x32\n        /* \"#utility.yul\":15423:15424   */\n      0x04\n        /* \"#utility.yul\":15416:15431   */\n      mstore\n        /* \"#utility.yul\":15450:15454   */\n      0x24\n        /* \"#utility.yul\":15447:15448   */\n      0x00\n        /* \"#utility.yul\":15440:15455   */\n      revert\n        /* \"#utility.yul\":15467:15647   */\n    tag_170:\n        /* \"#utility.yul\":15515:15592   */\n      0x4e487b7100000000000000000000000000000000000000000000000000000000\n        /* \"#utility.yul\":15512:15513   */\n      0x00\n        /* \"#utility.yul\":15505:15593   */\n      mstore\n        /* \"#utility.yul\":15612:15616   */\n      0x11\n        /* \"#utility.yul\":15609:15610   */\n      0x04\n        /* \"#utility.yul\":15602:15617   */\n      mstore\n        /* \"#utility.yul\":15636:15640   */\n      0x24\n        /* \"#utility.yul\":15633:15634   */\n      0x00\n        /* \"#utility.yul\":15626:15641   */\n      revert\n        /* \"#utility.yul\":15653:15847   */\n    tag_91:\n        /* \"#utility.yul\":15693:15697   */\n      0x00\n        /* \"#utility.yul\":15713:15733   */\n      tag_343\n        /* \"#utility.yul\":15731:15732   */\n      dup3\n        /* \"#utility.yul\":15713:15733   */\n      tag_120\n      jump\t// in\n    tag_343:\n        /* \"#utility.yul\":15708:15733   */\n      swap2\n      pop\n        /* \"#utility.yul\":15747:15767   */\n      tag_344\n        /* \"#utility.yul\":15765:15766   */\n      dup4\n        /* \"#utility.yul\":15747:15767   */\n      tag_120\n      jump\t// in\n    tag_344:\n        /* \"#utility.yul\":15742:15767   */\n      swap3\n      pop\n        /* \"#utility.yul\":15791:15792   */\n      dup3\n        /* \"#utility.yul\":15788:15789   */\n      dup3\n        /* \"#utility.yul\":15784:15793   */\n      sub\n        /* \"#utility.yul\":15776:15793   */\n      swap1\n      pop\n        /* \"#utility.yul\":15815:15816   */\n      dup2\n        /* \"#utility.yul\":15809:15813   */\n      dup2\n        /* \"#utility.yul\":15806:15817   */\n      gt\n        /* \"#utility.yul\":15803:15840   */\n      iszero\n      tag_345\n      jumpi\n        /* \"#utility.yul\":15820:15838   */\n      tag_346\n      tag_170\n      jump\t// in\n    tag_346:\n        /* \"#utility.yul\":15803:15840   */\n    tag_345:\n        /* \"#utility.yul\":15653:15847   */\n      swap3\n      swap2\n      pop\n      pop\n      jump\t// out\n        /* \"#utility.yul\":15853:16044   */\n    tag_93:\n        /* \"#utility.yul\":15893:15896   */\n      0x00\n        /* \"#utility.yul\":15912:15932   */\n      tag_348\n        /* \"#utility.yul\":15930:15931   */\n      dup3\n        /* \"#utility.yul\":15912:15932   */\n      tag_120\n      jump\t// in\n    tag_348:\n        /* \"#utility.yul\":15907:15932   */\n      swap2\n      pop\n        /* \"#utility.yul\":15946:15966   */\n      tag_349\n        /* \"#utility.yul\":15964:15965   */\n      dup4\n        /* \"#utility.yul\":15946:15966   */\n      tag_120\n      jump\t// in\n    tag_349:\n        /* \"#utility.yul\":15941:15966   */\n      swap3\n      pop\n        /* \"#utility.yul\":15989:15990   */\n      dup3\n        /* \"#utility.yul\":15986:15987   */\n      dup3\n        /* \"#utility.yul\":15982:15991   */\n      add\n        /* \"#utility.yul\":15975:15991   */\n      swap1\n      pop\n        /* \"#utility.yul\":16010:16013   */\n      dup1\n        /* \"#utility.yul\":16007:16008   */\n      dup3\n        /* \"#utility.yul\":16004:16014   */\n      gt\n        /* \"#utility.yul\":16001:16037   */\n      iszero\n      tag_350\n      jumpi\n        /* \"#utility.yul\":16017:16035   */\n      tag_351\n      tag_170\n      jump\t// in\n    tag_351:\n        /* \"#utility.yul\":16001:16037   */\n    tag_350:\n        /* \"#utility.yul\":15853:16044   */\n      swap3\n      swap2\n      pop\n      pop\n      jump\t// out\n        /* \"#utility.yul\":16050:16203   */\n    tag_171:\n        /* \"#utility.yul\":16103:16109   */\n      0x00\n        /* \"#utility.yul\":16137:16142   */\n      dup2\n        /* \"#utility.yul\":16131:16143   */\n      sload\n        /* \"#utility.yul\":16121:16143   */\n      swap1\n      pop\n        /* \"#utility.yul\":16163:16196   */\n      tag_353\n        /* \"#utility.yul\":16189:16195   */\n      dup2\n        /* \"#utility.yul\":16163:16196   */\n      tag_50\n      jump\t// in\n    tag_353:\n        /* \"#utility.yul\":16153:16196   */\n      swap1\n      pop\n        /* \"#utility.yul\":16050:16203   */\n      swap2\n      swap1\n      pop\n      jump\t// out\n        /* \"#utility.yul\":16209:16354   */\n    tag_172:\n        /* \"#utility.yul\":16262:16266   */\n      0x00\n        /* \"#utility.yul\":16285:16288   */\n      dup2\n        /* \"#utility.yul\":16277:16288   */\n      swap1\n      pop\n        /* \"#utility.yul\":16308:16311   */\n      dup2\n        /* \"#utility.yul\":16305:16306   */\n      0x00\n        /* \"#utility.yul\":16298:16312   */\n      mstore\n        /* \"#utility.yul\":16342:16346   */\n      0x20\n        /* \"#utility.yul\":16339:16340   */\n      0x00\n        /* \"#utility.yul\":16329:16347   */\n      keccak256\n        /* \"#utility.yul\":16321:16347   */\n      swap1\n      pop\n        /* \"#utility.yul\":16209:16354   */\n      swap2\n      swap1\n      pop\n      jump\t// out\n        /* \"#utility.yul\":16360:17823   */\n    tag_101:\n        /* \"#utility.yul\":16475:16478   */\n      dup2\n        /* \"#utility.yul\":16469:16473   */\n      dup2\n        /* \"#utility.yul\":16466:16479   */\n      sub\n        /* \"#utility.yul\":16463:16489   */\n      tag_356\n      jumpi\n        /* \"#utility.yul\":16482:16487   */\n      pop\n      pop\n      jump(tag_355)\n        /* \"#utility.yul\":16463:16489   */\n    tag_356:\n        /* \"#utility.yul\":16513:16551   */\n      tag_357\n        /* \"#utility.yul\":16547:16550   */\n      dup3\n        /* \"#utility.yul\":16513:16551   */\n      tag_171\n      jump\t// in\n    tag_357:\n        /* \"#utility.yul\":16616:16634   */\n      0xffffffffffffffff\n        /* \"#utility.yul\":16608:16614   */\n      dup2\n        /* \"#utility.yul\":16605:16635   */\n      gt\n        /* \"#utility.yul\":16602:16658   */\n      iszero\n      tag_358\n      jumpi\n        /* \"#utility.yul\":16638:16656   */\n      tag_359\n      tag_130\n      jump\t// in\n    tag_359:\n        /* \"#utility.yul\":16602:16658   */\n    tag_358:\n        /* \"#utility.yul\":16682:16720   */\n      tag_360\n        /* \"#utility.yul\":16714:16718   */\n      dup3\n        /* \"#utility.yul\":16708:16719   */\n      sload\n        /* \"#utility.yul\":16682:16720   */\n      tag_50\n      jump\t// in\n    tag_360:\n        /* \"#utility.yul\":16767:16834   */\n      tag_361\n        /* \"#utility.yul\":16827:16833   */\n      dup3\n        /* \"#utility.yul\":16819:16825   */\n      dup3\n        /* \"#utility.yul\":16813:16817   */\n      dup6\n        /* \"#utility.yul\":16767:16834   */\n      tag_166\n      jump\t// in\n    tag_361:\n        /* \"#utility.yul\":16861:16862   */\n      0x00\n        /* \"#utility.yul\":16890:16892   */\n      0x1f\n        /* \"#utility.yul\":16882:16888   */\n      dup4\n        /* \"#utility.yul\":16879:16893   */\n      gt\n        /* \"#utility.yul\":16907:16908   */\n      0x01\n        /* \"#utility.yul\":16902:17578   */\n      dup2\n      eq\n      tag_363\n      jumpi\n        /* \"#utility.yul\":17622:17623   */\n      0x00\n        /* \"#utility.yul\":17639:17645   */\n      dup5\n        /* \"#utility.yul\":17636:17713   */\n      iszero\n      tag_364\n      jumpi\n        /* \"#utility.yul\":17688:17697   */\n      dup3\n        /* \"#utility.yul\":17683:17686   */\n      dup8\n        /* \"#utility.yul\":17679:17698   */\n      add\n        /* \"#utility.yul\":17673:17699   */\n      sload\n        /* \"#utility.yul\":17664:17699   */\n      swap1\n      pop\n        /* \"#utility.yul\":17636:17713   */\n    tag_364:\n        /* \"#utility.yul\":17739:17806   */\n      tag_365\n        /* \"#utility.yul\":17799:17805   */\n      dup6\n        /* \"#utility.yul\":17792:17797   */\n      dup3\n        /* \"#utility.yul\":17739:17806   */\n      tag_169\n      jump\t// in\n    tag_365:\n        /* \"#utility.yul\":17733:17737   */\n      dup7\n        /* \"#utility.yul\":17726:17807   */\n      sstore\n        /* \"#utility.yul\":17595:17817   */\n      pop\n        /* \"#utility.yul\":16872:17817   */\n      jump(tag_362)\n        /* \"#utility.yul\":16902:17578   */\n    tag_363:\n        /* \"#utility.yul\":16954:16958   */\n      0x1f\n        /* \"#utility.yul\":16950:16959   */\n      not\n        /* \"#utility.yul\":16942:16948   */\n      dup5\n        /* \"#utility.yul\":16938:16960   */\n      and\n        /* \"#utility.yul\":16980:17020   */\n      tag_366\n        /* \"#utility.yul\":17016:17019   */\n      dup8\n        /* \"#utility.yul\":16980:17020   */\n      tag_172\n      jump\t// in\n    tag_366:\n        /* \"#utility.yul\":16973:17020   */\n      swap7\n      pop\n        /* \"#utility.yul\":17047:17084   */\n      tag_367\n        /* \"#utility.yul\":17079:17083   */\n      dup7\n        /* \"#utility.yul\":17047:17084   */\n      tag_155\n      jump\t// in\n    tag_367:\n        /* \"#utility.yul\":17106:17107   */\n      0x00\n        /* \"#utility.yul\":17120:17327   */\n    tag_368:\n        /* \"#utility.yul\":17134:17141   */\n      dup3\n        /* \"#utility.yul\":17131:17132   */\n      dup2\n        /* \"#utility.yul\":17128:17142   */\n      lt\n        /* \"#utility.yul\":17120:17327   */\n      iszero\n      tag_370\n      jumpi\n        /* \"#utility.yul\":17213:17222   */\n      dup5\n        /* \"#utility.yul\":17208:17211   */\n      dup10\n        /* \"#utility.yul\":17204:17223   */\n      add\n        /* \"#utility.yul\":17198:17224   */\n      sload\n        /* \"#utility.yul\":17190:17196   */\n      dup3\n        /* \"#utility.yul\":17183:17225   */\n      sstore\n        /* \"#utility.yul\":17264:17265   */\n      0x01\n        /* \"#utility.yul\":17256:17262   */\n      dup3\n        /* \"#utility.yul\":17252:17266   */\n      add\n        /* \"#utility.yul\":17242:17266   */\n      swap2\n      pop\n        /* \"#utility.yul\":17311:17312   */\n      0x01\n        /* \"#utility.yul\":17300:17309   */\n      dup6\n        /* \"#utility.yul\":17296:17313   */\n      add\n        /* \"#utility.yul\":17283:17313   */\n      swap5\n      pop\n        /* \"#utility.yul\":17157:17161   */\n      0x20\n        /* \"#utility.yul\":17154:17155   */\n      dup2\n        /* \"#utility.yul\":17150:17162   */\n      add\n        /* \"#utility.yul\":17145:17162   */\n      swap1\n      pop\n        /* \"#utility.yul\":17120:17327   */\n      jump(tag_368)\n    tag_370:\n        /* \"#utility.yul\":17355:17361   */\n      dup7\n        /* \"#utility.yul\":17346:17353   */\n      dup4\n        /* \"#utility.yul\":17343:17362   */\n      lt\n        /* \"#utility.yul\":17340:17519   */\n      iszero\n      tag_371\n      jumpi\n        /* \"#utility.yul\":17413:17422   */\n      dup5\n        /* \"#utility.yul\":17408:17411   */\n      dup10\n        /* \"#utility.yul\":17404:17423   */\n      add\n        /* \"#utility.yul\":17398:17424   */\n      sload\n        /* \"#utility.yul\":17456:17504   */\n      tag_372\n        /* \"#utility.yul\":17498:17502   */\n      0x1f\n        /* \"#utility.yul\":17490:17496   */\n      dup10\n        /* \"#utility.yul\":17486:17503   */\n      and\n        /* \"#utility.yul\":17475:17484   */\n      dup3\n        /* \"#utility.yul\":17456:17504   */\n      tag_168\n      jump\t// in\n    tag_372:\n        /* \"#utility.yul\":17448:17454   */\n      dup4\n        /* \"#utility.yul\":17441:17505   */\n      sstore\n        /* \"#utility.yul\":17363:17519   */\n      pop\n        /* \"#utility.yul\":17340:17519   */\n    tag_371:\n        /* \"#utility.yul\":17565:17566   */\n      0x01\n        /* \"#utility.yul\":17561:17562   */\n      0x02\n        /* \"#utility.yul\":17553:17559   */\n      dup9\n        /* \"#utility.yul\":17549:17563   */\n      mul\n        /* \"#utility.yul\":17545:17567   */\n      add\n        /* \"#utility.yul\":17539:17543   */\n      dup9\n        /* \"#utility.yul\":17532:17568   */\n      sstore\n        /* \"#utility.yul\":16909:17578   */\n      pop\n      pop\n      pop\n        /* \"#utility.yul\":16872:17817   */\n    tag_362:\n      pop\n        /* \"#utility.yul\":16453:17823   */\n      pop\n      pop\n      pop\n        /* \"#utility.yul\":16360:17823   */\n      pop\n      pop\n    tag_355:\n      jump\t// out\n        /* \"#utility.yul\":17829:18062   */\n    tag_103:\n        /* \"#utility.yul\":17868:17871   */\n      0x00\n        /* \"#utility.yul\":17891:17915   */\n      tag_374\n        /* \"#utility.yul\":17909:17914   */\n      dup3\n        /* \"#utility.yul\":17891:17915   */\n      tag_120\n      jump\t// in\n    tag_374:\n        /* \"#utility.yul\":17882:17915   */\n      swap2\n      pop\n        /* \"#utility.yul\":17937:18003   */\n      0xffffffffffffffffffffffffffffffffffffffffffffffffffffffffffffffff\n        /* \"#utility.yul\":17930:17935   */\n      dup3\n        /* \"#utility.yul\":17927:18004   */\n      sub\n        /* \"#utility.yul\":17924:18027   */\n      tag_375\n      jumpi\n        /* \"#utility.yul\":18007:18025   */\n      tag_376\n      tag_170\n      jump\t// in\n    tag_376:\n        /* \"#utility.yul\":17924:18027   */\n    tag_375:\n        /* \"#utility.yul\":18054:18055   */\n      0x01\n        /* \"#utility.yul\":18047:18052   */\n      dup3\n        /* \"#utility.yul\":18043:18056   */\n      add\n        /* \"#utility.yul\":18036:18056   */\n      swap1\n      pop\n        /* \"#utility.yul\":17829:18062   */\n      swap2\n      swap1\n      pop\n      jump\t// out\n        /* \"#utility.yul\":18068:18248   */\n    tag_106:\n        /* \"#utility.yul\":18116:18193   */\n      0x4e487b7100000000000000000000000000000000000000000000000000000000\n        /* \"#utility.yul\":18113:18114   */\n      0x00\n        /* \"#utility.yul\":18106:18194   */\n      mstore\n        /* \"#utility.yul\":18213:18217   */\n      0x31\n        /* \"#utility.yul\":18210:18211   */\n      0x04\n        /* \"#utility.yul\":18203:18218   */\n      mstore\n        /* \"#utility.yul\":18237:18241   */\n      0x24\n        /* \"#utility.yul\":18234:18235   */\n      0x00\n        /* \"#utility.yul\":18227:18242   */\n      revert\n\n    auxdata: 0xa2646970667358221220878dbaaff86ea30785d3b9225b57a388d39945f4886d0dd6715f5c83e796477164736f6c63430008130033\n}\n","bytecode":{"linkReferences":{},"object":"60806040523480156200001157600080fd5b5033600260006101000a81548173ffffffffffffffffffffffffffffffffffffffff021916908373ffffffffffffffffffffffffffffffffffffffff160217905550600080600181540180825580915050600190039060005260206000200160006040518060400160405280600c81526020017f48656c6c6f20576f726c6421000000000000000000000000000000000000000081525090919091509081620000bb91906200038a565b503373ffffffffffffffffffffffffffffffffffffffff167f8da45d748eefefd09cc1491cd32086b6d6a0bd7063d08f05c94df9eb1404bd806040516200010290620004d2565b60405180910390a2620004f4565b600081519050919050565b7f4e487b7100000000000000000000000000000000000000000000000000000000600052604160045260246000fd5b7f4e487b7100000000000000000000000000000000000000000000000000000000600052602260045260246000fd5b600060028204905060018216806200019257607f821691505b602082108103620001a857620001a76200014a565b5b50919050565b60008190508160005260206000209050919050565b60006020601f8301049050919050565b600082821b905092915050565b600060088302620002127fffffffffffffffffffffffffffffffffffffffffffffffffffffffffffffffff82620001d3565b6200021e8683620001d3565b95508019841693508086168417925050509392505050565b6000819050919050565b6000819050919050565b60006200026b620002656200025f8462000236565b62000240565b62000236565b9050919050565b6000819050919050565b62000287836200024a565b6200029f620002968262000272565b848454620001e0565b825550505050565b600090565b620002b6620002a7565b620002c38184846200027c565b505050565b5b81811015620002eb57620002df600082620002ac565b600181019050620002c9565b5050565b601f8211156200033a576200030481620001ae565b6200030f84620001c3565b810160208510156200031f578190505b620003376200032e85620001c3565b830182620002c8565b50505b505050565b600082821c905092915050565b60006200035f600019846008026200033f565b1980831691505092915050565b60006200037a83836200034c565b9150826002028217905092915050565b620003958262000110565b67ffffffffffffffff811115620003b157620003b06200011b565b5b620003bd825462000179565b620003ca828285620002ef565b600060209050601f831160018114620004025760008415620003ed578287015190505b620003f985826200036c565b86555062000469565b601f1984166200041286620001ae565b60005b828110156200043c5784890151825560018201915060208501945060208101905062000415565b868310156200045c578489015162000458601f8916826200034c565b8355505b6001600288020188555050505b505050505050565b600082825260208201905092915050565b7f48656c6c6f20576f726c64210000000000000000000000000000000000000000600082015250565b6000620004ba600c8362000471565b9150620004c78262000482565b602082019050919050565b60006020820190508181036000830152620004ed81620004ab565b9050919050565b6111f580620005046000396000f3fe6080604052600436106100705760003560e01c80635ff6cbf31161004e5780635ff6cbf31461010b5780637062b97d1461013657806386f79edb14610161578063b888690a1461019e57610070565b80630d80fefd14610075578063368b8772146100b25780634209fff1146100ce575b600080fd5b34801561008157600080fd5b5061009c60048036038101906100979190610789565b6101c7565b6040516100a99190610846565b60405180910390f35b6100cc60048036038101906100c7919061099d565b610273565b005b3480156100da57600080fd5b506100f560048036038101906100f09190610a44565b6103f1565b6040516101029190610a8c565b60405180910390f35b34801561011757600080fd5b50610120610411565b60405161012d9190610bb3565b60405180910390f35b34801561014257600080fd5b5061014b6104ea565b6040516101589190610be4565b60405180910390f35b34801561016d57600080fd5b5061018860048036038101906101839190610789565b610510565b6040516101959190610846565b60405180910390f35b3480156101aa57600080fd5b506101c560048036038101906101c09190610789565b6105c0565b005b600081815481106101d757600080fd5b9060005260206000200160009150905080546101f290610c2e565b80601f016020809104026020016040519081016040528092919081815260200182805461021e90610c2e565b801561026b5780601f106102405761010080835404028352916020019161026b565b820191906000526020600020905b81548152906001019060200180831161024e57829003601f168201915b505050505081565b600160003373ffffffffffffffffffffffffffffffffffffffff1673ffffffffffffffffffffffffffffffffffffffff16815260200190815260200160002060009054906101000a900460ff16156103135766038d7ea4c68000341461030e576040517f08c379a000000000000000000000000000000000000000000000000000000000815260040161030590610cd1565b60405180910390fd5b61036b565b60018060003373ffffffffffffffffffffffffffffffffffffffff1673ffffffffffffffffffffffffffffffffffffffff16815260200190815260200160002060006101000a81548160ff0219169083151502179055505b60008190806001815401808255809150506001900390600052602060002001600090919091909150908161039f9190610e9d565b503373ffffffffffffffffffffffffffffffffffffffff167f8da45d748eefefd09cc1491cd32086b6d6a0bd7063d08f05c94df9eb1404bd80826040516103e69190610846565b60405180910390a250565b60016020528060005260406000206000915054906101000a900460ff1681565b60606000805480602002602001604051908101604052809291908181526020016000905b828210156104e157838290600052602060002001805461045490610c2e565b80601f016020809104026020016040519081016040528092919081815260200182805461048090610c2e565b80156104cd5780601f106104a2576101008083540402835291602001916104cd565b820191906000526020600020905b8154815290600101906020018083116104b057829003601f168201915b505050505081526020019060010190610435565b50505050905090565b600260009054906101000a900473ffffffffffffffffffffffffffffffffffffffff1681565b60606000828154811061052657610525610f6f565b5b90600052602060002001805461053b90610c2e565b80601f016020809104026020016040519081016040528092919081815260200182805461056790610c2e565b80156105b45780601f10610589576101008083540402835291602001916105b4565b820191906000526020600020905b81548152906001019060200180831161059757829003601f168201915b50505050509050919050565b600260009054906101000a900473ffffffffffffffffffffffffffffffffffffffff1673ffffffffffffffffffffffffffffffffffffffff163373ffffffffffffffffffffffffffffffffffffffff16148015610621575060008054905081105b156106df5760008190505b600160008054905061063e9190610fcd565b8110156106ad5760006001826106549190611001565b8154811061066557610664610f6f565b5b906000526020600020016000828154811061068357610682610f6f565b5b9060005260206000200190816106999190611060565b5080806106a590611148565b91505061062c565b5060008054806106c0576106bf611190565b5b6001900381819060005260206000200160006106dc91906106e2565b90555b50565b5080546106ee90610c2e565b6000825580601f10610700575061071f565b601f01602090049060005260206000209081019061071e9190610722565b5b50565b5b8082111561073b576000816000905550600101610723565b5090565b6000604051905090565b600080fd5b600080fd5b6000819050919050565b61076681610753565b811461077157600080fd5b50565b6000813590506107838161075d565b92915050565b60006020828403121561079f5761079e610749565b5b60006107ad84828501610774565b91505092915050565b600081519050919050565b600082825260208201905092915050565b60005b838110156107f05780820151818401526020810190506107d5565b60008484015250505050565b6000601f19601f8301169050919050565b6000610818826107b6565b61082281856107c1565b93506108328185602086016107d2565b61083b816107fc565b840191505092915050565b60006020820190508181036000830152610860818461080d565b905092915050565b600080fd5b600080fd5b7f4e487b7100000000000000000000000000000000000000000000000000000000600052604160045260246000fd5b6108aa826107fc565b810181811067ffffffffffffffff821117156108c9576108c8610872565b5b80604052505050565b60006108dc61073f565b90506108e882826108a1565b919050565b600067ffffffffffffffff82111561090857610907610872565b5b610911826107fc565b9050602081019050919050565b82818337600083830152505050565b600061094061093b846108ed565b6108d2565b90508281526020810184848401111561095c5761095b61086d565b5b61096784828561091e565b509392505050565b600082601f83011261098457610983610868565b5b813561099484826020860161092d565b91505092915050565b6000602082840312156109b3576109b2610749565b5b600082013567ffffffffffffffff8111156109d1576109d061074e565b5b6109dd8482850161096f565b91505092915050565b600073ffffffffffffffffffffffffffffffffffffffff82169050919050565b6000610a11826109e6565b9050919050565b610a2181610a06565b8114610a2c57600080fd5b50565b600081359050610a3e81610a18565b92915050565b600060208284031215610a5a57610a59610749565b5b6000610a6884828501610a2f565b91505092915050565b60008115159050919050565b610a8681610a71565b82525050565b6000602082019050610aa16000830184610a7d565b92915050565b600081519050919050565b600082825260208201905092915050565b6000819050602082019050919050565b600082825260208201905092915050565b6000610aef826107b6565b610af98185610ad3565b9350610b098185602086016107d2565b610b12816107fc565b840191505092915050565b6000610b298383610ae4565b905092915050565b6000602082019050919050565b6000610b4982610aa7565b610b538185610ab2565b935083602082028501610b6585610ac3565b8060005b85811015610ba15784840389528151610b828582610b1d565b9450610b8d83610b31565b925060208a01995050600181019050610b69565b50829750879550505050505092915050565b60006020820190508181036000830152610bcd8184610b3e565b905092915050565b610bde81610a06565b82525050565b6000602082019050610bf96000830184610bd5565b92915050565b7f4e487b7100000000000000000000000000000000000000000000000000000000600052602260045260246000fd5b60006002820490506001821680610c4657607f821691505b602082108103610c5957610c58610bff565b5b50919050565b7f616464696e672061206e6577206d65737361676573207265717569726573203060008201527f2e30303120657468657273000000000000000000000000000000000000000000602082015250565b6000610cbb602b836107c1565b9150610cc682610c5f565b604082019050919050565b60006020820190508181036000830152610cea81610cae565b9050919050565b60008190508160005260206000209050919050565b60006020601f8301049050919050565b600082821b905092915050565b600060088302610d537fffffffffffffffffffffffffffffffffffffffffffffffffffffffffffffffff82610d16565b610d5d8683610d16565b95508019841693508086168417925050509392505050565b6000819050919050565b6000610d9a610d95610d9084610753565b610d75565b610753565b9050919050565b6000819050919050565b610db483610d7f565b610dc8610dc082610da1565b848454610d23565b825550505050565b600090565b610ddd610dd0565b610de8818484610dab565b505050565b5b81811015610e0c57610e01600082610dd5565b600181019050610dee565b5050565b601f821115610e5157610e2281610cf1565b610e2b84610d06565b81016020851015610e3a578190505b610e4e610e4685610d06565b830182610ded565b50505b505050565b600082821c905092915050565b6000610e7460001984600802610e56565b1980831691505092915050565b6000610e8d8383610e63565b9150826002028217905092915050565b610ea6826107b6565b67ffffffffffffffff811115610ebf57610ebe610872565b5b610ec98254610c2e565b610ed4828285610e10565b600060209050601f831160018114610f075760008415610ef5578287015190505b610eff8582610e81565b865550610f67565b601f198416610f1586610cf1565b60005b82811015610f3d57848901518255600182019150602085019450602081019050610f18565b86831015610f5a5784890151610f56601f891682610e63565b8355505b6001600288020188555050505b505050505050565b7f4e487b7100000000000000000000000000000000000000000000000000000000600052603260045260246000fd5b7f4e487b7100000000000000000000000000000000000000000000000000000000600052601160045260246000fd5b6000610fd882610753565b9150610fe383610753565b9250828203905081811115610ffb57610ffa610f9e565b5b92915050565b600061100c82610753565b915061101783610753565b925082820190508082111561102f5761102e610f9e565b5b92915050565b60008154905061104481610c2e565b9050919050565b60008190508160005260206000209050919050565b81810361106e575050611146565b61107782611035565b67ffffffffffffffff8111156110905761108f610872565b5b61109a8254610c2e565b6110a5828285610e10565b6000601f8311600181146110d457600084156110c2578287015490505b6110cc8582610e81565b86555061113f565b601f1984166110e28761104b565b96506110ed86610cf1565b60005b82811015611115578489015482556001820191506001850194506020810190506110f0565b86831015611132578489015461112e601f891682610e63565b8355505b6001600288020188555050505b5050505050505b565b600061115382610753565b91507fffffffffffffffffffffffffffffffffffffffffffffffffffffffffffffffff820361118557611184610f9e565b5b600182019050919050565b7f4e487b7100000000000000000000000000000000000000000000000000000000600052603160045260246000fdfea2646970667358221220878dbaaff86ea30785d3b9225b57a388d39945f4886d0dd6715f5c83e796477164736f6c63430008130033","opcodes":"PUSH1 0x80 PUSH1 0x40 MSTORE CALLVALUE DUP1 ISZERO PUSH3 0x11 JUMPI PUSH1 0x0 DUP1 REVERT JUMPDEST POP CALLER PUSH1 0x2 PUSH1 0x0 PUSH2 0x100 EXP DUP2 SLOAD DUP2 PUSH20 0xFFFFFFFFFFFFFFFFFFFFFFFFFFFFFFFFFFFFFFFF MUL NOT AND SWAP1 DUP4 PUSH20 0xFFFFFFFFFFFFFFFFFFFFFFFFFFFFFFFFFFFFFFFF AND MUL OR SWAP1 SSTORE POP PUSH1 0x0 DUP1 PUSH1 0x1 DUP2 SLOAD ADD DUP1 DUP3 SSTORE DUP1 SWAP2 POP POP PUSH1 0x1 SWAP1 SUB SWAP1 PUSH1 0x0 MSTORE PUSH1 0x20 PUSH1 0x0 KECCAK256 ADD PUSH1 0x0 PUSH1 0x40 MLOAD DUP1 PUSH1 0x40 ADD PUSH1 0x40 MSTORE DUP1 PUSH1 0xC DUP2 MSTORE PUSH1 0x20 ADD PUSH32 0x48656C6C6F20576F726C64210000000000000000000000000000000000000000 DUP2 MSTORE POP SWAP1 SWAP2 SWAP1 SWAP2 POP SWAP1 DUP2 PUSH3 0xBB SWAP2 SWAP1 PUSH3 0x38A JUMP JUMPDEST POP CALLER PUSH20 0xFFFFFFFFFFFFFFFFFFFFFFFFFFFFFFFFFFFFFFFF AND PUSH32 0x8DA45D748EEFEFD09CC1491CD32086B6D6A0BD7063D08F05C94DF9EB1404BD80 PUSH1 0x40 MLOAD PUSH3 0x102 SWAP1 PUSH3 0x4D2 JUMP JUMPDEST PUSH1 0x40 MLOAD DUP1 SWAP2 SUB SWAP1 LOG2 PUSH3 0x4F4 JUMP JUMPDEST PUSH1 0x0 DUP2 MLOAD SWAP1 POP SWAP2 SWAP1 POP JUMP JUMPDEST PUSH32 0x4E487B7100000000000000000000000000000000000000000000000000000000 PUSH1 0x0 MSTORE PUSH1 0x41 PUSH1 0x4 MSTORE PUSH1 0x24 PUSH1 0x0 REVERT JUMPDEST PUSH32 0x4E487B7100000000000000000000000000000000000000000000000000000000 PUSH1 0x0 MSTORE PUSH1 0x22 PUSH1 0x4 MSTORE PUSH1 0x24 PUSH1 0x0 REVERT JUMPDEST PUSH1 0x0 PUSH1 0x2 DUP3 DIV SWAP1 POP PUSH1 0x1 DUP3 AND DUP1 PUSH3 0x192 JUMPI PUSH1 0x7F DUP3 AND SWAP2 POP JUMPDEST PUSH1 0x20 DUP3 LT DUP2 SUB PUSH3 0x1A8 JUMPI PUSH3 0x1A7 PUSH3 0x14A JUMP JUMPDEST JUMPDEST POP SWAP2 SWAP1 POP JUMP JUMPDEST PUSH1 0x0 DUP2 SWAP1 POP DUP2 PUSH1 0x0 MSTORE PUSH1 0x20 PUSH1 0x0 KECCAK256 SWAP1 POP SWAP2 SWAP1 POP JUMP JUMPDEST PUSH1 0x0 PUSH1 0x20 PUSH1 0x1F DUP4 ADD DIV SWAP1 POP SWAP2 SWAP1 POP JUMP JUMPDEST PUSH1 0x0 DUP3 DUP3 SHL SWAP1 POP SWAP3 SWAP2 POP POP JUMP JUMPDEST PUSH1 0x0 PUSH1 0x8 DUP4 MUL PUSH3 0x212 PUSH32 0xFFFFFFFFFFFFFFFFFFFFFFFFFFFFFFFFFFFFFFFFFFFFFFFFFFFFFFFFFFFFFFFF DUP3 PUSH3 0x1D3 JUMP JUMPDEST PUSH3 0x21E DUP7 DUP4 PUSH3 0x1D3 JUMP JUMPDEST SWAP6 POP DUP1 NOT DUP5 AND SWAP4 POP DUP1 DUP7 AND DUP5 OR SWAP3 POP POP POP SWAP4 SWAP3 POP POP POP JUMP JUMPDEST PUSH1 0x0 DUP2 SWAP1 POP SWAP2 SWAP1 POP JUMP JUMPDEST PUSH1 0x0 DUP2 SWAP1 POP SWAP2 SWAP1 POP JUMP JUMPDEST PUSH1 0x0 PUSH3 0x26B PUSH3 0x265 PUSH3 0x25F DUP5 PUSH3 0x236 JUMP JUMPDEST PUSH3 0x240 JUMP JUMPDEST PUSH3 0x236 JUMP JUMPDEST SWAP1 POP SWAP2 SWAP1 POP JUMP JUMPDEST PUSH1 0x0 DUP2 SWAP1 POP SWAP2 SWAP1 POP JUMP JUMPDEST PUSH3 0x287 DUP4 PUSH3 0x24A JUMP JUMPDEST PUSH3 0x29F PUSH3 0x296 DUP3 PUSH3 0x272 JUMP JUMPDEST DUP5 DUP5 SLOAD PUSH3 0x1E0 JUMP JUMPDEST DUP3 SSTORE POP POP POP POP JUMP JUMPDEST PUSH1 0x0 SWAP1 JUMP JUMPDEST PUSH3 0x2B6 PUSH3 0x2A7 JUMP JUMPDEST PUSH3 0x2C3 DUP2 DUP5 DUP5 PUSH3 0x27C JUMP JUMPDEST POP POP POP JUMP JUMPDEST JUMPDEST DUP2 DUP2 LT ISZERO PUSH3 0x2EB JUMPI PUSH3 0x2DF PUSH1 0x0 DUP3 PUSH3 0x2AC JUMP JUMPDEST PUSH1 0x1 DUP2 ADD SWAP1 POP PUSH3 0x2C9 JUMP JUMPDEST POP POP JUMP JUMPDEST PUSH1 0x1F DUP3 GT ISZERO PUSH3 0x33A JUMPI PUSH3 0x304 DUP2 PUSH3 0x1AE JUMP JUMPDEST PUSH3 0x30F DUP5 PUSH3 0x1C3 JUMP JUMPDEST DUP2 ADD PUSH1 0x20 DUP6 LT ISZERO PUSH3 0x31F JUMPI DUP2 SWAP1 POP JUMPDEST PUSH3 0x337 PUSH3 0x32E DUP6 PUSH3 0x1C3 JUMP JUMPDEST DUP4 ADD DUP3 PUSH3 0x2C8 JUMP JUMPDEST POP POP JUMPDEST POP POP POP JUMP JUMPDEST PUSH1 0x0 DUP3 DUP3 SHR SWAP1 POP SWAP3 SWAP2 POP POP JUMP JUMPDEST PUSH1 0x0 PUSH3 0x35F PUSH1 0x0 NOT DUP5 PUSH1 0x8 MUL PUSH3 0x33F JUMP JUMPDEST NOT DUP1 DUP4 AND SWAP2 POP POP SWAP3 SWAP2 POP POP JUMP JUMPDEST PUSH1 0x0 PUSH3 0x37A DUP4 DUP4 PUSH3 0x34C JUMP JUMPDEST SWAP2 POP DUP3 PUSH1 0x2 MUL DUP3 OR SWAP1 POP SWAP3 SWAP2 POP POP JUMP JUMPDEST PUSH3 0x395 DUP3 PUSH3 0x110 JUMP JUMPDEST PUSH8 0xFFFFFFFFFFFFFFFF DUP2 GT ISZERO PUSH3 0x3B1 JUMPI PUSH3 0x3B0 PUSH3 0x11B JUMP JUMPDEST JUMPDEST PUSH3 0x3BD DUP3 SLOAD PUSH3 0x179 JUMP JUMPDEST PUSH3 0x3CA DUP3 DUP3 DUP6 PUSH3 0x2EF JUMP JUMPDEST PUSH1 0x0 PUSH1 0x20 SWAP1 POP PUSH1 0x1F DUP4 GT PUSH1 0x1 DUP2 EQ PUSH3 0x402 JUMPI PUSH1 0x0 DUP5 ISZERO PUSH3 0x3ED JUMPI DUP3 DUP8 ADD MLOAD SWAP1 POP JUMPDEST PUSH3 0x3F9 DUP6 DUP3 PUSH3 0x36C JUMP JUMPDEST DUP7 SSTORE POP PUSH3 0x469 JUMP JUMPDEST PUSH1 0x1F NOT DUP5 AND PUSH3 0x412 DUP7 PUSH3 0x1AE JUMP JUMPDEST PUSH1 0x0 JUMPDEST DUP3 DUP2 LT ISZERO PUSH3 0x43C JUMPI DUP5 DUP10 ADD MLOAD DUP3 SSTORE PUSH1 0x1 DUP3 ADD SWAP2 POP PUSH1 0x20 DUP6 ADD SWAP5 POP PUSH1 0x20 DUP2 ADD SWAP1 POP PUSH3 0x415 JUMP JUMPDEST DUP7 DUP4 LT ISZERO PUSH3 0x45C JUMPI DUP5 DUP10 ADD MLOAD PUSH3 0x458 PUSH1 0x1F DUP10 AND DUP3 PUSH3 0x34C JUMP JUMPDEST DUP4 SSTORE POP JUMPDEST PUSH1 0x1 PUSH1 0x2 DUP9 MUL ADD DUP9 SSTORE POP POP POP JUMPDEST POP POP POP POP POP POP JUMP JUMPDEST PUSH1 0x0 DUP3 DUP3 MSTORE PUSH1 0x20 DUP3 ADD SWAP1 POP SWAP3 SWAP2 POP POP JUMP JUMPDEST PUSH32 0x48656C6C6F20576F726C64210000000000000000000000000000000000000000 PUSH1 0x0 DUP3 ADD MSTORE POP JUMP JUMPDEST PUSH1 0x0 PUSH3 0x4BA PUSH1 0xC DUP4 PUSH3 0x471 JUMP JUMPDEST SWAP2 POP PUSH3 0x4C7 DUP3 PUSH3 0x482 JUMP JUMPDEST PUSH1 0x20 DUP3 ADD SWAP1 POP SWAP2 SWAP1 POP JUMP JUMPDEST PUSH1 0x0 PUSH1 0x20 DUP3 ADD SWAP1 POP DUP2 DUP2 SUB PUSH1 0x0 DUP4 ADD MSTORE PUSH3 0x4ED DUP2 PUSH3 0x4AB JUMP JUMPDEST SWAP1 POP SWAP2 SWAP1 POP JUMP JUMPDEST PUSH2 0x11F5 DUP1 PUSH3 0x504 PUSH1 0x0 CODECOPY PUSH1 0x0 RETURN INVALID PUSH1 0x80 PUSH1 0x40 MSTORE PUSH1 0x4 CALLDATASIZE LT PUSH2 0x70 JUMPI PUSH1 0x0 CALLDATALOAD PUSH1 0xE0 SHR DUP1 PUSH4 0x5FF6CBF3 GT PUSH2 0x4E JUMPI DUP1 PUSH4 0x5FF6CBF3 EQ PUSH2 0x10B JUMPI DUP1 PUSH4 0x7062B97D EQ PUSH2 0x136 JUMPI DUP1 PUSH4 0x86F79EDB EQ PUSH2 0x161 JUMPI DUP1 PUSH4 0xB888690A EQ PUSH2 0x19E JUMPI PUSH2 0x70 JUMP JUMPDEST DUP1 PUSH4 0xD80FEFD EQ PUSH2 0x75 JUMPI DUP1 PUSH4 0x368B8772 EQ PUSH2 0xB2 JUMPI DUP1 PUSH4 0x4209FFF1 EQ PUSH2 0xCE JUMPI JUMPDEST PUSH1 0x0 DUP1 REVERT JUMPDEST CALLVALUE DUP1 ISZERO PUSH2 0x81 JUMPI PUSH1 0x0 DUP1 REVERT JUMPDEST POP PUSH2 0x9C PUSH1 0x4 DUP1 CALLDATASIZE SUB DUP2 ADD SWAP1 PUSH2 0x97 SWAP2 SWAP1 PUSH2 0x789 JUMP JUMPDEST PUSH2 0x1C7 JUMP JUMPDEST PUSH1 0x40 MLOAD PUSH2 0xA9 SWAP2 SWAP1 PUSH2 0x846 JUMP JUMPDEST PUSH1 0x40 MLOAD DUP1 SWAP2 SUB SWAP1 RETURN JUMPDEST PUSH2 0xCC PUSH1 0x4 DUP1 CALLDATASIZE SUB DUP2 ADD SWAP1 PUSH2 0xC7 SWAP2 SWAP1 PUSH2 0x99D JUMP JUMPDEST PUSH2 0x273 JUMP JUMPDEST STOP JUMPDEST CALLVALUE DUP1 ISZERO PUSH2 0xDA JUMPI PUSH1 0x0 DUP1 REVERT JUMPDEST POP PUSH2 0xF5 PUSH1 0x4 DUP1 CALLDATASIZE SUB DUP2 ADD SWAP1 PUSH2 0xF0 SWAP2 SWAP1 PUSH2 0xA44 JUMP JUMPDEST PUSH2 0x3F1 JUMP JUMPDEST PUSH1 0x40 MLOAD PUSH2 0x102 SWAP2 SWAP1 PUSH2 0xA8C JUMP JUMPDEST PUSH1 0x40 MLOAD DUP1 SWAP2 SUB SWAP1 RETURN JUMPDEST CALLVALUE DUP1 ISZERO PUSH2 0x117 JUMPI PUSH1 0x0 DUP1 REVERT JUMPDEST POP PUSH2 0x120 PUSH2 0x411 JUMP JUMPDEST PUSH1 0x40 MLOAD PUSH2 0x12D SWAP2 SWAP1 PUSH2 0xBB3 JUMP JUMPDEST PUSH1 0x40 MLOAD DUP1 SWAP2 SUB SWAP1 RETURN JUMPDEST CALLVALUE DUP1 ISZERO PUSH2 0x142 JUMPI PUSH1 0x0 DUP1 REVERT JUMPDEST POP PUSH2 0x14B PUSH2 0x4EA JUMP JUMPDEST PUSH1 0x40 MLOAD PUSH2 0x158 SWAP2 SWAP1 PUSH2 0xBE4 JUMP JUMPDEST PUSH1 0x40 MLOAD DUP1 SWAP2 SUB SWAP1 RETURN JUMPDEST CALLVALUE DUP1 ISZERO PUSH2 0x16D JUMPI PUSH1 0x0 DUP1 REVERT JUMPDEST POP PUSH2 0x188 PUSH1 0x4 DUP1 CALLDATASIZE SUB DUP2 ADD SWAP1 PUSH2 0x183 SWAP2 SWAP1 PUSH2 0x789 JUMP JUMPDEST PUSH2 0x510 JUMP JUMPDEST PUSH1 0x40 MLOAD PUSH2 0x195 SWAP2 SWAP1 PUSH2 0x846 JUMP JUMPDEST PUSH1 0x40 MLOAD DUP1 SWAP2 SUB SWAP1 RETURN JUMPDEST CALLVALUE DUP1 ISZERO PUSH2 0x1AA JUMPI PUSH1 0x0 DUP1 REVERT JUMPDEST POP PUSH2 0x1C5 PUSH1 0x4 DUP1 CALLDATASIZE SUB DUP2 ADD SWAP1 PUSH2 0x1C0 SWAP2 SWAP1 PUSH2 0x789 JUMP JUMPDEST PUSH2 0x5C0 JUMP JUMPDEST STOP JUMPDEST PUSH1 0x0 DUP2 DUP2 SLOAD DUP2 LT PUSH2 0x1D7 JUMPI PUSH1 0x0 DUP1 REVERT JUMPDEST SWAP1 PUSH1 0x0 MSTORE PUSH1 0x20 PUSH1 0x0 KECCAK256 ADD PUSH1 0x0 SWAP2 POP SWAP1 POP DUP1 SLOAD PUSH2 0x1F2 SWAP1 PUSH2 0xC2E JUMP JUMPDEST DUP1 PUSH1 0x1F ADD PUSH1 0x20 DUP1 SWAP2 DIV MUL PUSH1 0x20 ADD PUSH1 0x40 MLOAD SWAP1 DUP2 ADD PUSH1 0x40 MSTORE DUP1 SWAP3 SWAP2 SWAP1 DUP2 DUP2 MSTORE PUSH1 0x20 ADD DUP3 DUP1 SLOAD PUSH2 0x21E SWAP1 PUSH2 0xC2E JUMP JUMPDEST DUP1 ISZERO PUSH2 0x26B JUMPI DUP1 PUSH1 0x1F LT PUSH2 0x240 JUMPI PUSH2 0x100 DUP1 DUP4 SLOAD DIV MUL DUP4 MSTORE SWAP2 PUSH1 0x20 ADD SWAP2 PUSH2 0x26B JUMP JUMPDEST DUP3 ADD SWAP2 SWAP1 PUSH1 0x0 MSTORE PUSH1 0x20 PUSH1 0x0 KECCAK256 SWAP1 JUMPDEST DUP2 SLOAD DUP2 MSTORE SWAP1 PUSH1 0x1 ADD SWAP1 PUSH1 0x20 ADD DUP1 DUP4 GT PUSH2 0x24E JUMPI DUP3 SWAP1 SUB PUSH1 0x1F AND DUP3 ADD SWAP2 JUMPDEST POP POP POP POP POP DUP2 JUMP JUMPDEST PUSH1 0x1 PUSH1 0x0 CALLER PUSH20 0xFFFFFFFFFFFFFFFFFFFFFFFFFFFFFFFFFFFFFFFF AND PUSH20 0xFFFFFFFFFFFFFFFFFFFFFFFFFFFFFFFFFFFFFFFF AND DUP2 MSTORE PUSH1 0x20 ADD SWAP1 DUP2 MSTORE PUSH1 0x20 ADD PUSH1 0x0 KECCAK256 PUSH1 0x0 SWAP1 SLOAD SWAP1 PUSH2 0x100 EXP SWAP1 DIV PUSH1 0xFF AND ISZERO PUSH2 0x313 JUMPI PUSH7 0x38D7EA4C68000 CALLVALUE EQ PUSH2 0x30E JUMPI PUSH1 0x40 MLOAD PUSH32 0x8C379A000000000000000000000000000000000000000000000000000000000 DUP2 MSTORE PUSH1 0x4 ADD PUSH2 0x305 SWAP1 PUSH2 0xCD1 JUMP JUMPDEST PUSH1 0x40 MLOAD DUP1 SWAP2 SUB SWAP1 REVERT JUMPDEST PUSH2 0x36B JUMP JUMPDEST PUSH1 0x1 DUP1 PUSH1 0x0 CALLER PUSH20 0xFFFFFFFFFFFFFFFFFFFFFFFFFFFFFFFFFFFFFFFF AND PUSH20 0xFFFFFFFFFFFFFFFFFFFFFFFFFFFFFFFFFFFFFFFF AND DUP2 MSTORE PUSH1 0x20 ADD SWAP1 DUP2 MSTORE PUSH1 0x20 ADD PUSH1 0x0 KECCAK256 PUSH1 0x0 PUSH2 0x100 EXP DUP2 SLOAD DUP2 PUSH1 0xFF MUL NOT AND SWAP1 DUP4 ISZERO ISZERO MUL OR SWAP1 SSTORE POP JUMPDEST PUSH1 0x0 DUP2 SWAP1 DUP1 PUSH1 0x1 DUP2 SLOAD ADD DUP1 DUP3 SSTORE DUP1 SWAP2 POP POP PUSH1 0x1 SWAP1 SUB SWAP1 PUSH1 0x0 MSTORE PUSH1 0x20 PUSH1 0x0 KECCAK256 ADD PUSH1 0x0 SWAP1 SWAP2 SWAP1 SWAP2 SWAP1 SWAP2 POP SWAP1 DUP2 PUSH2 0x39F SWAP2 SWAP1 PUSH2 0xE9D JUMP JUMPDEST POP CALLER PUSH20 0xFFFFFFFFFFFFFFFFFFFFFFFFFFFFFFFFFFFFFFFF AND PUSH32 0x8DA45D748EEFEFD09CC1491CD32086B6D6A0BD7063D08F05C94DF9EB1404BD80 DUP3 PUSH1 0x40 MLOAD PUSH2 0x3E6 SWAP2 SWAP1 PUSH2 0x846 JUMP JUMPDEST PUSH1 0x40 MLOAD DUP1 SWAP2 SUB SWAP1 LOG2 POP JUMP JUMPDEST PUSH1 0x1 PUSH1 0x20 MSTORE DUP1 PUSH1 0x0 MSTORE PUSH1 0x40 PUSH1 0x0 KECCAK256 PUSH1 0x0 SWAP2 POP SLOAD SWAP1 PUSH2 0x100 EXP SWAP1 DIV PUSH1 0xFF AND DUP2 JUMP JUMPDEST PUSH1 0x60 PUSH1 0x0 DUP1 SLOAD DUP1 PUSH1 0x20 MUL PUSH1 0x20 ADD PUSH1 0x40 MLOAD SWAP1 DUP2 ADD PUSH1 0x40 MSTORE DUP1 SWAP3 SWAP2 SWAP1 DUP2 DUP2 MSTORE PUSH1 0x20 ADD PUSH1 0x0 SWAP1 JUMPDEST DUP3 DUP3 LT ISZERO PUSH2 0x4E1 JUMPI DUP4 DUP3 SWAP1 PUSH1 0x0 MSTORE PUSH1 0x20 PUSH1 0x0 KECCAK256 ADD DUP1 SLOAD PUSH2 0x454 SWAP1 PUSH2 0xC2E JUMP JUMPDEST DUP1 PUSH1 0x1F ADD PUSH1 0x20 DUP1 SWAP2 DIV MUL PUSH1 0x20 ADD PUSH1 0x40 MLOAD SWAP1 DUP2 ADD PUSH1 0x40 MSTORE DUP1 SWAP3 SWAP2 SWAP1 DUP2 DUP2 MSTORE PUSH1 0x20 ADD DUP3 DUP1 SLOAD PUSH2 0x480 SWAP1 PUSH2 0xC2E JUMP JUMPDEST DUP1 ISZERO PUSH2 0x4CD JUMPI DUP1 PUSH1 0x1F LT PUSH2 0x4A2 JUMPI PUSH2 0x100 DUP1 DUP4 SLOAD DIV MUL DUP4 MSTORE SWAP2 PUSH1 0x20 ADD SWAP2 PUSH2 0x4CD JUMP JUMPDEST DUP3 ADD SWAP2 SWAP1 PUSH1 0x0 MSTORE PUSH1 0x20 PUSH1 0x0 KECCAK256 SWAP1 JUMPDEST DUP2 SLOAD DUP2 MSTORE SWAP1 PUSH1 0x1 ADD SWAP1 PUSH1 0x20 ADD DUP1 DUP4 GT PUSH2 0x4B0 JUMPI DUP3 SWAP1 SUB PUSH1 0x1F AND DUP3 ADD SWAP2 JUMPDEST POP POP POP POP POP DUP2 MSTORE PUSH1 0x20 ADD SWAP1 PUSH1 0x1 ADD SWAP1 PUSH2 0x435 JUMP JUMPDEST POP POP POP POP SWAP1 POP SWAP1 JUMP JUMPDEST PUSH1 0x2 PUSH1 0x0 SWAP1 SLOAD SWAP1 PUSH2 0x100 EXP SWAP1 DIV PUSH20 0xFFFFFFFFFFFFFFFFFFFFFFFFFFFFFFFFFFFFFFFF AND DUP2 JUMP JUMPDEST PUSH1 0x60 PUSH1 0x0 DUP3 DUP2 SLOAD DUP2 LT PUSH2 0x526 JUMPI PUSH2 0x525 PUSH2 0xF6F JUMP JUMPDEST JUMPDEST SWAP1 PUSH1 0x0 MSTORE PUSH1 0x20 PUSH1 0x0 KECCAK256 ADD DUP1 SLOAD PUSH2 0x53B SWAP1 PUSH2 0xC2E JUMP JUMPDEST DUP1 PUSH1 0x1F ADD PUSH1 0x20 DUP1 SWAP2 DIV MUL PUSH1 0x20 ADD PUSH1 0x40 MLOAD SWAP1 DUP2 ADD PUSH1 0x40 MSTORE DUP1 SWAP3 SWAP2 SWAP1 DUP2 DUP2 MSTORE PUSH1 0x20 ADD DUP3 DUP1 SLOAD PUSH2 0x567 SWAP1 PUSH2 0xC2E JUMP JUMPDEST DUP1 ISZERO PUSH2 0x5B4 JUMPI DUP1 PUSH1 0x1F LT PUSH2 0x589 JUMPI PUSH2 0x100 DUP1 DUP4 SLOAD DIV MUL DUP4 MSTORE SWAP2 PUSH1 0x20 ADD SWAP2 PUSH2 0x5B4 JUMP JUMPDEST DUP3 ADD SWAP2 SWAP1 PUSH1 0x0 MSTORE PUSH1 0x20 PUSH1 0x0 KECCAK256 SWAP1 JUMPDEST DUP2 SLOAD DUP2 MSTORE SWAP1 PUSH1 0x1 ADD SWAP1 PUSH1 0x20 ADD DUP1 DUP4 GT PUSH2 0x597 JUMPI DUP3 SWAP1 SUB PUSH1 0x1F AND DUP3 ADD SWAP2 JUMPDEST POP POP POP POP POP SWAP1 POP SWAP2 SWAP1 POP JUMP JUMPDEST PUSH1 0x2 PUSH1 0x0 SWAP1 SLOAD SWAP1 PUSH2 0x100 EXP SWAP1 DIV PUSH20 0xFFFFFFFFFFFFFFFFFFFFFFFFFFFFFFFFFFFFFFFF AND PUSH20 0xFFFFFFFFFFFFFFFFFFFFFFFFFFFFFFFFFFFFFFFF AND CALLER PUSH20 0xFFFFFFFFFFFFFFFFFFFFFFFFFFFFFFFFFFFFFFFF AND EQ DUP1 ISZERO PUSH2 0x621 JUMPI POP PUSH1 0x0 DUP1 SLOAD SWAP1 POP DUP2 LT JUMPDEST ISZERO PUSH2 0x6DF JUMPI PUSH1 0x0 DUP2 SWAP1 POP JUMPDEST PUSH1 0x1 PUSH1 0x0 DUP1 SLOAD SWAP1 POP PUSH2 0x63E SWAP2 SWAP1 PUSH2 0xFCD JUMP JUMPDEST DUP2 LT ISZERO PUSH2 0x6AD JUMPI PUSH1 0x0 PUSH1 0x1 DUP3 PUSH2 0x654 SWAP2 SWAP1 PUSH2 0x1001 JUMP JUMPDEST DUP2 SLOAD DUP2 LT PUSH2 0x665 JUMPI PUSH2 0x664 PUSH2 0xF6F JUMP JUMPDEST JUMPDEST SWAP1 PUSH1 0x0 MSTORE PUSH1 0x20 PUSH1 0x0 KECCAK256 ADD PUSH1 0x0 DUP3 DUP2 SLOAD DUP2 LT PUSH2 0x683 JUMPI PUSH2 0x682 PUSH2 0xF6F JUMP JUMPDEST JUMPDEST SWAP1 PUSH1 0x0 MSTORE PUSH1 0x20 PUSH1 0x0 KECCAK256 ADD SWAP1 DUP2 PUSH2 0x699 SWAP2 SWAP1 PUSH2 0x1060 JUMP JUMPDEST POP DUP1 DUP1 PUSH2 0x6A5 SWAP1 PUSH2 0x1148 JUMP JUMPDEST SWAP2 POP POP PUSH2 0x62C JUMP JUMPDEST POP PUSH1 0x0 DUP1 SLOAD DUP1 PUSH2 0x6C0 JUMPI PUSH2 0x6BF PUSH2 0x1190 JUMP JUMPDEST JUMPDEST PUSH1 0x1 SWAP1 SUB DUP2 DUP2 SWAP1 PUSH1 0x0 MSTORE PUSH1 0x20 PUSH1 0x0 KECCAK256 ADD PUSH1 0x0 PUSH2 0x6DC SWAP2 SWAP1 PUSH2 0x6E2 JUMP JUMPDEST SWAP1 SSTORE JUMPDEST POP JUMP JUMPDEST POP DUP1 SLOAD PUSH2 0x6EE SWAP1 PUSH2 0xC2E JUMP JUMPDEST PUSH1 0x0 DUP3 SSTORE DUP1 PUSH1 0x1F LT PUSH2 0x700 JUMPI POP PUSH2 0x71F JUMP JUMPDEST PUSH1 0x1F ADD PUSH1 0x20 SWAP1 DIV SWAP1 PUSH1 0x0 MSTORE PUSH1 0x20 PUSH1 0x0 KECCAK256 SWAP1 DUP2 ADD SWAP1 PUSH2 0x71E SWAP2 SWAP1 PUSH2 0x722 JUMP JUMPDEST JUMPDEST POP JUMP JUMPDEST JUMPDEST DUP1 DUP3 GT ISZERO PUSH2 0x73B JUMPI PUSH1 0x0 DUP2 PUSH1 0x0 SWAP1 SSTORE POP PUSH1 0x1 ADD PUSH2 0x723 JUMP JUMPDEST POP SWAP1 JUMP JUMPDEST PUSH1 0x0 PUSH1 0x40 MLOAD SWAP1 POP SWAP1 JUMP JUMPDEST PUSH1 0x0 DUP1 REVERT JUMPDEST PUSH1 0x0 DUP1 REVERT JUMPDEST PUSH1 0x0 DUP2 SWAP1 POP SWAP2 SWAP1 POP JUMP JUMPDEST PUSH2 0x766 DUP2 PUSH2 0x753 JUMP JUMPDEST DUP2 EQ PUSH2 0x771 JUMPI PUSH1 0x0 DUP1 REVERT JUMPDEST POP JUMP JUMPDEST PUSH1 0x0 DUP2 CALLDATALOAD SWAP1 POP PUSH2 0x783 DUP2 PUSH2 0x75D JUMP JUMPDEST SWAP3 SWAP2 POP POP JUMP JUMPDEST PUSH1 0x0 PUSH1 0x20 DUP3 DUP5 SUB SLT ISZERO PUSH2 0x79F JUMPI PUSH2 0x79E PUSH2 0x749 JUMP JUMPDEST JUMPDEST PUSH1 0x0 PUSH2 0x7AD DUP5 DUP3 DUP6 ADD PUSH2 0x774 JUMP JUMPDEST SWAP2 POP POP SWAP3 SWAP2 POP POP JUMP JUMPDEST PUSH1 0x0 DUP2 MLOAD SWAP1 POP SWAP2 SWAP1 POP JUMP JUMPDEST PUSH1 0x0 DUP3 DUP3 MSTORE PUSH1 0x20 DUP3 ADD SWAP1 POP SWAP3 SWAP2 POP POP JUMP JUMPDEST PUSH1 0x0 JUMPDEST DUP4 DUP2 LT ISZERO PUSH2 0x7F0 JUMPI DUP1 DUP3 ADD MLOAD DUP2 DUP5 ADD MSTORE PUSH1 0x20 DUP2 ADD SWAP1 POP PUSH2 0x7D5 JUMP JUMPDEST PUSH1 0x0 DUP5 DUP5 ADD MSTORE POP POP POP POP JUMP JUMPDEST PUSH1 0x0 PUSH1 0x1F NOT PUSH1 0x1F DUP4 ADD AND SWAP1 POP SWAP2 SWAP1 POP JUMP JUMPDEST PUSH1 0x0 PUSH2 0x818 DUP3 PUSH2 0x7B6 JUMP JUMPDEST PUSH2 0x822 DUP2 DUP6 PUSH2 0x7C1 JUMP JUMPDEST SWAP4 POP PUSH2 0x832 DUP2 DUP6 PUSH1 0x20 DUP7 ADD PUSH2 0x7D2 JUMP JUMPDEST PUSH2 0x83B DUP2 PUSH2 0x7FC JUMP JUMPDEST DUP5 ADD SWAP2 POP POP SWAP3 SWAP2 POP POP JUMP JUMPDEST PUSH1 0x0 PUSH1 0x20 DUP3 ADD SWAP1 POP DUP2 DUP2 SUB PUSH1 0x0 DUP4 ADD MSTORE PUSH2 0x860 DUP2 DUP5 PUSH2 0x80D JUMP JUMPDEST SWAP1 POP SWAP3 SWAP2 POP POP JUMP JUMPDEST PUSH1 0x0 DUP1 REVERT JUMPDEST PUSH1 0x0 DUP1 REVERT JUMPDEST PUSH32 0x4E487B7100000000000000000000000000000000000000000000000000000000 PUSH1 0x0 MSTORE PUSH1 0x41 PUSH1 0x4 MSTORE PUSH1 0x24 PUSH1 0x0 REVERT JUMPDEST PUSH2 0x8AA DUP3 PUSH2 0x7FC JUMP JUMPDEST DUP2 ADD DUP2 DUP2 LT PUSH8 0xFFFFFFFFFFFFFFFF DUP3 GT OR ISZERO PUSH2 0x8C9 JUMPI PUSH2 0x8C8 PUSH2 0x872 JUMP JUMPDEST JUMPDEST DUP1 PUSH1 0x40 MSTORE POP POP POP JUMP JUMPDEST PUSH1 0x0 PUSH2 0x8DC PUSH2 0x73F JUMP JUMPDEST SWAP1 POP PUSH2 0x8E8 DUP3 DUP3 PUSH2 0x8A1 JUMP JUMPDEST SWAP2 SWAP1 POP JUMP JUMPDEST PUSH1 0x0 PUSH8 0xFFFFFFFFFFFFFFFF DUP3 GT ISZERO PUSH2 0x908 JUMPI PUSH2 0x907 PUSH2 0x872 JUMP JUMPDEST JUMPDEST PUSH2 0x911 DUP3 PUSH2 0x7FC JUMP JUMPDEST SWAP1 POP PUSH1 0x20 DUP2 ADD SWAP1 POP SWAP2 SWAP1 POP JUMP JUMPDEST DUP3 DUP2 DUP4 CALLDATACOPY PUSH1 0x0 DUP4 DUP4 ADD MSTORE POP POP POP JUMP JUMPDEST PUSH1 0x0 PUSH2 0x940 PUSH2 0x93B DUP5 PUSH2 0x8ED JUMP JUMPDEST PUSH2 0x8D2 JUMP JUMPDEST SWAP1 POP DUP3 DUP2 MSTORE PUSH1 0x20 DUP2 ADD DUP5 DUP5 DUP5 ADD GT ISZERO PUSH2 0x95C JUMPI PUSH2 0x95B PUSH2 0x86D JUMP JUMPDEST JUMPDEST PUSH2 0x967 DUP5 DUP3 DUP6 PUSH2 0x91E JUMP JUMPDEST POP SWAP4 SWAP3 POP POP POP JUMP JUMPDEST PUSH1 0x0 DUP3 PUSH1 0x1F DUP4 ADD SLT PUSH2 0x984 JUMPI PUSH2 0x983 PUSH2 0x868 JUMP JUMPDEST JUMPDEST DUP2 CALLDATALOAD PUSH2 0x994 DUP5 DUP3 PUSH1 0x20 DUP7 ADD PUSH2 0x92D JUMP JUMPDEST SWAP2 POP POP SWAP3 SWAP2 POP POP JUMP JUMPDEST PUSH1 0x0 PUSH1 0x20 DUP3 DUP5 SUB SLT ISZERO PUSH2 0x9B3 JUMPI PUSH2 0x9B2 PUSH2 0x749 JUMP JUMPDEST JUMPDEST PUSH1 0x0 DUP3 ADD CALLDATALOAD PUSH8 0xFFFFFFFFFFFFFFFF DUP2 GT ISZERO PUSH2 0x9D1 JUMPI PUSH2 0x9D0 PUSH2 0x74E JUMP JUMPDEST JUMPDEST PUSH2 0x9DD DUP5 DUP3 DUP6 ADD PUSH2 0x96F JUMP JUMPDEST SWAP2 POP POP SWAP3 SWAP2 POP POP JUMP JUMPDEST PUSH1 0x0 PUSH20 0xFFFFFFFFFFFFFFFFFFFFFFFFFFFFFFFFFFFFFFFF DUP3 AND SWAP1 POP SWAP2 SWAP1 POP JUMP JUMPDEST PUSH1 0x0 PUSH2 0xA11 DUP3 PUSH2 0x9E6 JUMP JUMPDEST SWAP1 POP SWAP2 SWAP1 POP JUMP JUMPDEST PUSH2 0xA21 DUP2 PUSH2 0xA06 JUMP JUMPDEST DUP2 EQ PUSH2 0xA2C JUMPI PUSH1 0x0 DUP1 REVERT JUMPDEST POP JUMP JUMPDEST PUSH1 0x0 DUP2 CALLDATALOAD SWAP1 POP PUSH2 0xA3E DUP2 PUSH2 0xA18 JUMP JUMPDEST SWAP3 SWAP2 POP POP JUMP JUMPDEST PUSH1 0x0 PUSH1 0x20 DUP3 DUP5 SUB SLT ISZERO PUSH2 0xA5A JUMPI PUSH2 0xA59 PUSH2 0x749 JUMP JUMPDEST JUMPDEST PUSH1 0x0 PUSH2 0xA68 DUP5 DUP3 DUP6 ADD PUSH2 0xA2F JUMP JUMPDEST SWAP2 POP POP SWAP3 SWAP2 POP POP JUMP JUMPDEST PUSH1 0x0 DUP2 ISZERO ISZERO SWAP1 POP SWAP2 SWAP1 POP JUMP JUMPDEST PUSH2 0xA86 DUP2 PUSH2 0xA71 JUMP JUMPDEST DUP3 MSTORE POP POP JUMP JUMPDEST PUSH1 0x0 PUSH1 0x20 DUP3 ADD SWAP1 POP PUSH2 0xAA1 PUSH1 0x0 DUP4 ADD DUP5 PUSH2 0xA7D JUMP JUMPDEST SWAP3 SWAP2 POP POP JUMP JUMPDEST PUSH1 0x0 DUP2 MLOAD SWAP1 POP SWAP2 SWAP1 POP JUMP JUMPDEST PUSH1 0x0 DUP3 DUP3 MSTORE PUSH1 0x20 DUP3 ADD SWAP1 POP SWAP3 SWAP2 POP POP JUMP JUMPDEST PUSH1 0x0 DUP2 SWAP1 POP PUSH1 0x20 DUP3 ADD SWAP1 POP SWAP2 SWAP1 POP JUMP JUMPDEST PUSH1 0x0 DUP3 DUP3 MSTORE PUSH1 0x20 DUP3 ADD SWAP1 POP SWAP3 SWAP2 POP POP JUMP JUMPDEST PUSH1 0x0 PUSH2 0xAEF DUP3 PUSH2 0x7B6 JUMP JUMPDEST PUSH2 0xAF9 DUP2 DUP6 PUSH2 0xAD3 JUMP JUMPDEST SWAP4 POP PUSH2 0xB09 DUP2 DUP6 PUSH1 0x20 DUP7 ADD PUSH2 0x7D2 JUMP JUMPDEST PUSH2 0xB12 DUP2 PUSH2 0x7FC JUMP JUMPDEST DUP5 ADD SWAP2 POP POP SWAP3 SWAP2 POP POP JUMP JUMPDEST PUSH1 0x0 PUSH2 0xB29 DUP4 DUP4 PUSH2 0xAE4 JUMP JUMPDEST SWAP1 POP SWAP3 SWAP2 POP POP JUMP JUMPDEST PUSH1 0x0 PUSH1 0x20 DUP3 ADD SWAP1 POP SWAP2 SWAP1 POP JUMP JUMPDEST PUSH1 0x0 PUSH2 0xB49 DUP3 PUSH2 0xAA7 JUMP JUMPDEST PUSH2 0xB53 DUP2 DUP6 PUSH2 0xAB2 JUMP JUMPDEST SWAP4 POP DUP4 PUSH1 0x20 DUP3 MUL DUP6 ADD PUSH2 0xB65 DUP6 PUSH2 0xAC3 JUMP JUMPDEST DUP1 PUSH1 0x0 JUMPDEST DUP6 DUP2 LT ISZERO PUSH2 0xBA1 JUMPI DUP5 DUP5 SUB DUP10 MSTORE DUP2 MLOAD PUSH2 0xB82 DUP6 DUP3 PUSH2 0xB1D JUMP JUMPDEST SWAP5 POP PUSH2 0xB8D DUP4 PUSH2 0xB31 JUMP JUMPDEST SWAP3 POP PUSH1 0x20 DUP11 ADD SWAP10 POP POP PUSH1 0x1 DUP2 ADD SWAP1 POP PUSH2 0xB69 JUMP JUMPDEST POP DUP3 SWAP8 POP DUP8 SWAP6 POP POP POP POP POP POP SWAP3 SWAP2 POP POP JUMP JUMPDEST PUSH1 0x0 PUSH1 0x20 DUP3 ADD SWAP1 POP DUP2 DUP2 SUB PUSH1 0x0 DUP4 ADD MSTORE PUSH2 0xBCD DUP2 DUP5 PUSH2 0xB3E JUMP JUMPDEST SWAP1 POP SWAP3 SWAP2 POP POP JUMP JUMPDEST PUSH2 0xBDE DUP2 PUSH2 0xA06 JUMP JUMPDEST DUP3 MSTORE POP POP JUMP JUMPDEST PUSH1 0x0 PUSH1 0x20 DUP3 ADD SWAP1 POP PUSH2 0xBF9 PUSH1 0x0 DUP4 ADD DUP5 PUSH2 0xBD5 JUMP JUMPDEST SWAP3 SWAP2 POP POP JUMP JUMPDEST PUSH32 0x4E487B7100000000000000000000000000000000000000000000000000000000 PUSH1 0x0 MSTORE PUSH1 0x22 PUSH1 0x4 MSTORE PUSH1 0x24 PUSH1 0x0 REVERT JUMPDEST PUSH1 0x0 PUSH1 0x2 DUP3 DIV SWAP1 POP PUSH1 0x1 DUP3 AND DUP1 PUSH2 0xC46 JUMPI PUSH1 0x7F DUP3 AND SWAP2 POP JUMPDEST PUSH1 0x20 DUP3 LT DUP2 SUB PUSH2 0xC59 JUMPI PUSH2 0xC58 PUSH2 0xBFF JUMP JUMPDEST JUMPDEST POP SWAP2 SWAP1 POP JUMP JUMPDEST PUSH32 0x616464696E672061206E6577206D657373616765732072657175697265732030 PUSH1 0x0 DUP3 ADD MSTORE PUSH32 0x2E30303120657468657273000000000000000000000000000000000000000000 PUSH1 0x20 DUP3 ADD MSTORE POP JUMP JUMPDEST PUSH1 0x0 PUSH2 0xCBB PUSH1 0x2B DUP4 PUSH2 0x7C1 JUMP JUMPDEST SWAP2 POP PUSH2 0xCC6 DUP3 PUSH2 0xC5F JUMP JUMPDEST PUSH1 0x40 DUP3 ADD SWAP1 POP SWAP2 SWAP1 POP JUMP JUMPDEST PUSH1 0x0 PUSH1 0x20 DUP3 ADD SWAP1 POP DUP2 DUP2 SUB PUSH1 0x0 DUP4 ADD MSTORE PUSH2 0xCEA DUP2 PUSH2 0xCAE JUMP JUMPDEST SWAP1 POP SWAP2 SWAP1 POP JUMP JUMPDEST PUSH1 0x0 DUP2 SWAP1 POP DUP2 PUSH1 0x0 MSTORE PUSH1 0x20 PUSH1 0x0 KECCAK256 SWAP1 POP SWAP2 SWAP1 POP JUMP JUMPDEST PUSH1 0x0 PUSH1 0x20 PUSH1 0x1F DUP4 ADD DIV SWAP1 POP SWAP2 SWAP1 POP JUMP JUMPDEST PUSH1 0x0 DUP3 DUP3 SHL SWAP1 POP SWAP3 SWAP2 POP POP JUMP JUMPDEST PUSH1 0x0 PUSH1 0x8 DUP4 MUL PUSH2 0xD53 PUSH32 0xFFFFFFFFFFFFFFFFFFFFFFFFFFFFFFFFFFFFFFFFFFFFFFFFFFFFFFFFFFFFFFFF DUP3 PUSH2 0xD16 JUMP JUMPDEST PUSH2 0xD5D DUP7 DUP4 PUSH2 0xD16 JUMP JUMPDEST SWAP6 POP DUP1 NOT DUP5 AND SWAP4 POP DUP1 DUP7 AND DUP5 OR SWAP3 POP POP POP SWAP4 SWAP3 POP POP POP JUMP JUMPDEST PUSH1 0x0 DUP2 SWAP1 POP SWAP2 SWAP1 POP JUMP JUMPDEST PUSH1 0x0 PUSH2 0xD9A PUSH2 0xD95 PUSH2 0xD90 DUP5 PUSH2 0x753 JUMP JUMPDEST PUSH2 0xD75 JUMP JUMPDEST PUSH2 0x753 JUMP JUMPDEST SWAP1 POP SWAP2 SWAP1 POP JUMP JUMPDEST PUSH1 0x0 DUP2 SWAP1 POP SWAP2 SWAP1 POP JUMP JUMPDEST PUSH2 0xDB4 DUP4 PUSH2 0xD7F JUMP JUMPDEST PUSH2 0xDC8 PUSH2 0xDC0 DUP3 PUSH2 0xDA1 JUMP JUMPDEST DUP5 DUP5 SLOAD PUSH2 0xD23 JUMP JUMPDEST DUP3 SSTORE POP POP POP POP JUMP JUMPDEST PUSH1 0x0 SWAP1 JUMP JUMPDEST PUSH2 0xDDD PUSH2 0xDD0 JUMP JUMPDEST PUSH2 0xDE8 DUP2 DUP5 DUP5 PUSH2 0xDAB JUMP JUMPDEST POP POP POP JUMP JUMPDEST JUMPDEST DUP2 DUP2 LT ISZERO PUSH2 0xE0C JUMPI PUSH2 0xE01 PUSH1 0x0 DUP3 PUSH2 0xDD5 JUMP JUMPDEST PUSH1 0x1 DUP2 ADD SWAP1 POP PUSH2 0xDEE JUMP JUMPDEST POP POP JUMP JUMPDEST PUSH1 0x1F DUP3 GT ISZERO PUSH2 0xE51 JUMPI PUSH2 0xE22 DUP2 PUSH2 0xCF1 JUMP JUMPDEST PUSH2 0xE2B DUP5 PUSH2 0xD06 JUMP JUMPDEST DUP2 ADD PUSH1 0x20 DUP6 LT ISZERO PUSH2 0xE3A JUMPI DUP2 SWAP1 POP JUMPDEST PUSH2 0xE4E PUSH2 0xE46 DUP6 PUSH2 0xD06 JUMP JUMPDEST DUP4 ADD DUP3 PUSH2 0xDED JUMP JUMPDEST POP POP JUMPDEST POP POP POP JUMP JUMPDEST PUSH1 0x0 DUP3 DUP3 SHR SWAP1 POP SWAP3 SWAP2 POP POP JUMP JUMPDEST PUSH1 0x0 PUSH2 0xE74 PUSH1 0x0 NOT DUP5 PUSH1 0x8 MUL PUSH2 0xE56 JUMP JUMPDEST NOT DUP1 DUP4 AND SWAP2 POP POP SWAP3 SWAP2 POP POP JUMP JUMPDEST PUSH1 0x0 PUSH2 0xE8D DUP4 DUP4 PUSH2 0xE63 JUMP JUMPDEST SWAP2 POP DUP3 PUSH1 0x2 MUL DUP3 OR SWAP1 POP SWAP3 SWAP2 POP POP JUMP JUMPDEST PUSH2 0xEA6 DUP3 PUSH2 0x7B6 JUMP JUMPDEST PUSH8 0xFFFFFFFFFFFFFFFF DUP2 GT ISZERO PUSH2 0xEBF JUMPI PUSH2 0xEBE PUSH2 0x872 JUMP JUMPDEST JUMPDEST PUSH2 0xEC9 DUP3 SLOAD PUSH2 0xC2E JUMP JUMPDEST PUSH2 0xED4 DUP3 DUP3 DUP6 PUSH2 0xE10 JUMP JUMPDEST PUSH1 0x0 PUSH1 0x20 SWAP1 POP PUSH1 0x1F DUP4 GT PUSH1 0x1 DUP2 EQ PUSH2 0xF07 JUMPI PUSH1 0x0 DUP5 ISZERO PUSH2 0xEF5 JUMPI DUP3 DUP8 ADD MLOAD SWAP1 POP JUMPDEST PUSH2 0xEFF DUP6 DUP3 PUSH2 0xE81 JUMP JUMPDEST DUP7 SSTORE POP PUSH2 0xF67 JUMP JUMPDEST PUSH1 0x1F NOT DUP5 AND PUSH2 0xF15 DUP7 PUSH2 0xCF1 JUMP JUMPDEST PUSH1 0x0 JUMPDEST DUP3 DUP2 LT ISZERO PUSH2 0xF3D JUMPI DUP5 DUP10 ADD MLOAD DUP3 SSTORE PUSH1 0x1 DUP3 ADD SWAP2 POP PUSH1 0x20 DUP6 ADD SWAP5 POP PUSH1 0x20 DUP2 ADD SWAP1 POP PUSH2 0xF18 JUMP JUMPDEST DUP7 DUP4 LT ISZERO PUSH2 0xF5A JUMPI DUP5 DUP10 ADD MLOAD PUSH2 0xF56 PUSH1 0x1F DUP10 AND DUP3 PUSH2 0xE63 JUMP JUMPDEST DUP4 SSTORE POP JUMPDEST PUSH1 0x1 PUSH1 0x2 DUP9 MUL ADD DUP9 SSTORE POP POP POP JUMPDEST POP POP POP POP POP POP JUMP JUMPDEST PUSH32 0x4E487B7100000000000000000000000000000000000000000000000000000000 PUSH1 0x0 MSTORE PUSH1 0x32 PUSH1 0x4 MSTORE PUSH1 0x24 PUSH1 0x0 REVERT JUMPDEST PUSH32 0x4E487B7100000000000000000000000000000000000000000000000000000000 PUSH1 0x0 MSTORE PUSH1 0x11 PUSH1 0x4 MSTORE PUSH1 0x24 PUSH1 0x0 REVERT JUMPDEST PUSH1 0x0 PUSH2 0xFD8 DUP3 PUSH2 0x753 JUMP JUMPDEST SWAP2 POP PUSH2 0xFE3 DUP4 PUSH2 0x753 JUMP JUMPDEST SWAP3 POP DUP3 DUP3 SUB SWAP1 POP DUP2 DUP2 GT ISZERO PUSH2 0xFFB JUMPI PUSH2 0xFFA PUSH2 0xF9E JUMP JUMPDEST JUMPDEST SWAP3 SWAP2 POP POP JUMP JUMPDEST PUSH1 0x0 PUSH2 0x100C DUP3 PUSH2 0x753 JUMP JUMPDEST SWAP2 POP PUSH2 0x1017 DUP4 PUSH2 0x753 JUMP JUMPDEST SWAP3 POP DUP3 DUP3 ADD SWAP1 POP DUP1 DUP3 GT ISZERO PUSH2 0x102F JUMPI PUSH2 0x102E PUSH2 0xF9E JUMP JUMPDEST JUMPDEST SWAP3 SWAP2 POP POP JUMP JUMPDEST PUSH1 0x0 DUP2 SLOAD SWAP1 POP PUSH2 0x1044 DUP2 PUSH2 0xC2E JUMP JUMPDEST SWAP1 POP SWAP2 SWAP1 POP JUMP JUMPDEST PUSH1 0x0 DUP2 SWAP1 POP DUP2 PUSH1 0x0 MSTORE PUSH1 0x20 PUSH1 0x0 KECCAK256 SWAP1 POP SWAP2 SWAP1 POP JUMP JUMPDEST DUP2 DUP2 SUB PUSH2 0x106E JUMPI POP POP PUSH2 0x1146 JUMP JUMPDEST PUSH2 0x1077 DUP3 PUSH2 0x1035 JUMP JUMPDEST PUSH8 0xFFFFFFFFFFFFFFFF DUP2 GT ISZERO PUSH2 0x1090 JUMPI PUSH2 0x108F PUSH2 0x872 JUMP JUMPDEST JUMPDEST PUSH2 0x109A DUP3 SLOAD PUSH2 0xC2E JUMP JUMPDEST PUSH2 0x10A5 DUP3 DUP3 DUP6 PUSH2 0xE10 JUMP JUMPDEST PUSH1 0x0 PUSH1 0x1F DUP4 GT PUSH1 0x1 DUP2 EQ PUSH2 0x10D4 JUMPI PUSH1 0x0 DUP5 ISZERO PUSH2 0x10C2 JUMPI DUP3 DUP8 ADD SLOAD SWAP1 POP JUMPDEST PUSH2 0x10CC DUP6 DUP3 PUSH2 0xE81 JUMP JUMPDEST DUP7 SSTORE POP PUSH2 0x113F JUMP JUMPDEST PUSH1 0x1F NOT DUP5 AND PUSH2 0x10E2 DUP8 PUSH2 0x104B JUMP JUMPDEST SWAP7 POP PUSH2 0x10ED DUP7 PUSH2 0xCF1 JUMP JUMPDEST PUSH1 0x0 JUMPDEST DUP3 DUP2 LT ISZERO PUSH2 0x1115 JUMPI DUP5 DUP10 ADD SLOAD DUP3 SSTORE PUSH1 0x1 DUP3 ADD SWAP2 POP PUSH1 0x1 DUP6 ADD SWAP5 POP PUSH1 0x20 DUP2 ADD SWAP1 POP PUSH2 0x10F0 JUMP JUMPDEST DUP7 DUP4 LT ISZERO PUSH2 0x1132 JUMPI DUP5 DUP10 ADD SLOAD PUSH2 0x112E PUSH1 0x1F DUP10 AND DUP3 PUSH2 0xE63 JUMP JUMPDEST DUP4 SSTORE POP JUMPDEST PUSH1 0x1 PUSH1 0x2 DUP9 MUL ADD DUP9 SSTORE POP POP POP JUMPDEST POP POP POP POP POP POP JUMPDEST JUMP JUMPDEST PUSH1 0x0 PUSH2 0x1153 DUP3 PUSH2 0x753 JUMP JUMPDEST SWAP2 POP PUSH32 0xFFFFFFFFFFFFFFFFFFFFFFFFFFFFFFFFFFFFFFFFFFFFFFFFFFFFFFFFFFFFFFFF DUP3 SUB PUSH2 0x1185 JUMPI PUSH2 0x1184 PUSH2 0xF9E JUMP JUMPDEST JUMPDEST PUSH1 0x1 DUP3 ADD SWAP1 POP SWAP2 SWAP1 POP JUMP JUMPDEST PUSH32 0x4E487B7100000000000000000000000000000000000000000000000000000000 PUSH1 0x0 MSTORE PUSH1 0x31 PUSH1 0x4 MSTORE PUSH1 0x24 PUSH1 0x0 REVERT INVALID LOG2 PUSH5 0x6970667358 0x22 SLT KECCAK256 DUP8 DUP14 0xBA 0xAF 0xF8 PUSH15 0xA30785D3B9225B57A388D39945F488 PUSH14 0xDD6715F5C83E796477164736F6C PUSH4 0x43000813 STOP CALLER "},"gasEstimates":{"creation":{"codeDepositCost":"919400","executionCost":"infinite","totalCost":"infinite"},"external":{"administrador()":"2536","deleteMessage(uint256)":"infinite","getMessage(uint256)":"infinite","getMessages()":"infinite","isUser(address)":"2890","messages(uint256)":"infinite","setMessage(string)":"infinite"}},"methodIdentifiers":{"administrador()":"7062b97d","deleteMessage(uint256)":"b888690a","getMessage(uint256)":"86f79edb","getMessages()":"5ff6cbf3","isUser(address)":"4209fff1","messages(uint256)":"0d80fefd","setMessage(string)":"368b8772"}},"storageLayout":{"storage":[{"astId":4,"contract":"messagebox.sol:Messagebox","label":"messages","offset":0,"slot":"0","type":"t_array(t_string_storage)dyn_storage"},{"astId":8,"contract":"messagebox.sol:Messagebox","label":"isUser","offset":0,"slot":"1","type":"t_mapping(t_address,t_bool)"},{"astId":16,"contract":"messagebox.sol:Messagebox","label":"administrador","offset":0,"slot":"2","type":"t_address"}],"types":{"t_address":{"encoding":"inplace","label":"address","numberOfBytes":"20"},"t_array(t_string_storage)dyn_storage":{"base":"t_string_storage","encoding":"dynamic_array","label":"string[]","numberOfBytes":"32"},"t_bool":{"encoding":"inplace","label":"bool","numberOfBytes":"1"},"t_mapping(t_address,t_bool)":{"encoding":"mapping","key":"t_address","label":"mapping(address => bool)","numberOfBytes":"32","value":"t_bool"},"t_string_storage":{"encoding":"bytes","label":"string","numberOfBytes":"32"}}},"userdoc":{"kind":"user","methods":{},"version":1}}